:020000040800F2
:1000000000000220116A0008811300088313000811
:1000100085130008871300088913000800000000FA
:10002000000000000000000000000000214D00085A
:100030008B13000800000000C14D0008254E000889
:10004000616A0008616A0008616A0008616A000864
:10005000616A0008616A0008616A0008616A000854
:10006000616A0008616A0008616A0008616A000844
:100070008D1300089D130008616A0008616A00087A
:10008000AD130008616A0008616A0008616A00082F
:10009000616A0008616A0008616A0008616A000814
:1000A000616A0008BD130008616A0008616A0008FF
:1000B000616A0008D5130008616A0008616A0008D7
:1000C000616A0008616A0008616A0008616A0008E4
:1000D000616A0008616A0008F913000885140008C5
:1000E000616A0008616A0008616A0008616A0008C4
:1000F000616A0008616A0008616A0008616A0008B4
:10010000616A0008616A0008616A0008616A0008A3
:1001100001150008616A0008616A0008616A000848
:10012000616A0008616A0008616A0008616A000883
:10013000616A0008616A0008616A0008616A000873
:10014000616A0008616A0008616A0008616A000863
:10015000616A0008616A0008616A0008616A000853
:10016000616A0008616A0008616A0008616A000843
:10017000616A0008616A0008616A00080000000006
:08018000616A0008616A0008D1
:1001900010B5054C237833B9044B13B10448AFF3C1
:1001A00000800123237010BDE0010020000000004A
:1001B000F894000808B5034B1BB103490348AFF39B
:1001C000008008BD00000000E4010020F894000851
:1001D000034613F8012B002AFBD1181A0138704787
:1001E00001F0FF01102A2BDB10F0070F08D010F8E8
:1001F000013B013A8B422DD010F0070F42B3F6D1EC
:10020000F0B441EA012141EA014122F007047FF004
:1002100000070023F0E80256083C85EA010586EA5B
:10022000010685FA47F5A3FA87F586FA47F6A5FA97
:1002300087F68EB9EED1F0BC01F0FF0102F00702A3
:1002400032B110F8013B013A83EA010313B1F8D14E
:100250000020704701387047002D06BF354603382F
:10026000073815F0010F07D1013015F4807F02BF68
:10027000013015F4C03F0130F0BC0138704700BFB9
:1002800081F0004102E000BF83F0004330B54FEA47
:1002900041044FEA430594EA050F08BF90EA020FB4
:1002A0001FBF54EA000C55EA020C7FEA645C7FEA47
:1002B000655C00F0E2804FEA5454D4EB5555B8BF6A
:1002C0006D420CDD2C4480EA020281EA030382EADB
:1002D000000083EA010180EA020281EA0303362D6D
:1002E00088BF30BD11F0004F4FEA01314FF4801C40
:1002F0004CEA113102D0404261EB410113F0004F52
:100300004FEA03334CEA133302D0524263EB430308
:1003100094EA050F00F0A780A4F10104D5F1200EA6
:100320000DDB02FA0EFC22FA05F2801841F1000101
:1003300003FA0EF2801843FA05F359410EE0A5F1D5
:1003400020050EF1200E012A03FA0EFC28BF4CF006
:10035000020C43FA05F3C01851EBE37101F00045BC
:1003600007D54FF0000EDCF1000C7EEB00006EEBC9
:100370000101B1F5801F1BD3B1F5001F0CD3490853
:100380005FEA30004FEA3C0C04F101044FEA4452AA
:1003900012F5800F80F09A80BCF1004F08BF5FEA31
:1003A000500C50F1000041EB045141EA050130BD11
:1003B0005FEA4C0C404141EB0101013C28BFB1F523
:1003C000801FE9D291F0000F04BF01460020B1FA6E
:1003D00081F308BF2033A3F10B03B3F120020CDA41
:1003E0000C3208DD02F1140CC2F10C0201FA0CF01F
:1003F00021FA02F10CE002F11402D8BFC2F1200C84
:1004000001FA02F120FA0CFCDCBF41EA0C01904039
:10041000E41AA2BF01EB0451294330BD6FEA040482
:100420001F3C1CDA0C340EDC04F11404C4F120026D
:1004300020FA04F001FA02F340EA030021FA04F37F
:1004400045EA030130BDC4F10C04C4F1200220FAD6
:1004500002F001FA04F340EA0300294630BD21FA14
:1004600004F0294630BD94F0000F83F4801306BFDA
:1004700081F480110134013D4EE77FEA645C18BFCE
:100480007FEA655C29D094EA050F08BF90EA020F65
:1004900005D054EA000C04BF1946104630BD91EA5D
:1004A000030F1EBF0021002030BD5FEA545C05D160
:1004B0004000494128BF41F0004130BD14F580049F
:1004C0003CBF01F5801130BD01F0004545F0FE4113
:1004D00041F470014FF0000030BD7FEA645C1ABF48
:1004E000194610467FEA655C1CBF0B46024650EA7F
:1004F000013406BF52EA033591EA030F41F40021AB
:1005000030BD00BF90F0000F04BF0021704730B530
:100510004FF4806404F132044FF000054FF0000105
:1005200050E700BF90F0000F04BF0021704730B5C6
:100530004FF4806404F1320410F0004548BF40429B
:100540004FF000013EE700BF42004FEAE2014FEAF0
:1005500031014FEA02701FBF12F07F4393F07F4FCB
:1005600081F06051704732F07F4208BF704793F0CE
:100570007F4F04BF41F40021704730B54FF46074E1
:1005800001F0004521F000411CE700BF50EA0102E4
:1005900008BF704730B54FF000050AE050EA01028D
:1005A00008BF704730B511F0004502D5404261EBFD
:1005B00041014FF4806404F132045FEA915C3FF43E
:1005C000D8AE4FF003025FEADC0C18BF03325FEADB
:1005D000DC0C18BF033202EBDC02C2F1200300FA8C
:1005E00003FC20FA02F001FA03FE40EA0E0021FAB1
:1005F00002F11444BDE600BF70B54FF0FF0C4CF49F
:10060000E06C1CEA11541DBF1CEA135594EA0C0F50
:1006100095EA0C0F00F0DEF82C4481EA030621EA8B
:100620004C5123EA4C5350EA013518BF52EA0335C6
:1006300041F4801143F4801338D0A0FB02CE4FF078
:100640000005E1FB02E506F00042E0FB03E54FF0A8
:100650000006E1FB03569CF0000F18BF4EF0010EA0
:10066000A4F1FF04B6F5007F64F5407404D25FEA9C
:100670004E0E6D4146EB060642EAC62141EA55514F
:100680004FEAC52040EA5E504FEACE2EB4F1FD0C91
:1006900088BFBCF5E06F1ED8BEF1004F08BF5FEA0F
:1006A000500E50F1000041EB045170BD06F00046C1
:1006B00046EA010140EA020081EA0301B4EB5C046E
:1006C000C2BFD4EB0C0541EA045170BD41F4801166
:1006D0004FF0000E013C00F3AB8014F1360FDEBF8B
:1006E000002001F0004170BDC4F10004203C35DA67
:1006F0000C341BDC04F11404C4F1200500FA05F3EA
:1007000020FA04F001FA05F240EA020001F000428A
:1007100021F0004110EBD37021FA04F642EB060100
:100720005EEA430E08BF20EAD37070BDC4F10C042A
:10073000C4F1200500FA04F320FA05F001FA04F2EE
:1007400040EA020001F0004110EBD37041F10001DA
:100750005EEA430E08BF20EAD37070BDC4F12005E5
:1007600000FA05F24EEA020E20FA04F301FA05F24D
:1007700043EA020321FA04F001F0004121FA04F2F5
:1007800020EA020000EBD3705EEA430E08BF20EAC5
:10079000D37070BD94F0000F0FD101F000464000FF
:1007A00041EB010111F4801F08BF013CF7D041EA81
:1007B000060195F0000F18BF704703F00046520085
:1007C00043EB030313F4801F08BF013DF7D043EA56
:1007D0000603704794EA0C0F0CEA135518BF95EA0C
:1007E0000C0F0CD050EA410618BF52EA4306D1D193
:1007F00081EA030101F000414FF0000070BD50EAB2
:10080000410606BF1046194652EA430619D094EA3B
:100810000C0F02D150EA013613D195EA0C0F05D125
:1008200052EA03361CBF104619460AD181EA030179
:1008300001F0004141F0FE4141F470014FF0000031
:1008400070BD41F0FE4141F4780170BD70B54FF0CC
:10085000FF0C4CF4E06C1CEA11541DBF1CEA13554C
:1008600094EA0C0F95EA0C0F00F0A7F8A4EB05042E
:1008700081EA030E52EA03354FEA013100F0888025
:100880004FEA03334FF0805545EA131343EA1263EE
:100890004FEA022245EA111545EA10654FEA0026A3
:1008A0000EF000419D4208BF964244F1FD0404F55C
:1008B000407402D25B084FEA3202B61A65EB0305B8
:1008C0005B084FEA32024FF480104FF4002CB6EB75
:1008D000020E75EB030E22BFB61A754640EA0C00F5
:1008E0005B084FEA3202B6EB020E75EB030E22BF35
:1008F000B61A754640EA5C005B084FEA3202B6EB76
:10090000020E75EB030E22BFB61A754640EA9C0034
:100910005B084FEA3202B6EB020E75EB030E22BF04
:10092000B61A754640EADC0055EA060E18D04FEAC2
:10093000051545EA16754FEA06164FEAC30343EA62
:1009400052734FEAC2025FEA1C1CC0D111F4801F2F
:100950000BD141EA00014FF000004FF0004CB6E728
:1009600011F4801F04BF01430020B4F1FD0C88BFC7
:10097000BCF5E06F3FF6AFAEB5EB030C04BFB6EBD2
:10098000020C5FEA500C50F1000041EB045170BDC5
:100990000EF0004E4EEA113114EB5C04C2BFD4EBF2
:1009A0000C0541EA045170BD41F480114FF0000E76
:1009B000013C90E645EA060E8DE60CEA135594EAF2
:1009C0000C0F08BF95EA0C0F3FF43BAF94EA0C0FF5
:1009D0000AD150EA01347FF434AF95EA0C0F7FF46A
:1009E00025AF104619462CE795EA0C0F06D152EABE
:1009F00003353FF4FDAE1046194622E750EA4106A2
:100A000018BF52EA43067FF4C5AE50EA41047FF4B2
:100A10000DAF52EA43057FF4EBAE12E74FF0FF3C17
:100A200006E000BF4FF0010C02E000BF4FF0010CE8
:100A30004DF804CD4FEA410C7FEA6C5C4FEA430C61
:100A400018BF7FEA6C5C1BD001B050EA410C0CBFB0
:100A500052EA430C91EA030F02BF90EA020F002012
:100A6000704710F1000F91EA030F58BF994208BF79
:100A700090422CBFD8176FEAE37040F00100704736
:100A80004FEA410C7FEA6C5C02D150EA013C07D18D
:100A90004FEA430C7FEA6C5CD6D152EA033CD3D0D8
:100AA0005DF8040B704700BF8446104662468C46D2
:100AB0001946634600E000BF01B5FFF7B7FF002805
:100AC00048BF10F1000F01BD4DF808EDFFF7F4FF2E
:100AD0000CBF012000205DF808FB00BF4DF808EDB9
:100AE000FFF7EAFF34BF012000205DF808FB00BFDC
:100AF0004DF808EDFFF7E0FF94BF012000205DF8FE
:100B000008FB00BF4DF808EDFFF7CEFF94BF0120B2
:100B100000205DF808FB00BF4DF808EDFFF7C4FFAB
:100B200034BF012000205DF808FB00BF4FEA410CF4
:100B30007FEA6C5C02D150EA013C0AD14FEA430CD7
:100B40007FEA6C5C02D152EA033C02D14FF0000014
:100B500070474FF0010070474FEA410212F5001252
:100B600015D211D56FF47873B3EB625212D94FEAF4
:100B7000C12343F0004343EA505311F0004F23FADE
:100B800002F018BF404270474FF00000704750EA33
:100B9000013005D111F0004008BF6FF000407047F0
:100BA0004FF00000704700BF4FEA4102B2F1E0434E
:100BB00024BFB3F5001CDCF1FE5C0DD901F0004C44
:100BC0004FEAC0024CEA5070B2F1004F40EB830094
:100BD00008BF20F00100704711F0804F21D113F1C0
:100BE0003872BCBF01F00040704741F480114FEAF9
:100BF0005252C2F11802C2F1200C10FA0CF320FA82
:100C000002F018BF40F001004FEAC1234FEAD3239E
:100C100003FA0CFC40EA0C0023FA02F34FEA430308
:100C2000CCE77FEA625307D150EA01331EBF4FF091
:100C3000FE4040F44000704701F0004040F0FE40AC
:100C400040F40000704700BF53B94AB9002908BFFB
:100C500000281CBF4FF0FF314FF0FF3000F074B997
:100C6000ADF1080C6DE904CE00F006F8DDF804E003
:100C7000DDE9022304B070472DE9F047089D0446E2
:100C80008E46002B4DD18A42944669D9B2FA82F23F
:100C900052B101FA02F3C2F1200120FA01F10CFA7B
:100CA00002FC41EA030E94404FEA1C48210CBEFBB3
:100CB000F8F61FFA8CF708FB16E341EA034306FB3C
:100CC00007F199420AD91CEB030306F1FF3080F0CB
:100CD0001F81994240F21C81023E63445B1AA4B218
:100CE000B3FBF8F008FB103344EA034400FB07F7BA
:100CF000A7420AD91CEB040400F1FF3380F00A81FB
:100D0000A74240F207816444023840EA0640E41BEF
:100D100000261DB1D4400023C5E900433146BDE89B
:100D2000F0878B4209D9002D00F0EF800026C5E93D
:100D3000000130463146BDE8F087B3FA83F6002E55
:100D40004AD18B4202D3824200F2F980841A61EBCD
:100D5000030301209E46002DE0D0C5E9004EDDE7EB
:100D600002B9FFDEB2FA82F2002A40F09280A1EBD3
:100D70000C014FEA1C471FFA8CFE0126200CB1FB28
:100D8000F7F307FB131140EA01410EFB03F0884221
:100D900008D91CEB010103F1FF3802D2884200F2AE
:100DA000CB804346091AA4B2B1FBF7F007FB101140
:100DB00044EA01440EFB00FEA64508D91CEB0404DE
:100DC00000F1FF3102D2A64500F2BB800846A4EB39
:100DD0000E0440EA03409CE7C6F12007B34022FA24
:100DE00007FC4CEA030C20FA07F401FA06F31C4353
:100DF000F9404FEA1C4900FA06F3B1FBF9F8200C60
:100E00001FFA8CFE09FB181140EA014108FB0EF0A5
:100E1000884202FA06F20BD91CEB010108F1FF3AF5
:100E200080F08880884240F28580A8F10208614401
:100E3000091AA4B2B1FBF9F009FB101144EA01410F
:100E400000FB0EFE8E4508D91CEB010100F1FF34BA
:100E50006CD28E456AD90238614440EA0840A0FB52
:100E60000294A1EB0E01A142C846A64656D353D028
:100E70005DB1B3EB080261EB0E0101FA07F722FA4C
:100E800006F3F1401F43C5E9007100263146BDE875
:100E9000F087C2F12003D8400CFA02FC21FA03F3D8
:100EA000914001434FEA1C471FFA8CFEB3FBF7F059
:100EB00007FB10360B0C43EA064300FB0EF69E427E
:100EC00004FA02F408D91CEB030300F1FF382FD217
:100ED0009E422DD9023863449B1B89B2B3FBF7F6BF
:100EE00007FB163341EA034106FB0EF38B4208D998
:100EF0001CEB010106F1FF3816D28B4214D9023ED9
:100F00006144C91A46EA004638E72E46284605E7F6
:100F10000646E3E61846F8E64B45A9D2B9EB0208C7
:100F200064EB0C0E0138A3E74646EAE7204694E757
:100F30004046D1E7D0467BE7023B614432E730468A
:100F400009E76444023842E7704700BF08B5002251
:100F500006210D2001F046FA0D2001F07BFA002257
:100F60000521342001F03EFA342001F073FA08BD67
:100F700000B583B020E0164B186802F091FD03F035
:100F8000E1FE144B019302230093002340221249F7
:100F9000124802F050FD124B0193052300930023E9
:100FA0004FF480720F49104802F045FD0F4B18684E
:100FB00002F076FD03F0E8FE6421012003F014FA4C
:100FC0000028D8D14FF47A7002F092FFF4E700BF06
:100FD00018020020040200202C950008415300084C
:100FE0001402002038950008696600081C020020E1
:100FF00008B50268034B9A4200D008BD01F052FACE
:10100000FBE700BF0000014072B6FEE700B595B0F7
:101010003022002108A805F057FD00230393049314
:101020000593069307930193204A116C41F0805178
:101030001164126C02F080520192019A02931C4BCF
:101040001A6842F480421A601B6803F480430293DA
:10105000029B012308934FF48033099302220E92DE
:101060004FF480030F9304231093A821119112923F
:10107000139308A800F0E2FA98B90F230393022310
:101080000493002305934FF4A05306934FF4805329
:101090000793052103A800F037FD20B915B05DF8CE
:1010A00004FBFFF7B1FFFFF7AFFF00BF00380240BE
:1010B0000070004000B583B001F0DAF9FFF7A6FF39
:1010C00000F076F804F02CFF03F0CAFF03F0AEFF47
:1010D00003F0FAFF05F080F805F0E8F804F042FFAD
:1010E00003F0D8FF05F03CF905F072F9FFF72EFF89
:1010F00003220021012001F063FF1E4B1860032230
:101100000021012001F05CFF1B4B1860032200212D
:10111000012001F055FF194B1860194B0193012470
:101120000094002380221749174802F084FC174BD3
:1011300001930623009300234FF4007214491548CD
:1011400002F079FC144B0193009400238022134990
:10115000134802F070FC134B0193009400234022CB
:101160001149124802F067FC00F0F2F803F01FFC8E
:10117000FEE700BF0002002008020020100200204D
:10118000FC0100204C950008416400080C0200207E
:101190005C950008755600081C0200207095000838
:1011A000710F0008180200207C95000855650008A2
:1011B0002DE9F0478CB000240794089409940A9410
:1011C0000B940194474B1A6B42F010021A631A6B8E
:1011D00002F010020192019A02941A6B42F004028A
:1011E0001A631A6B02F004020292029A03941A6BB9
:1011F00042F080021A631A6B02F080020392039A93
:1012000004941A6B42F001021A631A6B02F0010295
:101210000492049A05941A6B42F002021A631A6B44
:1012200002F002020592059A06941A6B42F0080237
:101230001A631B6B03F008030693069BDFF8ACA050
:1012400022460821504600F045FE274F01220F217B
:10125000384600F03FFEDFF89890224603214846CA
:1012600000F038FE22467021384600F033FEDFF8E9
:10127000848022464FF4C041404600F02BFE0823F4
:10128000079301250895022609960A9407A9504656
:1012900000F02EFD0F230793089509950A9407A9DE
:1012A000384600F025FD03230793089509960A9414
:1012B00007A9484600F01CFD70230793089509967E
:1012C0000A9407A9384600F013FD4FF4C043079372
:1012D000089509960A9407A9404600F009FD0CB04C
:1012E000BDE8F087003802400008024000100240CC
:1012F000000002400004024008B5012003F091FB09
:10130000FBE70000024B00200021C3E90001704709
:10131000D84B0020014BD3E900017047D84B002087
:10132000034B0360034B0B6080231360704700BFC7
:101330002404002024020020034B0360034B0B60B5
:101340004FF48073136070478408002084040020E9
:1013500010B588B00DF1040C074C0FCCACE80F00B1
:1013600094E807008CE80700002101A803F024FBA3
:10137000024B186008B010BD109500082002002034
:10138000FEE7FEE7FEE7FEE7FEE7704708B5024826
:1013900000F028FF08BD00BF9048002008B50248B3
:1013A00000F020FF08BD00BFD047002008B502486C
:1013B00000F018FF08BD00BF3048002008B5034802
:1013C00001F08FF9024801F08CF908BDE408002013
:1013D0006C4A002010B5064801F083F9054CD4E9A9
:1013E0000023501C43F10001C4E9000110BD00BFFF
:1013F000444B0020D84B002030B583B01D4B1B68F8
:101400001A6812F0100F1DD0002200921A68009284
:101410005A680092009A1A685B68174B1B685B68F1
:101420000D2B14D0134D284604F00DFB134C142241
:101430002146284604F058FD002323606360A36022
:10144000E36023610B4804F0D3FB03B030BD0948CF
:1014500004F0F9FA01A90A4B186801F000FF4FF0F7
:10146000E0234FF08052C3F8042DBFF34F8FBFF33A
:101470006F8FE7E73449002030480020E44B00201C
:101480001002002000B583B0194B1B681A6812F0D7
:10149000100F0CD0002200921A6800925A68009235
:1014A000009A1A685B68134B1B78012B05D0104813
:1014B00004F09EFB03B05DF804FB0F4B1B685B68F8
:1014C000C3F12C03152BF2D9094804F0BCFA01A989
:1014D0000A4B186801F0C3FE4FF0E0234FF0805232
:1014E000C3F8042DBFF34F8FBFF36F8FDFE700BF4B
:1014F00078490020684A0020904800200802002017
:1015000000B583B0194B1B681A6812F0100F0CD08D
:10151000002200921A6800925A680092009A1A6893
:101520005B68134B1B78012B05D0104804F060FB5F
:1015300003B05DF804FB0F4B1B685B68C3F1B60397
:101540005A2BF2D9094804F07EFA01A90A4B18680F
:1015500001F085FE4FF0E0234FF08052C3F8042DD8
:10156000BFF34F8FBFF36F8FDFE700BFBC49002091
:10157000694A0020D04700200002002000B583B057
:10158000002200920D4B596C41F480415964596C12
:1015900001F48041009100990192196C41F0805151
:1015A00019641B6C03F080530193019B0F216FF0B2
:1015B000010000F017FF03B05DF804FB00380240A3
:1015C00010B588B001460022192000F00BFF192049
:1015D00000F040FF00240194144B5A6C42F00102C9
:1015E0005A645B6C03F001030193019B02A903A8F9
:1015F00000F060FB00F04EFB43000D48A0FB03230E
:101600009B0C013B0B480C4A026040F2E732C2607F
:1016100043600461846001F085F910B1012008B0D5
:1016200010BD044801F014F8F9E700BF003802408B
:1016300083DE1B43E408002000000140002800F086
:10164000E08170B582B00446036813F0010F3BD00F
:101650009F4B9B6803F00C03042B2CD09C4B9B6886
:1016600003F00C03082B21D06368B3F5803F4FD003
:10167000B3F5A02F52D0964B1A6822F480321A602C
:101680001A6822F480221A606368002B50D000F0A0
:1016900015FF05468E4B1B6813F4003F14D100F074
:1016A0000DFF401B6428F5D90320B1E1884B5B682E
:1016B00013F4800FD8D0864B1B6813F4003F03D07F
:1016C0006368002B00F09F81236813F0020F54D051
:1016D0007F4B9B6813F00C0F3ED07D4B9B6803F053
:1016E0000C03082B33D0E368002B68D0794B012220
:1016F0001A6000F0E3FE0546754B1B6813F0020FFD
:1017000054D100F0DBFE401B0228F5D903207FE115
:101710006F4A136843F480331360B5E76C4B1A6863
:1017200042F480221A601A6842F480321A60ABE7F1
:1017300000F0C4FE0546664B1B6813F4003FC3D09F
:1017400000F0BCFE401B6428F5D9032060E1604B2B
:101750005B6813F4800FC6D15D4B1B6813F0020F5A
:1017600003D0E368012B40F05081594A136823F0FD
:10177000F803216943EAC1031360236813F0080FDB
:1017800042D063696BB3534B0122C3F8802E00F043
:1017900095FE05464E4B5B6F13F0020F34D100F0FF
:1017A0008DFE401B0228F5D9032031E1484A136819
:1017B00023F0F803216943EAC1031360DDE7454BD9
:1017C00000221A6000F07AFE0546414B1B6813F0B8
:1017D000020FD2D000F072FE401B0228F5D9032080
:1017E00016E13C4B0022C3F8802E00F067FE054650
:1017F000374B5B6F13F0020F06D000F05FFE401B0B
:101800000228F5D9032003E1236813F0040F77D0F1
:101810002F4B1B6C13F0805F33D1002301932C4BB3
:101820001A6C42F080521A641B6C03F080530193CF
:10183000019B0125284B1B6813F4807F23D0A368EC
:10184000012B34D0052B38D0214B1A6F22F0010226
:101850001A671A6F22F004021A67A368002B3DD0A2
:1018600000F02CFE06461A4B1B6F13F0020F46D1F8
:1018700000F024FE801B41F288339842F3D9032004
:10188000C6E00025D6E7144A136843F4807313605A
:1018900000F014FE0646104B1B6813F4807FCED177
:1018A00000F00CFE801B0228F5D90320B0E0084AA6
:1018B000136F43F001031367CFE7054B1A6F42F034
:1018C00004021A671A6F42F001021A67C5E700BFE7
:1018D00000380240000047420070004000F0EEFD7A
:1018E0000646524B1B6F13F0020F08D000F0E6FDC6
:1018F000801B41F288339842F3D9032088E0EDB988
:10190000A369002B00F08380484A926802F00C0221
:10191000082A51D0022B17D0454B00221A6600F03E
:10192000CDFD0446414B1B6813F0007F42D000F010
:10193000C5FD001B0228F5D9032069E03B4A136C62
:1019400023F080531364DBE7394B00221A6600F062
:10195000B5FD0546354B1B6813F0007F06D000F03F
:10196000ADFD401B0228F5D9032051E0E369226A4E
:101970001343626A43EA8213A26A5208013A43EAB5
:101980000243E26A43EA0263284A5360284B012279
:101990001A6600F093FD0446244B1B6813F0007F89
:1019A00006D100F08BFD001B0228F5D903202FE0A3
:1019B00000202DE000202BE0012B2BD01B4B5B687F
:1019C00003F48001E269914226D103F03F02216ACB
:1019D0008A4223D1616A47F6C0721A40B2EB811F76
:1019E0001ED103F44031A26A5208013AB1EB024F12
:1019F00018D103F07063E26AB3EB026F14D10020D8
:101A000006E001207047012002E0012000E00020F4
:101A100002B070BD0120FBE70120F9E70120F7E7E4
:101A20000120F5E70120F3E70120F1E7003802404B
:101A30000000474208B5314B9B6803F00C03042BB0
:101A400057D0082B57D12D4B5A6802F03F025B68E4
:101A500013F4800F2AD0294B5968C1F3881C4FEA30
:101A60004C11B1EB0C006EEB0E0E4FEA8E1343EAF5
:101A700090638101091A63EB0E03DB0043EA5173A3
:101A8000C90011EB0C0C43F10003590200234FEA8B
:101A90004C2041EADC51FFF7D7F8184B5B68C3F3E1
:101AA000014301335B00B0FBF3F025E0134B5968B1
:101AB000C1F3881C4FEA4C11B1EB0C006EEB0E0E1B
:101AC0004FEA8E1343EA90638101091A63EB0E0318
:101AD000DB0043EA5173C90011EB0C0C43F1000326
:101AE000990200234FEA8C2041EA9C51FFF7ACF8A1
:101AF000D3E7034800E0034808BD00BF00380240B8
:101B000000127A000024F400002800F09B8070B5D9
:101B10000D4604464F4B1B6803F007038B4208D267
:101B2000CBB24C4A1370136803F007038B4240F0AA
:101B30008B80236813F0020F17D013F0040F04D02A
:101B4000454A936843F4E0539360236813F0080F09
:101B500004D0414A936843F4604393603E4A9368DB
:101B600023F0F003A1680B439360236813F0010F87
:101B700032D06368012B21D09A1E012A25D9364A1A
:101B8000126812F0020F61D033498A6822F0030212
:101B900013438B6000F092FC06462F4B9B6803F0CA
:101BA0000C036268B3EB820F16D000F087FC801B39
:101BB00041F288339842F0D9032042E0264A126865
:101BC00012F4003FE0D101203BE0234A126812F0FA
:101BD000007FD9D1012034E01E4B1B6803F00703BE
:101BE000AB4207D9EAB21B4B1A701B6803F007031C
:101BF000AB422DD1236813F0040F06D0164A936828
:101C000023F4E053E1680B439360236813F0080F5B
:101C100007D0114A936823F46043216943EAC10362
:101C20009360FFF707FF0C4B9B68C3F303130B4A4A
:101C3000D35CD8400A4B18600A4B1868FFF7C0FC09
:101C4000002070BD012070470120FAE70120F8E76D
:101C50000120F6E7003C024000380240A49500084D
:101C60000800002004000020014B1868704700BFE6
:101C70000800002008B5FFF7F7FF044B9B68C3F38B
:101C80008223034AD35CD84008BD00BF003802401D
:101C9000B495000808B5FFF7E7FF044B9B68C3F352
:101CA0004233034AD35CD84008BD00BF003802402D
:101CB000B49500080F2303600B4B9A6802F00302EF
:101CC00042609A6802F0F00282609A6802F4E05280
:101CD000C2609B68DB0803F4E0530361034B1B689D
:101CE00003F007030B60704700380240003C0240DD
:101CF00000230F2B00F2E48070B582B060E08568AD
:101D00005E000324B44025EA0405CC68B4402C43AB
:101D10008460456825EA02054C68C4F300129A40C5
:101D20002A4342605AE0DC08083450F8246003F08B
:101D3000070295000F22AA4026EA020E0A69AA406D
:101D400042EA0E0240F824205CE0072200E0002274
:101D500002FA0EF22A4302345A4D45F824205A4A18
:101D600014686FEA0C0224EA0C054E6816F4803FF2
:101D700001D04CEA0405544C2560646802EA04056D
:101D80004E6816F4003F01D04CEA04054E4C6560E5
:101D9000A46802EA04054E6816F4801F01D04CEADC
:101DA0000405494CA560E46822404D6815F4001F05
:101DB00001D04CEA0402444CE26001330F2B7DD881
:101DC00001229A400C6804EA020C32EA0404F4D1BD
:101DD0004C6804F00304013C012C90D94A6802F0DD
:101DE0000302032A09D0C4685D000322AA4024EA42
:101DF00002048A68AA402243C2604A6802F00302D1
:101E0000022A90D004684FEA430E032202FA0EF22F
:101E100024EA02044A6802F0030202FA0EF22243A4
:101E200002604A6812F0805FC7D000220192274A00
:101E3000546C44F480445464526C02F48042019225
:101E4000019A9C08A51C1F4A52F8255003F0030272
:101E50004FEA820E0F2202FA0EF225EA02051C4A10
:101E600090423FF474AF02F5806290421AD002F5BE
:101E70008062904218D002F58062904216D002F53E
:101E80008062904214D002F58062904212D002F536
:101E90008062904210D002F5806290423FF455AFCC
:101EA000082255E7012253E7022251E703224FE7B8
:101EB00004224DE705224BE7062249E702B070BD38
:101EC000704700BF00380140003C0140003802402C
:101ED000000002400AB181617047090481617047C6
:101EE000436901EA030221EA030141EA02418161F7
:101EF000704730B405682C6824F480242C60046892
:101F000063608368402B05D0036899600368DA60DA
:101F100030BC704703689A600368D960F8E7000036
:101F200010B40368D9B210390C4AA2FB014212095D
:101F30000B4CA25CC2655F2909D923F47F7323F09F
:101F4000030304338365806D5DF8044B704723F40D
:101F50007F7323F003038365F5E700BFABAAAAAA4A
:101F60009C950008836A826992B9012B0AD0022BE2
:101F700002D00BB100207047C36A13F0807F28D1D4
:101F800000207047C36AB3F1C07F24D0002070479F
:101F9000B2F5005F09D0022B25D9032B25D1C36AE6
:101FA00013F0807F23D100207047032B03D8DFE894
:101FB00003F01404140A00207047C36A13F0807FF2
:101FC0000DD100207047C36AB3F1C07F09D0002053
:101FD00070470120704701207047012070470120A1
:101FE0007047012070470120704700207047012092
:101FF0007047000070B5044600F060FA002C5BD01A
:102000000546002384F83430022384F835302268F2
:10201000136823F00103136023681A6812F0010F9C
:102020000AD000F04BFA431B052BF5D9202363653A
:10203000032084F8350070BD1A682048104061689C
:10204000A2680A43E1680A4321690A4361690A43B5
:10205000A1690A43E1690A43216A0A430243616AAA
:1020600004291ED01A602668756925F00705636A81
:102070001D43042B07D1A36A1D43E36A1BB120460D
:10208000FFF770FF90B975612046FFF749FFE26DD9
:102090003F239340836000206065012384F835303E
:1020A000C9E7E16A206B01430A43DBE7402363652C
:1020B000012084F83500BEE70120BCE73F8010F026
:1020C00038B50446856D90F8340001282BD00120E6
:1020D00084F8340094F83500C0B2012804D00023FD
:1020E00084F83430022038BD022084F83500002006
:1020F00060652046FFF7FDFEE26D3F239340AB6035
:102100002268136843F016031360236C23B122681E
:10211000136843F0080313602268136843F0010357
:1021200013600020DFE70220DDE770B50446866D0E
:1021300000F0C4F994F83530DBB2022B06D08023CE
:102140006365002384F83430012070BD05462268A1
:10215000136823F0160313602268536923F0800389
:102160005361236CE3B12268136823F00803136002
:102170002268136823F00103136023681B6813F0BF
:10218000010F11D000F09AF9431B052BF5D920233C
:102190006365002384F83430032084F83500D4E7E5
:1021A000A36C002BDFD1E3E7E26D3F239340B360E4
:1021B000002084F83400012384F83530C5E790F816
:1021C0003530DBB2022B03D08023436501207047FA
:1021D000052380F835300268136823F0010313608B
:1021E00000207047F0B583B0044600230193724B82
:1021F0001D68724BA3FB0535AD0A876D3E68C26D45
:1022000008239340334210D003681A6812F0040F79
:102210000BD01A6822F004021A60C26D08239340A2
:10222000BB60436D43F001034365E26D01239340BE
:10223000334209D02268526912F0800F04D0BB608B
:10224000636D43F002036365E26D04239340334200
:1022500009D02268126812F0020F04D0BB60636DCF
:1022600043F004036365E26D10239340334224D0AE
:102270002268126812F0080F1FD0BB6023681A682A
:1022800012F4802F0DD01B6813F4002F04D1236C9F
:102290009BB12046984710E0A36C73B12046984745
:1022A0000BE01A6812F4807F03D11A6822F008024A
:1022B0001A60236C0BB120469847E26D20239340AF
:1022C000334255D02268126812F0100F50D0BB6014
:1022D00094F83530DBB2052B0ED023681A6812F45F
:1022E000802F33D01B6813F4002F2AD1636C002B8E
:1022F0003ED0204698473BE02268136823F016033F
:1023000013602268536923F080035361236CA3B1E7
:102310002268136823F008031360E26D3F239340A3
:10232000BB60002384F83430012384F83530236DFA
:10233000002B3FD0204698473CE0A36C002BE7D110
:10234000EBE7E36BA3B12046984711E01A6812F45B
:10235000807F09D11A6822F010021A60002384F8E5
:102360003430012384F83530E36B0BB120469847B5
:10237000636DFBB1636D13F0010F17D0052384F873
:1023800035302268136823F001031360019B013389
:102390000193AB4204D823681B6813F0010FF5D1F9
:1023A000002384F83430012384F83530E36C0BB11A
:1023B0002046984703B0F0BD08000020B5814E1BB1
:1023C000074AD36823F4E0631B041B0C000200F4EB
:1023D000E060034343F0BF6343F40033D3607047CE
:1023E00000ED00E000B5194BDB68C3F30223C3F135
:1023F000070CBCF1040F28BF4FF0040C03F1040ECE
:10240000BEF1060F18D9033B4FF0FF3E0EFA0CFC4D
:1024100021EA0C0199400EFA03F322EA030319435F
:1024200000280BDB0901C9B200F1604000F56140F2
:1024300080F800135DF804FB0023E5E700F00F00CF
:102440000901C9B2024B1954F4E700BF00ED00E0E6
:1024500014ED00E0002807DB00F01F024009012313
:102460009340024A42F82030704700BF00E100E08C
:1024700008B50B4B1A6842F400721A601A6842F4ED
:1024800080621A601A6842F480721A600320FFF7B3
:1024900097FF0020FFF794F8FFF770F8002008BDC1
:1024A000003C0240034A1168034B1B780B44136045
:1024B000704700BF2C09002000000020014B186865
:1024C000704700BF2C09002030B4036A23F00103D9
:1024D0000362036A4268846924F073040D682C4324
:1024E00023F0020C8B6843EA0C03104DA84203D082
:1024F00005F58065A84205D123F00803CD682B437C
:1025000023F00403094DA84203D005F58065A842D5
:1025100005D122F440724D692A438D692A434260F5
:1025200084614A684263036230BC70470000014026
:1025300030B4036A23F480730362036A4268C46997
:1025400024F0730C0C6844EA0C0523F400738C68C7
:1025500043EA0423114CA04203D004F58064A04256
:1025600006D123F40063CC6843EA042323F4806398
:102570000A4CA04203D004F58064A04207D122F4A3
:1025800040524C6942EA04128C6942EA04124260E9
:10259000C5614A68C263036230BC704700000140F5
:1025A00030B4036A23F480530362036A4468C26947
:1025B00022F4E6420D6842EA052223F400538D68B6
:1025C00043EA0533094DA84203D005F58065A842CA
:1025D00004D124F480444D6944EA85144460C26106
:1025E0004A680264036230BC704700BF00000140CB
:1025F00010B4036A046A24F001040462846924F0BC
:10260000F00C4CEA021223F00A030B4382610362CE
:102610005DF8044B704710B4046A24F0100404629F
:102620008469036A24F4704C4CEA023223F0A0035C
:1026300043EA0113826103625DF8044B70478368CB
:1026400023F070030B4343F00703836070470000DF
:1026500090F83D30DBB2012B37D1022380F83D30BA
:102660000268D36843F00103D3600368194A9342B8
:1026700020D0B3F1804F1DD0A2F57C42934219D0F7
:1026800002F58062934215D002F58062934211D028
:1026900002F5784293420DD002F57052934209D070
:1026A000A2F59432934205D01A6842F001021A60F2
:1026B000002070479A6802F00702062A07D01A68BD
:1026C00042F001021A60002070470120704700208C
:1026D000704700BF00000140704770477047704767
:1026E000704710B5044603681A6912F0020F11D042
:1026F000DA6812F0020F0DD06FF002021A610123A6
:10270000037703689B6913F0030F70D0FFF7E6FFB0
:102710000023237723681A6912F0040F12D0DA68B5
:1027200012F0040F0ED06FF004021A610223237717
:1027300023689B6913F4407F5FD02046FFF7CEFFEC
:102740000023237723681A6912F0080F12D0DA6881
:1027500012F0080F0ED06FF008021A6104232377DD
:102760002368DB6913F0030F4ED02046FFF7B6FF56
:102770000023237723681A6912F0100F12D0DA6849
:1027800012F0100F0ED06FF010021A610823237799
:102790002368DB6913F4407F3DD02046FFF79EFF9E
:1027A0000023237723681A6912F0010F03D0DA6837
:1027B00012F0010F36D123681A6912F0800F03D08E
:1027C000DA6812F0800F34D123681A6912F0400FD2
:1027D00003D0DA6812F0400F32D123681A6912F080
:1027E000200F03D0DA6812F0200F30D110BDFFF7B0
:1027F00074FF2046FFF773FF8AE72046FFF76DFF5F
:102800002046FFF76CFF9BE72046FFF766FF204658
:10281000FFF765FFACE72046FFF75FFF2046FFF7B5
:102820005EFFBDE76FF001021A612046FEF7E0FB94
:10283000C1E76FF080021A61204600F02CFAC3E76E
:102840006FF040021A612046FFF74AFFC5E76FF0BC
:1028500020021A61204600F01DFAC7E70368304ADB
:10286000904212D0B0F1804F0FD0A2F57C4290423E
:102870000BD002F58062904207D002F58062904250
:1028800003D002F57842904203D123F070034A68E6
:102890001343234A90422AD0B0F1804F27D0A2F5AB
:1028A0007C42904223D002F5806290421FD002F514
:1028B000806290421BD002F57842904217D002F518
:1028C0007052904213D002F5806290420FD002F510
:1028D000806290420BD0A2F59832904207D002F568
:1028E0008062904203D002F58062904203D123F4CB
:1028F0004073CA68134323F080034A69134303609B
:102900008B68C3620B688362054B984203D003F562
:102910008063984201D10B690363012343617047CF
:102920000000014040B310B5044690F83D30F3B1CB
:10293000022384F83D30214651F8040BFFF78EFF47
:10294000012384F8463084F83E3084F83F3084F820
:10295000403084F8413084F8423084F8433084F8C1
:10296000443084F8453084F83D30002010BD80F8B4
:102970003C3003F02DFBDBE70120704740B310B57E
:10298000044690F83D30F3B1022384F83D302146EF
:1029900051F8040BFFF762FF012384F8463084F8F6
:1029A0003E3084F83F3084F8403084F8413084F879
:1029B000423084F8433084F8443084F8453084F859
:1029C0003D30002010BD80F83C30FFF785FEDBE78E
:1029D0000120704730B4036A23F010030362036AD6
:1029E0004468826922F4E6420D6842EA052223F037
:1029F00020038D6843EA0513114DA84203D005F565
:102A00008065A84206D123F08003CD6843EA051310
:102A100023F040030A4DA84203D005F58065A84283
:102A200007D124F440644D6944EA85048D6944EA81
:102A30008504446082614A688263036230BC7047E7
:102A40000000014038B590F83C30012B60D00446BE
:102A50000D46012380F83C300C2A1AD8DFE802F03A
:102A6000071919191D191919311919194400006884
:102A7000FFF72AFD2268936943F0080393612268F7
:102A8000936923F0040393612268936929690B43D6
:102A90009361002084F83C0038BD0068FFF79AFF7E
:102AA0002268936943F4006393612268936923F475
:102AB0008063936122689369296943EA01239361E2
:102AC000E7E70068FFF734FD2268D36943F00803A5
:102AD000D3612268D36923F00403D3612268D369E8
:102AE00029690B43D361D4E70068FFF759FD2268D9
:102AF000D36943F40063D3612268D36923F480630C
:102B0000D3612268D369296943EA0123D361C0E70D
:102B10000220C1E710B4846824F47F4C42EA032207
:102B20000A4342EA0C0282605DF8044B704790F859
:102B30003C30012B66D010B50446012380F83C30B0
:102B4000022380F83D300268936823F47F4323F02A
:102B5000770393600B68602B40D022D8402B47D07E
:102B60000BD9502B0ED1CA6849680068FFF740FDA9
:102B700050212068FFF763FD04E0202B0CD008D91A
:102B8000302B09D0012384F83D30002084F83C002C
:102B900010BD0BB1102BF5D119462068FFF74FFD82
:102BA000F0E7702B0ED0B3F5005FEBD1CB684A682D
:102BB00089680068FFF7AEFF2268936843F480439A
:102BC0009360DFE7CB684A6889680068FFF7A2FF77
:102BD0002268936843F077039360D3E7CA68496833
:102BE0000068FFF718FD60212068FFF728FDC9E79E
:102BF000CA6849680068FFF7FBFC40212068FFF7BE
:102C00001EFDBFE70220704790F83C30012B3DD0FD
:102C100010B4012380F83C30022380F83D30036873
:102C20005A689C6822F0700C0A6842EA0C025A60EA
:102C30000368174A93421AD0B3F1804F17D0A2F518
:102C40007C42934213D002F5806293420FD002F58A
:102C5000806293420BD002F57842934207D002F58E
:102C60007052934203D0A2F59432934204D124F0DF
:102C700080044A6814439C60012380F83D3000239F
:102C800080F83C3018465DF8044B704702207047CE
:102C90000000014070477047034AD2F8883043F47F
:102CA0007003C2F88830704700ED00E000F10803BF
:102CB00043604FF0FF328260C36003610023036012
:102CC000704700230361704743684B609A688A60CD
:102CD000516099600861036801330360704730B444
:102CE0000D68B5F1FF3F11D000F108031C465B6889
:102CF0001A68AA42FAD963684B6099608C60616077
:102D0000086103680133036030BC70470469F2E76F
:102D10000369416882688A60416851605A688242EA
:102D200006D0002202611A68013A1A6018687047DA
:102D300082685A60F5E70346406A18B11B6B186851
:102D4000C0F10700704710B5044601F0FBFFA26B0D
:102D5000E36B9A4204D0002402F016F8204610BD1E
:102D60000124F9E710B5044601F0ECFFA36B23B989
:102D7000012402F009F8204610BD0024F9E770B5DF
:102D800004461546866B026C5AB903681BB10020D5
:102D90000136A66370BD806801F064FA0023A36069
:102DA000F6E76DB9406803F081FE226C6368134456
:102DB0006360A268934219D3236863602846E7E7FB
:102DC000C06803F073FE226C5142E3689B1AE36013
:102DD0002268934202D2A3680B44E360022D01D023
:102DE0000020D5E726B1013E0020D1E72846CFE7F5
:102DF0000020CDE70346026C6AB110B50846D968D9
:102E00001144D9609C68A14201D31968D960D9687E
:102E100003F04CFE10BD704738B5054601F092FF37
:102E200095F8454064B201E0013C64B2002C0ADD33
:102E30006B6A43B105F1240001F014F90028F3D0C6
:102E400001F0A4F9F0E7FF2385F8453001F09CFF7D
:102E500001F078FF95F8444064B201E0013C64B2AF
:102E6000002C0ADD2B6943B105F1100001F0FAF8DE
:102E70000028F3D001F08AF9F0E7FF2385F8443009
:102E800001F082FF38BD38B5E0B10D46044601F0CF
:102E900059FF2368E26B216C01FB0230A060002027
:102EA000A0636360013A02FB0133E360FF2384F80F
:102EB000443084F84530FDB9236963B901F064FFFB
:102EC000012038BD4FF0500383F31188BFF36F8F9B
:102ED000BFF34F8FFEE704F1100001F0C3F80028A4
:102EE000ECD04FF0E0234FF08052C3F8042DBFF335
:102EF0004F8FBFF36F8FE1E704F11000FFF7D6FEAD
:102F000004F12400FFF7D2FED8E738B51D46049C33
:102F10000B4649B92460E063236401212046FFF792
:102F2000B2FF84F84C5038BD2260F4E740B94FF04E
:102F3000500383F31188BFF36F8FBFF34F8FFEE70A
:102F400010B584B01C46844653B192B189B94FF094
:102F5000500383F31188BFF36F8FBFF34F8FFEE7EA
:102F60004FF0500383F31188BFF36F8FBFF34F8F80
:102F7000FEE76AB150230393039B502B13D04FF00D
:102F8000500383F31188BFF36F8FBFF34F8FFEE7BA
:102F90000029EFD04FF0500383F31188BFF36F8FF8
:102FA000BFF34F8FFEE7039B012384F84630009464
:102FB0009DF818306046FFF7A8FF204604B010BD0A
:102FC00040B94FF0500383F31188BFF36F8FBFF305
:102FD0004F8FFEE7F0B583B00D461446064601FB61
:102FE00000F0503001F088FD074650B1002380F812
:102FF00046300090234600F1500229463046FFF744
:1030000084FF384603B0F0BDF0B585B0019288B1B9
:103010000F461D460446B1B1022D20D1E36B012BB2
:103020001DD04FF0500383F31188BFF36F8FBFF3B0
:103030004F8FFEE74FF0500383F31188BFF36F8F7C
:10304000BFF34F8FFEE7036C002BE5D04FF050032A
:1030500083F31188BFF36F8FBFF34F8FFEE701F04B
:103060009BF8064658B9019B002B48D04FF05003FF
:1030700083F31188BFF36F8FBFF34F8FFEE70026F6
:103080003DE02A4639462046FFF779FE636A7BB960
:1030900048B14FF0E0234FF08052C3F8042DBFF346
:1030A0004F8FBFF36F8F01F06FFE012005B0F0BDB1
:1030B00004F1240000F0D6FF0028F4D04FF0E02304
:1030C0004FF08052C3F8042DBFF34F8FBFF36F8FC3
:1030D000E9E701F059FE0020E8E702A801F008F84E
:1030E000012619E0002384F8443021E0002384F80D
:1030F000453023E02046FFF78FFE00F02BFE01F065
:1031000021FEA26BE36B9A42BBD3022DB9D0019B87
:10311000002BDED0002EE0D001F036FE00F080FD66
:1031200001F010FE94F8442052B2B2F1FF3FD9D022
:1031300094F8452052B2B2F1FF3FD7D001F024FEFF
:1031400001A902A800F0E0FFD8B92046FFF7FBFD77
:103150000028CFD0019904F1100000F04FFF204665
:10316000FFF75AFE00F0F6FD0028C8D14FF0E0232B
:103170004FF08052C3F8042DBFF34F8FBFF36F8F12
:10318000BDE72046FFF748FE00F0E4FD00208DE794
:103190002DE9F84390B10F4616461C460546B1B1DD
:1031A000022C20D1EB6B012B1DD04FF0500383F389
:1031B0001188BFF36F8FBFF34F8FFEE74FF05003BF
:1031C00083F31188BFF36F8FBFF34F8FFEE7036C5C
:1031D000002BE5D04FF0500383F31188BFF36F8FBE
:1031E000BFF34F8FFEE701F0D3FEEFF311894FF0ED
:1031F000500383F31188BFF36F8FBFF34F8FAA6B18
:10320000EB6B9A4206D3022C04D0002089F311887C
:10321000BDE8F88395F845804FFA88F8AB6B2246F5
:1032200039462846FFF7ABFDB8F1FF3F06D008F15D
:1032300001035BB285F845300120E7E76B6A0BB903
:103240000120E3E705F1240000F00CFF18B126B1DE
:1032500001203060DAE70120D8E70120D6E768B125
:1032600070B50C460546036C8BB14FF0500383F3E9
:103270001188BFF36F8FBFF34F8FFEE74FF05003FE
:1032800083F31188BFF36F8FBFF34F8FFEE703689F
:10329000EBB101F07DFEEFF311864FF0500383F3A5
:1032A0001188BFF36F8FBFF34F8FAA6BEB6B934205
:1032B00026D995F845305BB20132AA63B3F1FF3FDE
:1032C00011D001335BB285F84530012019E08368E5
:1032D000002BDED04FF0500383F31188BFF36F8FC4
:1032E000BFF34F8FFEE76B6A0BB9012009E005F1D0
:1032F000240000F0B7FE38B144B10120206000E0A6
:10330000002086F3118870BD0120FAE70120F8E75C
:10331000F0B585B0019290B10F460446C1B100F0FE
:103320003BFF064600BB019B002B5ED04FF05003D5
:1033300083F31188BFF36F8FBFF34F8FFEE74FF01A
:10334000500383F31188BFF36F8FBFF34F8FFEE7F6
:10335000036C002BE3D04FF0500383F31188BFF3CD
:103360006F8FBFF34F8FFEE700263EE039462046C1
:10337000FFF740FD013DA563236923B901F004FD7A
:10338000012005B0F0BD04F1100000F06BFE002834
:10339000F4D04FF0E0234FF08052C3F8042DBFF378
:1033A0004F8FBFF36F8FE9E701F0EEFC0020E8E7F5
:1033B00002A800F09DFE012621E0002384F844309D
:1033C00029E0002384F845302BE02046FFF724FD58
:1033D00000F0C0FC09E02046FFF71EFD00F0BAFC3B
:1033E0002046FFF7BFFC00283FD101F0ABFCA56BE6
:1033F000002DBBD1019B002BD6D0002ED8D001F0E0
:10340000C3FC00F00DFC01F09DFC94F844305BB26D
:10341000B3F1FF3FD1D094F845305BB2B3F1FF3F39
:10342000CFD001F0B1FC01A902A800F06DFE002888
:10343000D1D12046FFF796FC0028C6D0019904F1AF
:10344000240000F0DBFD2046FFF7E6FC00F082FCE4
:103450000028CAD14FF0E0234FF08052C3F8042D6A
:10346000BFF34F8FBFF36F8FBFE7002089E770B5C1
:1034700084B0019158B10446036C8BB14FF05003F6
:1034800083F31188BFF36F8FBFF34F8FFEE74FF0C9
:10349000500383F31188BFF36F8FBFF34F8FFEE7A5
:1034A00000F07AFE054650B9019B5BB14FF0500326
:1034B00083F31188BFF36F8FBFF34F8FFEE70026B2
:1034C000354655E0064653E0013BA36323683BB114
:1034D00023694BB901F058FC0126304604B070BD99
:1034E00000F074FFA060F3E704F1100000F0BAFDF3
:1034F0000028EFD04FF0E0234FF08052C3F8042DA6
:10350000BFF34F8FBFF36F8FE4E746B14FF0500327
:1035100083F31188BFF36F8FBFF34F8FFEE701F086
:1035200033FCDAE702A800F0E3FD01252AE00023DE
:1035300084F8443032E0002384F8453034E001F070
:1035400001FCA06800F038FE064601F01DFC3BE0DF
:103550002046FFF761FC00F0FDFB09E02046FFF785
:103560005BFC00F0F7FB2046FFF7FCFB002842D194
:1035700001F0E8FBA36B002BA6D1019B002BC4D06C
:10358000002DCFD001F000FC00F04AFB01F0DAFB87
:1035900094F844305BB2B3F1FF3FC8D094F84530A3
:1035A0005BB2B3F1FF3FC6D001F0EEFB01A902A868
:1035B00000F0AAFD0028D1D12046FFF7D3FB002858
:1035C000C6D02368002BBAD0019904F1240000F082
:1035D00015FD2046FFF720FC00F0BCFB0028C7D1FA
:1035E0004FF0E0234FF08052C3F8042DBFF34F8F0C
:1035F000BFF36F8FBCE70EB900266EE701F0A2FBA8
:103600002046FFF798FB0146A06800F085FE01F018
:10361000BBFBF1E70023072B0CD8074A52F83320F5
:103620000AB10133F7E7044A42F8331002EBC3034F
:1036300058607047704700BF3009002070B50446DD
:103640000D46164601F07EFB94F844305BB2B3F1B0
:10365000FF3F0DD094F845305BB2B3F1FF3F0BD084
:1036600001F092FBA36B5BB12046FFF7D5FB70BD69
:10367000002384F84430EDE7002384F84530EFE779
:103680003246294604F1240000F0D0FCECE70000AB
:10369000084B1B681B6823B9074B4FF0FF321A60B9
:1036A0007047044B1B68DB68DB685A68024B1A6082
:1036B000704700BF74090020500A00202DE9F04730
:1036C00080460D4617469946089EDDF824A00A9CC0
:1036D0009200A521206B03F0F7F9236B07F18042DC
:1036E000013A03EB820727F00707002D37D04FF090
:1036F000000CBCF10F0F0BD815F80C2004EB0C03D9
:1037000083F8342015F80C3013B10CF1010CF0E7FC
:10371000002384F84330062E00D90626E662E664CC
:1037200000252565201DFFF7CCFA04F11800FFF7EE
:10373000C8FA2461C6F10706A66164626565A565DD
:1037400084F85C504A464146384601F0CFFA206082
:10375000BAF1000F01D0CAF80040BDE8F08700239D
:1037600084F83430D7E7000038B5002407E004EBD4
:10377000840293000E481844FFF798FA0134062C8F
:10378000F5D90C4D2846FFF791FA0B4C2046FFF770
:103790008DFA0A48FFF78AFA0948FFF787FA0948BD
:1037A000FFF784FA084B1D60084B1C6038BD00BF52
:1037B0007C090020240A0020380A00205C0A00202E
:1037C000880A0020740A002074090020780900206B
:1037D00010B5044601F0B6FA224A136801331360AB
:1037E000214B1B685BB1214B1B686BB91E4B1B68DF
:1037F000DA6AE36A9A4207D81B4B1C6004E01A4B52
:103800001C601368012B29D0194A13680133136017
:103810006364E06A01238340164A11680B43136016
:1038200000EB8000211D144B03EB8000FFF74CFAE6
:1038300001F0AAFA0D4B1B687BB10B4B1B68DA6ACF
:10384000E36A9A4209D24FF0E0234FF08052C3F866
:10385000042DBFF34F8FBFF36F8F10BDFFF784FFB1
:10386000D2E700BF100A002070090020700A002073
:103870001C0A0020200A00207C09002010B5044604
:1038800090F85D3063B1012B11D0022B0ED04FF0B8
:10389000500383F31188BFF36F8FBFF34F8FFEE7A1
:1038A000006B01F0A7F9204601F0A4F910BD01F06A
:1038B000A1F9FBE70F4B1B68D3B110B501F042FA39
:1038C0000D4BDB68DC68201DFFF722FA0B4A1368FA
:1038D000013B1360074A1368013B136001F054FA7F
:1038E0002046FFF7CBFF034B1B68002BE6D110BD32
:1038F000704700BF140A0020880A0020100A002028
:1039000008B5FFF7D7FF074B1B68012BF9D94FF01C
:10391000E0234FF08052C3F8042DBFF34F8FBFF365
:103920006F8FEEE77C09002070B504460D461D4BF5
:103930001E681D4B18680430FFF7EAF950B91A4B9E
:103940001B68DA6A012303FA02F218490B6823EABA
:1039500002030B60B4F1FF3F0DD03444124B1B68DF
:103960005C60A64210D9124B18680F4B19680431DD
:10397000FFF7B5F970BD002DEFD00B4B196804317E
:103980000C48FFF7A1F9F5E70B4B1868064B1968CF
:103990000431FFF7A4F9094B1B68A342EAD9074B8E
:1039A0001C60E7E79C0A002070090020200A002024
:1039B00078090020740A002074090020500A0020B1
:1039C00030B587B00B9C7CB10C9DB5B160250495DA
:1039D000049D602D1AD04FF0500383F31188BFF37C
:1039E0006F8FBFF34F8FFEE74FF0500383F31188C3
:1039F000BFF36F8FBFF34F8FFEE74FF0500383F39A
:103A00001188BFF36F8FBFF34F8FFEE7049D0C9DAE
:103A10002C63022485F85D4000240394029505ACD4
:103A200001940A9C0094FFF749FE0C98FFF7D0FE22
:103A3000059807B030BD2DE9F04385B007468846AC
:103A400014461E46900001F057F800B381466020EE
:103A500001F052F80546B0B1C0F83090E5B100234E
:103A600085F85D30039302950D9B01930C9B0093A9
:103A70003346224641463846FFF720FE2846FFF7E8
:103A8000A7FE012005E0484601F0B4F8E6E74FF054
:103A9000FF3005B0BDE8F0834FF0FF30F9E70000DC
:103AA00038B5044601F04EF9002C33D0251D2846C8
:103AB000FFF72EF968B9E26A02EB82039B002749FF
:103AC000CB5833B90123934025490A6822EA0302FF
:103AD0000A60A36A1BB104F11800FFF719F9214A23
:103AE000136801331360204B1B68A34215D01F4A93
:103AF0001368013B13602046FFF7C0FEFFF7C8FDC7
:103B000001F042F91A4B1B681BB1174B1B68A3420B
:103B10000CD038BD144B1C68C8E729461548FFF780
:103B2000D3F8154A136801331360E9E7134B1B6898
:103B300043B14FF0500383F31188BFF36F8FBFF38E
:103B40004F8FFEE74FF0E0234FF08052C3F8042D73
:103B5000BFF34F8FBFF36F8FDBE700BF7C090020FF
:103B6000200A00201C0A002070090020100A0020F2
:103B7000700A0020880A0020140A0020180A002079
:103B800010B588B000240594069407AA06A905A8D4
:103B9000FDF7C6FB059B0293069B01930094234609
:103BA000079A19491948FFF70BFF194B186040B1E4
:103BB00000F042FD012806D0B0F1FF3F1AD008B056
:103BC00010BD0020F6E74FF0500383F31188BFF3D8
:103BD0006F8FBFF34F8F0F4B4FF0FF321A600E4BBA
:103BE00001221A600D4B00221A60FDF78BFB01F0D9
:103BF00043F9E4E74FF0500383F31188BFF36F8F6D
:103C0000BFF34F8FFEE700BFBC95000801390008E5
:103C10004C0A0020500A0020700A00209C0A002054
:103C2000024A136801331360704700BF180A00206E
:103C3000014B1868704700BF9C0A0020F8B53A4B4A
:103C40001B68002B69D1394B1D6801351D60C5B952
:103C5000374B1B681B6843B14FF0500383F3118847
:103C6000BFF36F8FBFF34F8FFEE7314A1168314BBF
:103C7000186810601960304A136801331360FFF749
:103C800007FD2E4B1B68AB423DD900272C4B1B6810
:103C9000DB6A03EB83039A002A4B9B58012B00D964
:103CA0000127294B1B68002B3CD001273AE0012754
:103CB0001F4B1B681B6843B31D4B1B68DB68DC682C
:103CC00063689D4226D3261D3046FFF721F8A36A7C
:103CD0001BB104F11800FFF71BF8E36A01229A40B8
:103CE0001A49086802430A6003EB83039A003146CD
:103CF00014481044FEF7E8FFE26A114B1B68DB6AC8
:103D00009A42D4D2D4E70027D2E70C4B4FF0FF32CF
:103D10001A60BBE7094A1360B8E70D4A136801331C
:103D2000136000273846F8BD180A00209C0A0020BE
:103D30007409002078090020540A0020500A00204D
:103D4000700900207C090020A00A0020200A002021
:103D5000580A002038B5354B1B6843B94FF0500363
:103D600083F31188BFF36F8FBFF34F8FFEE700F02F
:103D7000E9FF2E4B1A68013A1A601B68002B4FD1DD
:103D80002B4B1B680BB900244BE00024294B1B680C
:103D90001BB3284BDB68DC6804F11800FEF7B8FFA2
:103DA000251D2846FEF7B4FFE06A01238340224A1E
:103DB00011680B43136000EB800029461F4B03EB97
:103DC0008000FEF781FFE26A1D4B1B68DB6A9A42A6
:103DD000DCD31C4B01221A60D8E70CB1FFF758FC6A
:103DE000194B1C6884B9174B1C68D4B14FF0E02301
:103DF0004FF08052C3F8042DBFF34F8FBFF36F8F86
:103E000001240EE0013C07D0FFF718FF0028F9D08D
:103E10000C4B01221A60F5E70B4B00221A60E2E717
:103E2000002400F0B1FF204638BD00BF180A002072
:103E3000100A00205C0A0020200A00207C090020D3
:103E400070090020A00A0020580A002038B558B197
:103E50000C46054689B94FF0500383F31188BFF330
:103E60006F8FBFF34F8FFEE74FF0500383F311883E
:103E7000BFF36F8FBFF34F8FFEE71B4B1B6843B140
:103E80004FF0500383F31188BFF36F8FBFF34F8F51
:103E9000FEE7FFF7C5FE154B18682B681C448342EC
:103EA00009D9A34201D82C600EE0A04201D32C60B6
:103EB0000AE02C6004E0A34201D8A04212D22C6098
:103EC0000021201AFFF730FDFFF744FF48B94FF0FB
:103ED000E0234FF08052C3F8042DBFF34F8FBFF3A0
:103EE0006F8F38BD2C60EFE7180A00209C0A002075
:103EF00010B5A8B10446104B1B6843B14FF05003F6
:103F000083F31188BFF36F8FBFF34F8FFEE7FFF787
:103F100087FE00212046FFF707FDFFF71BFF48B98A
:103F20004FF0E0234FF08052C3F8042DBFF34F8FC2
:103F3000BFF36F8F10BD00BF180A002008B5284BD3
:103F40001B681BB1274B01221A6008BD254B0022BC
:103F50001A60FDF7DFF9244B1860244B1B68984268
:103F600005D9234A1168C31A4A6D13444B651F4B88
:103F70001860204B1B68B3FA83F3DBB2C3F11F0355
:103F800003EB830292001C498A5842B94FF0500358
:103F900083F31188BFF36F8FBFF34F8FFEE716498E
:103FA00003EB830201EB820250684068506003EB30
:103FB0008302920008320A44904209D003EB830343
:103FC0000D4A02EB83035B68DA68094B1A60BCE7B1
:103FD000406803EB8301084A02EB81025060EDE781
:103FE000180A0020A00A00200C0A0020080A00205D
:103FF00070090020200A00207C09002058B110B56B
:104000000C46094A11681831FEF769FE0121204665
:10401000FFF78AFC10BD4FF0500383F31188BFF304
:104020006F8FBFF34F8FFEE77009002038B570B176
:104030000D4614460A4A11681831FEF745FE0CB1C8
:104040004FF0FF3521462846FFF76EFC38BD4FF094
:10405000500383F31188BFF36F8FBFF34F8FFEE7D9
:104060007009002038B5C368DC6824B304F1180572
:104070002846FEF74DFE184B1B682BBB251D284616
:10408000FEF746FEE06A01238340144A11680B43A1
:10409000136000EB80002946114B03EB8000FEF714
:1040A00013FEE26A0F4B1B68DB6A9A4211D90120AA
:1040B0000D4B186038BD4FF0500383F31188BFF3E8
:1040C0006F8FBFF34F8FFEE729460848FEF7FCFDD0
:1040D000E7E70020EEE700BF180A0020200A0020D2
:1040E0007C09002070090020A00A00205C0A002042
:1040F000034B1B680360034B1B684360704700BFA2
:10410000540A00209C0A0020F8B5C8B10C460546A8
:10411000F9B100F017FE1B4B19686B68C81A2268CA
:10412000B2F1FF3F26D0184E36682F68B74201D053
:104130008B4224D9824215D80023236001241AE03F
:104140004FF0500383F31188BFF36F8FBFF34F8F8E
:10415000FEE74FF0500383F31188BFF36F8FBFF377
:104160004F8FFEE75B1A134423602846FFF7C0FF1A
:10417000002400E0002400F007FE2046F8BD0124E2
:10418000F9E700BF9C0A0020540A0020014B0122DD
:104190001A607047A00A0020054B1B6833B1054B1D
:1041A0001B680BB100207047022070470120704748
:1041B000700A0020180A0020002849D038B50446AB
:1041C000C36A254A1268D26A934239D28269002AA8
:1041D00005DB214A1268D26AC2F107028261616975
:1041E00003EB83031D4A02EB8303994205D01A4B6C
:1041F0001B68DB6AE362012038BD251D2846FEF7F7
:1042000087FD40B9E26A012303FA02F214490B6800
:1042100023EA02030B60104B1B68D86AE06201249A
:1042200004FA00F30E4A11680B43136000EB8000A0
:1042300029460A4B03EB8000FEF746FD2046DBE7EC
:10424000C26C054B1B68DB6A9A4203D30020D3E79C
:10425000002070470120CFE7700900207C09002072
:10426000200A002000284CD038B50446274B1B6894
:10427000834208D04FF0500383F31188BFF36F8F50
:10428000BFF34F8FFEE7036D43B94FF0500383F345
:104290001188BFF36F8FBFF34F8FFEE7013B0365BC
:1042A000C16AC26C91422ED00BB1002038BD051DF1
:1042B0002846FEF72DFD70B9E26A02EB82039B00EF
:1042C0001349CB583BB9012303FA02F211490B6899
:1042D00023EA02030B60E06CE062C0F10703A36114
:1042E000012404FA00F30B4A11680B43136000EB3E
:1042F00080002946064B03EB8000FEF7E5FC2046D4
:10430000D4E7002070470020D0E700BF70090020EC
:104310007C090020200A0020002850D038B504462F
:10432000036D43B94FF0500383F31188BFF36F8FD0
:10433000BFF34F8FFEE7C26C8A4200D20A46E16AA1
:10434000914201D0012B00D038BD1D4B1B68A34208
:104350002CD0E262A369002B02DBC2F10702A2614A
:10436000626901EB8101174B03EB81018A42EBD1BA
:10437000251D2846FEF7CCFC40B9E26A012303FA6A
:1043800002F211490B6823EA02030B60E06A012381
:1043900083400D4A11680B43136000EB80002946EF
:1043A000084B03EB8000FEF78FFCCDE74FF0500386
:1043B00083F31188BFF36F8FBFF34F8FFEE7704712
:1043C000700900207C090020200A0020054B1B6892
:1043D00023B1044B1A68136D01331365014B186840
:1043E000704700BF7009002038B505460C4600F044
:1043F000A9FC1A4B1B689B6D2BB9184B1B6801223B
:1044000083F85C20ACB900F0BFFC00F09BFC134BC0
:104410001B689C6D24B1DDB1104B1B6800229A65AE
:104420000E4B1B68002283F85C2000F0ADFC204698
:1044300038BD11462046FFF777FA4FF0E0234FF0E2
:104440008052C3F8042DBFF34F8FBFF36F8FDAE7AD
:10445000024B1B68621E9A65E2E700BF70090020EC
:10446000F8B5A8B10F4614461D46064600F06AFC92
:104470000DB1B36D2B6096F85C30DBB2022286F88A
:104480005C20042C1FD8DFE804F02B0C1116190057
:104490004FF0500383F31188BFF36F8FBFF34F8F3B
:1044A000FEE7B26D1743B76501241AE0B26D013221
:1044B000B265012415E0B765012412E0022B16D085
:1044C000B76501240DE0B26DB2F1FF3F11D04FF09E
:1044D000500383F31188BFF36F8FBFF34F8FFEE755
:1044E0000124012B07D000F04FFC2046F8BD00242A
:1044F000F7E70124F5E7351D2846FEF709FCF06AC9
:1045000001238340134A11680B43136000EB8000C2
:104510002946114B03EB8000FEF7D6FBB36A43B18B
:104520004FF0500383F31188BFF36F8FBFF34F8FAA
:10453000FEE7F26A094B1B68DB6A9A42D3D94FF057
:10454000E0234FF08052C3F8042DBFF34F8FBFF329
:104550006F8FC8E7200A00207C0900207009002026
:10456000064B1A6813682BB90123036023B9D3687B
:10457000186870470023F8E700207047A40A00205D
:1045800008B54160006191420CD8D21A83699A4201
:1045900001D3012008BD011D094B1868FEF79FFBE0
:1045A0000020F7E79A4201D2994206D2011D054B3D
:1045B0001868FEF794FB0020ECE70120EAE700BF53
:1045C000A80A0020A40A002030B583B000F0BAFB8E
:1045D000114B1B681BB100F0D7FB03B030BD0F4D72
:1045E0002846FEF763FB0E4C2046FEF75FFB0D4BA3
:1045F0001D600D4B1C60002300930C4B0C4A0C21DA
:104600000A20FEF793FC044B18600028E3D0094908
:10461000FFF700F8DFE700BFA00B0020240B00200D
:10462000380B0020A40A0020A80A0020500B00200C
:10463000AC0A0020C495000810B588B0FFF7C4FF8D
:10464000124B1B68CBB100240594069407AA06A957
:1046500005A8FCF771FE059B0293069B01930223BC
:1046600000932346079A0A490A48FFF7A9F90A4B1B
:10467000186010B1012008B010BD4FF0500383F353
:104680001188BFF36F8FBFF34F8FFEE7A00B0020A1
:10469000CC9500088D490008A40B0020B8B19C46B9
:1046A00003461848006858B300B585B001910292DE
:1046B000039305291CDCFFF76FFD022810D00023AF
:1046C0001A4601A90F480068FEF79EFC15E04FF05E
:1046D000500383F31188BFF36F8FBFF34F8FFEE753
:1046E0000023069A01A907480068FEF78DFC04E044
:1046F0000023624601A9FEF74BFD05B05DF804FBFF
:1047000000207047A00B002070B582B01B4B1B68C7
:104710001A6862B3DB681E68DC68251D2846FEF750
:10472000F7FA236A2046984794F8283013F0040FCC
:10473000ECD0A36933449E4207D2636024612946CA
:104740000E4B1868FEF7CBFAE0E7002100910B460C
:1047500032462046FFF7A2FF0028D7D14FF0500382
:1047600083F31188BFF36F8FBFF34F8FFEE7044AC7
:10477000106802490860136002B070BDA40A0020EE
:10478000A80A002038B50546FFF752FA0446074B41
:104790001B68834205D800232B60044B1C60204615
:1047A00038BDFFF7B1FF01232B60F6E74C0B00206B
:1047B00070B582B006460D4617490968C968CC68CD
:1047C000201DFEF7A5FA94F828C01CF0040F08D1AC
:1047D0002CF0010C84F828C0236A2046984702B0C8
:1047E00070BDA16933462A4631442046FFF7C8FE12
:1047F0000028F1D0002100910B4632462046FFF7F9
:104800004DFF0028E8D14FF0500383F31188BFF328
:104810006F8FBFF34F8FFEE7A40A002070B582B000
:1048200006460C46FFF7FCF901A8FFF7ABFF019B1A
:1048300033BB05460CB9B04219D224B1124A1268F2
:104840001268DAB901242246711B104B1868FEF772
:10485000F5FEFFF77FFAA8B94FF0E0234FF0805242
:10486000C3F8042DBFF34F8FBFF36F8F0AE0FFF73C
:1048700071FA29463046FFF79BFF03E01C46E2E74A
:10488000FFF768FA02B070BDA80A0020A00B002054
:1048900010B586B0002203A93B4B1868FEF738FD1F
:1048A00000286ED0039B002BF4DB059C636913B1D9
:1048B000201DFEF72DFA02A8FFF764FF039B092BCA
:1048C000E8D8DFE803F00505053037500505303737
:1048D00094F8283043F0010384F82830049BA16940
:1048E000024619442046FFF74BFE0028D2D0236A27
:1048F0002046984794F8283013F0040FCAD0A269D4
:10490000002100910B46049802442046FFF7C6FEA2
:104910000028BFD14FF0500383F31188BFF36F8F8E
:10492000BFF34F8FFEE794F8283023F0010384F89B
:104930002830AFE794F8283043F0010384F828309A
:104940000499A16131B10346024601442046FFF7B4
:1049500017FE9FE74FF0500383F31188BFF36F8F6B
:10496000BFF34F8FFEE794F8283013F0020F04D006
:1049700023F0010384F828308CE7204600F03AF950
:1049800088E706B010BD00BFA00B002000B583B0C3
:1049900001A8FFF7E5FD0199FFF740FFFFF778FF5A
:1049A000F6E7842801D0033070470020704708B52F
:1049B000FFF7E6F8002008BD2DE9F04387B0044674
:1049C0000F464569BDB18669AEB1D0F80480D0F814
:1049D0000090B0F90800FFF7E4FF029601950090FF
:1049E0003B46226949464046FEF7EAFF0590059896
:1049F00007B0BDE8F08365682668D4F81080B4F984
:104A00000800FFF7CEFF05AB019300903B461FFA6D
:104A100088F231462846FFF70EF80128E7D000203B
:104A2000E6E708B500B90120FFF762FA002008BDEB
:104A3000124A12F0070F1ED0D11D21F00701C1F557
:104A4000705313440A460E4802600021416013442B
:104A5000083B23F007030B48036059601960991A5B
:104A600051601360084B1960084B1960084B4FF0F8
:104A700000421A6070474FF47053E4E7AC0B00201B
:104A8000C0470020A80B0020B4470020B0470020FA
:104A9000AC470020164B1A461B688342FBD3516873
:104AA00002EB010C844509D0416800EB010C634521
:104AB00009D00360904219D01060704740680144EB
:104AC00051601046F0E710B40A4C2468A3420BD0A2
:104AD0005B681944416013681B680360904200D012
:104AE00010605DF8044B70470460F7E7704700BF43
:104AF000C0470020A80B002070B50546FFF790F8CE
:104B0000364B1B68A3B1364B1B681D424ED135B1E5
:104B1000083515F0070F02D025F007050835002DE0
:104B200046D0304B1B68AB4251D32F4A146804E087
:104B3000FFF77EFFE7E722461C466368AB4202D2DE
:104B40002368002BF7D1254B1B68A34241D0166880
:104B500008362368136063685B1B102B10D960193B
:104B600010F0070F08D04FF0500383F31188BFF304
:104B70006F8FBFF34F8FFEE743606560FFF78AFFDB
:104B8000626818490B689B1A0B60184909688B42C8
:104B900001D216490B60124B1B681343636000235C
:104BA0002360134A13680133136002E0002600E01B
:104BB0000026FFF7CFF816F0070F0CD04FF0500388
:104BC00083F31188BFF36F8FBFF34F8FFEE700268B
:104BD000EFE70026EDE7304670BD00BFA80B0020D0
:104BE000AC470020B0470020C0470020B447002059
:104BF000B8470020002834D038B50446A0F1080595
:104C000050F8043C174A1268134208D14FF0500381
:104C100083F31188BFF36F8FBFF34F8FFEE750F818
:104C2000081C41B14FF0500383F31188BFF36F8F1D
:104C3000BFF34F8FFEE723EA020340F8043CFEF780
:104C4000EFFF54F8041C084A13680B44136028460D
:104C5000FFF720FF054A136801331360FFF77AF866
:104C600038BD7047AC470020B0470020BC4700204B
:104C700082B0002301930D4B1B68B3F1FF3F08D0B6
:104C80004FF0500383F31188BFF36F8FBFF34F8F43
:104C9000FEE74FF0500383F31188BFF36F8FBFF32C
:104CA0004F8F019B002BFCD002B070470C000020FE
:104CB00008480068006880F308884FF0000080F31F
:104CC000148862B661B6BFF34F8FBFF36F8F00DFFA
:104CD00000BF000008ED00E0DFF80C00016841F4BF
:104CE000700101607047000088ED00E04FF08073B4
:104CF00040F8043C21F0010140F8081C054B40F845
:104D00000C3C40F8202C6FF0020340F8243C44385F
:104D1000704700BF714C0008000000000000000058
:104D2000074B19680868B0E8F04F80F30988BFF3B3
:104D30006F8F4FF0000080F311887047AFF3008051
:104D4000700900204FF0500383F31188BFF36F8F79
:104D5000BFF34F8F0B4A136801331360012B00D050
:104D600070474FF0E023D3F8043D13F0FF0FF7D066
:104D70004FF0500383F31188BFF36F8FBFF34F8F52
:104D8000FEE700BF0C000020094B1B6843B94FF041
:104D9000500383F31188BFF36F8FBFF34F8FFEE78C
:104DA000013B034A13600BB983F31188704700BFBE
:104DB0000C000020000000000000000000000000C7
:104DC000EFF30980BFF36F8F154B1A681EF0100FB9
:104DD00008BF20ED108A20E9F04F10602DE909008E
:104DE0004FF0500080F31188BFF34F8FBFF36F8FE8
:104DF000FFF7A4F84FF0000080F3118809BC196890
:104E00000868B0E8F04F1EF0100F08BFB0EC108A31
:104E100080F30988BFF36F8F704700BFAFF3008046
:104E20007009002008B54FF0500383F31188BFF3D9
:104E30006F8FBFF34F8FFEF701FF28B14FF0E023D4
:104E40004FF08052C3F8042D002383F3118808BD6E
:104E50004FF0E022002313619361054B1B68054965
:104E6000A1FB03139B09013B5361072313617047A7
:104E700008000020D34D62104FF0E023D3F8002D3E
:104E80003D4B9A421CD04FF0E023D3F8002D3B4B12
:104E90009A421ED030B583B0394B1A78D2B2019203
:104EA000FF221A701B78DBB28DF803309DF80330B7
:104EB00003F05003334A1370334B07221A601BE090
:104EC0004FF0500383F31188BFF36F8FBFF34F8F01
:104ED000FEE74FF0500383F31188BFF36F8FBFF3EA
:104EE0004F8FFEE7284A1368013B13609DF803309B
:104EF0005B00DBB28DF803309DF8033013F0800FB8
:104F0000F0D1214B1B68032B08D04FF0500383F3E3
:104F10001188BFF36F8FBFF34F8FFEE71B021A4A52
:104F2000136003F4E0631360019BDBB2144A137057
:104F30004FF0E024D4F8203D43F47003C4F8203D42
:104F4000D4F8203D43F07043C4F8203DFFF780FFC4
:104F500000250E4B1D60FFF7BFFED4F8343F43F031
:104F60004043C4F8343FFFF7A3FEFEF7E7FFFFF727
:104F70007FFE284603B030BD71C20F4170C20F41A1
:104F800000E400E0C8470020CC4700200C000020CF
:104F9000EFF305830F2B0FD9114A9B5CDBB2114A4B
:104FA00012789A4208D94FF0500383F31188BFF367
:104FB0006F8FBFF34F8FFEE74FF0E023D3F80C3D28
:104FC00003F4E063084A1268934208D94FF0500393
:104FD00083F31188BFF36F8FBFF34F8FFEE77047E6
:104FE000F0E300E0C8470020CC47002010B582B0B5
:104FF00004468DF804004FF6FF73012201A903480F
:1050000000F0B5FC204602B010BD00BFF048002003
:1050100070B50C461646002504E014F8010BFFF7A6
:10502000E5FF0135B542F8DB304670BD08B50A48EA
:105030000A4B03604FF4E133436000238360C36095
:105040000361042242618361C36100F061FC00B925
:1050500008BDFBF7D9FFFBE7BC490020004C00402E
:1050600008B50A480A4B03604FF4E133436000235C
:105070008360C36003610C2242618361C36100F0FD
:1050800047FC00B908BDFBF7BFFFFBE7F048002075
:105090000010014008B50A480A4B03604FF4E133A1
:1050A000436000238360C36003610C22426183611B
:1050B000C36100F02DFC00B908BDFBF7A5FFFBE7BD
:1050C000344900200044004008B50A480A4B0360F8
:1050D0004FF4E133436000238360C36003610C221B
:1050E00042618361C36100F013FC00B908BDFBF7A6
:1050F0008BFFFBE7784900200048004030B58FB0B7
:105100000446002309930A930B930C930D930368B1
:105110007D4A93420BD07D4A934247D07C4A9342CA
:1051200068D07C4A934200F0A9800FB030BD0025C2
:105130000195794B1A6C42F400221A641A6C02F43D
:1051400000220192019A02951A6B42F004021A633E
:105150001B6B03F004030293029B4FF4406309931B
:1051600002230A9301230B9303230C9308230D932B
:1051700009A96A48FCF7BCFD69486A4B03604FF017
:10518000006343608560C5604FF4806303614561DF
:105190008561C56105624562FCF72CFF18B9604B5B
:1051A000A3639C63C1E7FBF72FFFF8E7002103919E
:1051B000594B5A6C42F010025A645A6C02F01002B9
:1051C0000392039A04911A6B42F001021A631B6B5B
:1051D00003F001030493049B4FF4C063099302237B
:1051E0000A9303230C9307230D9309A94E48FCF758
:1051F0007FFD9AE700250595474B1A6C42F4003273
:105200001A641A6C02F400320592059A06951A6B1C
:1052100042F001021A631B6B03F001030693069B25
:105220000C23099302230A9303230C9307230D9362
:1052300009A93D48FCF75CFD3C483D4B03604FF03D
:10524000006343608560C5604FF48063036145611E
:105250008561C56105624562FCF7CCFE58B9334BE8
:10526000A3639C63002205212620FDF7BBF82620BE
:10527000FDF7F0F859E7FBF7C7FEF0E700250795C3
:10528000254B1A6C42F480221A641A6C02F48022B4
:105290000792079A08951A6B42F008021A631B6B73
:1052A00003F008030893089B4FF44073099302230B
:1052B0000A9303230C9307230D9309A91D48FCF7B8
:1052C00017FD1D481D4B03604FF000634360856070
:1052D000C5604FF48063036145618561C561056206
:1052E0004562FCF787FE58B9134BA3639C63002209
:1052F00005212720FDF776F82720FDF7ABF814E706
:10530000FBF782FEF0E700BF004C004000100140B8
:1053100000440040004800400038024000080240BD
:10532000D04700204060024000000240304800208A
:1053300088600240000C0240904800202860024033
:1053400008B52DE01B4C04212046FCF7C9FD0122C5
:1053500011462046FCF7BEFD012202212046FCF743
:10536000B9FD012208212046FCF7B4FD1CE0114CD8
:10537000002201212046FCF7ADFD0122022120463A
:10538000FCF7A8FD012204212046FCF7A3FD012221
:1053900008212046FCF79EFD4FF4FA70FEF7A8FDA9
:1053A000054B1B78002BCDD0034B1B78012BDED097
:1053B000F2E700BF000802402C4A0020094B0022FF
:1053C0001A74DA745A74DA739A7300211962596282
:1053D0009961D961DA629A625A639A741A755A7538
:1053E000704700BF304A0020A0F53B53213B9BB2E1
:1053F00040F2CE72934221D942F6E06398420CDC2F
:1054000007EE900AF8EEE77A9FED197A77EEC77A01
:105410009FED187A87EE870A12E043F2B063984254
:105420001FDD07EE900AF8EEE77A9FED137A77EE2C
:10543000C77A9FED107A87EE870A01E09FED0F0A89
:10544000FFEE007AB4EEE70AF1EE10FA0CD9F7EEAF
:10545000007AB4EEE70AF1EE10FA07DBB0EE670A65
:1054600070479FED060AEBE7BFEE000A704700BFEA
:1054700000803B4600E02B4600C05A46000000007A
:10548000B0F57A7F0ADB46F2A713984208DCB0F544
:105490007A7001D4401170471F30FBE7002070473D
:1054A00040F2EE20704700002DE9F04F83B0054632
:1054B00000245AE032B913F0400F03D16C4B0122A3
:1054C0005A7502E06A4B02225A75AB7CC3F3401254
:1054D00013F0200F40F0A28013F0100F40F09E80D8
:1054E000634B00221A75AB7CC3F3C00213F0080FA4
:1054F00000F0A78013F0040F40F0A3805C4B002263
:105500009A74EB7CC3F38012594E3274C3F3401388
:10551000F374EB7CC3F300127274C3F3C002F27332
:10552000C3F38003B373FFF75FFF86ED080A5846A5
:10553000FFF75AFF86ED090A5046FFF755FF86ED43
:10554000060A4846FFF750FF86ED070A4046FFF778
:1055500097FFF06230633846FFF792FFB062019820
:10556000FFF78EFF70630134E4B2152C7CD822461D
:105570002B5D0A2BF7D1631CEB5C0D2BF3D104F1EF
:105580001403EB5C0D2BEED104F11503EB5C0A2B3D
:10559000E9D12A44937892F803A00AEB032A0FFA80
:1055A0008AFA334BA3F804A0117992F8059009EB1D
:1055B00001290FFA89F9A3F80690917992F807B0BA
:1055C0000BEB012B0FFA8BFBA3F802B0117A507A88
:1055D00000EB012000B21880917AD77A07EB0127FF
:1055E0003FB25F81167B517B01EB062109B201912D
:1055F0001981117C92F8118008EB01280FFA88F8C4
:10560000A3F80C80AB7CDA093FF454AF13F0400FE1
:105610007FF450AF164B00225A7556E732B113F0A3
:10562000100F03D1124B01221A755CE7002A7FF498
:105630005AAF13F0100F3FF456AF0D4B02221A75FC
:1056400051E732B913F0040F03D1094B01229A74C8
:1056500057E7002A7FF455AF13F0040F3FF451AF22
:10566000034B02229A744CE703B0BDE8F08F00BFF1
:10567000304A002000B583B0FEF7DAFA0190174BEC
:105680001A68D36843F01003D3600BE00023144A78
:105690001370144A13701448FFF706FF192101A86C
:1056A000FEF7D4FB2C2210490C4800F01DFC0D4BDA
:1056B00001221A7040F2DC510C4B1868FDF7D7FE3E
:1056C0000128E3D00028E9D1FFF778FE044B01223E
:1056D0001A70044B00221A70E0E700BF78490020DE
:1056E0002C4A0020684A0020004A002008020020BE
:1056F0000268D36823F0C003D360202380F83D30D4
:1057000070470268D36823F49073D36002685369CA
:1057100023F001035361036B012B05D0202380F894
:105720003E300023036370470268D36823F0100300
:10573000D360F3E790F83D30DBB2212B01D002209B
:1057400070478368B3F5805F17D0036A5A1C026202
:105750001A7803685A60C38C9BB2013B9BB2C38426
:105760004BB90268D36823F08003D3600268D36822
:1057700043F04003D360002070470369002BE4D15D
:10578000036A1B880268C3F308035360036A023389
:105790000362E0E738B504460268136923F4405316
:1057A000C1680B4313618368026913434269134361
:1057B000C2691A430168CB6823F4164323F00C0333
:1057C0001343CB600268536923F4407381690B4330
:1057D00053610368314A934206D002F580629342D6
:1057E00002D0FCF747FA01E0FCF754FAE369B3F59D
:1057F000004F29D00021031849411B1841F1000135
:10580000C90041EA5371DB00181863684FEA83024C
:105810004FEA937341F10001FBF716FA204DA5FB07
:1058200000325109642303FB11031B013233A5FB32
:1058300003235B0903F0F00202EB011203F00F03F4
:10584000216813448B6038BD0023021843EB030129
:10585000121841F10001C90041EA5271D20010183A
:1058600041F10001626892185B41FBF7EDF90C4DC4
:10587000A5FB00325109642303FB1103DB00323323
:10588000A5FB03235B095A0002F4F87202EB011234
:1058900003F00703216813448B60D4E70010014034
:1058A0001F85EB512DE9F84305460F4616469946EC
:1058B000DDF820802C68246837EA04030CBF4FF021
:1058C000010C4FF0000CB4451FD1B8F1FF3FF1D0EF
:1058D000B8F1000F05D0FCF7F1FDA0EB0900404541
:1058E000E8D92A68D36823F4D073D3602A6853694F
:1058F00023F001035361202385F83D3085F83E30C5
:10590000002385F83C30032000E00020BDE8F88348
:1059100058B310B5044690F83D300BB3242384F8F7
:105920003D302268D36823F40053D3602046FFF74C
:1059300031FF2268136923F490431361226853698D
:1059400023F02A0353612268D36843F40053D360E1
:1059500000202064202384F83D3084F83E3010BDC0
:1059600080F83C30FFF7CAFBD8E7012070472DE9EB
:10597000F04182B01E4690F83D30DBB2202B54D16E
:1059800004460D469046002953D0002A53D090F883
:105990003C30012B51D0012380F83C3000230364BC
:1059A000212380F83D30FCF789FD0746A4F82480C8
:1059B000A4F82680A368B3F5805F05D04FF00008F7
:1059C000002384F83C3012E0236913B14FF0000843
:1059D000F6E7A8460025F3E738F8023B2268C3F350
:1059E00008035360E28C92B2013A92B2E284E38CF3
:1059F0009BB273B100963B46002280212046FFF700
:105A000051FFE0B9002DE7D015F8012B23685A604B
:105A1000E8E700963B46002240212046FFF742FF80
:105A200078B9202384F83D3000E0022002B0BDE8C0
:105A3000F0810120FAE70120F8E70220F6E70320D1
:105A4000F4E70320F2E710B5044601684A6990F8CC
:105A50003D30DBB2212B0AD021684A6902F04002B6
:105A600094F83E30DBB2222B11D0002010BD02F0A2
:105A70008002002AF0D04B6923F080034B61406B19
:105A800008B1FCF752FB2046FFF732FEE4E7002A9C
:105A9000EBD04B6923F040034B61A06B08B1FCF7DE
:105AA00044FB2046FFF72DFEDFE7704708B501688D
:105AB000CA6822F04002CA60202280F83D20FFF729
:105AC000F4FF002008BD70477047704710B5846B25
:105AD00023685A6994F83D30DBB2212B10D023683B
