:020000040800F2
:1000000000000220D5470008311200083312000812
:1000100035120008371200083912000800000000ED
:10002000000000000000000000000000D1380008BF
:100030003B1200080000000071390008D5390008A3
:1000400025480008254800082548000825480008DC
:1000500025480008254800082548000825480008CC
:1000600025480008254800082548000825480008BC
:100070003D1200084D1200082548000825480008D8
:10008000254800082548000825480008254800089C
:10009000254800082548000825480008254800088C
:1000A000254800085D12000825480008254800087A
:1000B000254800082548000825480008254800086C
:1000C000254800082548000825480008254800085C
:1000D0002548000825480008254800086D1200083A
:1000E000254800082548000825480008254800083C
:1000F000254800082548000825480008254800082C
:10010000254800082548000825480008254800081B
:100110007D120008254800082548000825480008E9
:1001200025480008254800082548000825480008FB
:1001300025480008254800082548000825480008EB
:1001400025480008254800082548000825480008DB
:1001500025480008254800082548000825480008CB
:1001600025480008254800082548000825480008BB
:100170002548000825480008254800080000000020
:0801800025480008254800088D
:1001900010B5054C237833B9044B13B10448AFF3C1
:1001A00000800123237010BDE0010020000000004A
:1001B000A873000808B5034B1BB103490348AFF30C
:1001C000008008BD00000000E4010020A8730008C2
:1001D000034613F8012B002AFBD1181A0138704787
:1001E00001F0FF01102A2BDB10F0070F08D010F8E8
:1001F000013B013A8B422DD010F0070F42B3F6D1EC
:10020000F0B441EA012141EA014122F007047FF004
:1002100000070023F0E80256083C85EA010586EA5B
:10022000010685FA47F5A3FA87F586FA47F6A5FA97
:1002300087F68EB9EED1F0BC01F0FF0102F00702A3
:1002400032B110F8013B013A83EA010313B1F8D14E
:100250000020704701387047002D06BF354603382F
:10026000073815F0010F07D1013015F4807F02BF68
:10027000013015F4C03F0130F0BC0138704700BFB9
:1002800081F0004102E000BF83F0004330B54FEA47
:1002900041044FEA430594EA050F08BF90EA020FB4
:1002A0001FBF54EA000C55EA020C7FEA645C7FEA47
:1002B000655C00F0E2804FEA5454D4EB5555B8BF6A
:1002C0006D420CDD2C4480EA020281EA030382EADB
:1002D000000083EA010180EA020281EA0303362D6D
:1002E00088BF30BD11F0004F4FEA01314FF4801C40
:1002F0004CEA113102D0404261EB410113F0004F52
:100300004FEA03334CEA133302D0524263EB430308
:1003100094EA050F00F0A780A4F10104D5F1200EA6
:100320000DDB02FA0EFC22FA05F2801841F1000101
:1003300003FA0EF2801843FA05F359410EE0A5F1D5
:1003400020050EF1200E012A03FA0EFC28BF4CF006
:10035000020C43FA05F3C01851EBE37101F00045BC
:1003600007D54FF0000EDCF1000C7EEB00006EEBC9
:100370000101B1F5801F1BD3B1F5001F0CD3490853
:100380005FEA30004FEA3C0C04F101044FEA4452AA
:1003900012F5800F80F09A80BCF1004F08BF5FEA31
:1003A000500C50F1000041EB045141EA050130BD11
:1003B0005FEA4C0C404141EB0101013C28BFB1F523
:1003C000801FE9D291F0000F04BF01460020B1FA6E
:1003D00081F308BF2033A3F10B03B3F120020CDA41
:1003E0000C3208DD02F1140CC2F10C0201FA0CF01F
:1003F00021FA02F10CE002F11402D8BFC2F1200C84
:1004000001FA02F120FA0CFCDCBF41EA0C01904039
:10041000E41AA2BF01EB0451294330BD6FEA040482
:100420001F3C1CDA0C340EDC04F11404C4F120026D
:1004300020FA04F001FA02F340EA030021FA04F37F
:1004400045EA030130BDC4F10C04C4F1200220FAD6
:1004500002F001FA04F340EA0300294630BD21FA14
:1004600004F0294630BD94F0000F83F4801306BFDA
:1004700081F480110134013D4EE77FEA645C18BFCE
:100480007FEA655C29D094EA050F08BF90EA020F65
:1004900005D054EA000C04BF1946104630BD91EA5D
:1004A000030F1EBF0021002030BD5FEA545C05D160
:1004B0004000494128BF41F0004130BD14F580049F
:1004C0003CBF01F5801130BD01F0004545F0FE4113
:1004D00041F470014FF0000030BD7FEA645C1ABF48
:1004E000194610467FEA655C1CBF0B46024650EA7F
:1004F000013406BF52EA033591EA030F41F40021AB
:1005000030BD00BF90F0000F04BF0021704730B530
:100510004FF4806404F132044FF000054FF0000105
:1005200050E700BF90F0000F04BF0021704730B5C6
:100530004FF4806404F1320410F0004548BF40429B
:100540004FF000013EE700BF42004FEAE2014FEAF0
:1005500031014FEA02701FBF12F07F4393F07F4FCB
:1005600081F06051704732F07F4208BF704793F0CE
:100570007F4F04BF41F40021704730B54FF46074E1
:1005800001F0004521F000411CE700BF50EA0102E4
:1005900008BF704730B54FF000050AE050EA01028D
:1005A00008BF704730B511F0004502D5404261EBFD
:1005B00041014FF4806404F132045FEA915C3FF43E
:1005C000D8AE4FF003025FEADC0C18BF03325FEADB
:1005D000DC0C18BF033202EBDC02C2F1200300FA8C
:1005E00003FC20FA02F001FA03FE40EA0E0021FAB1
:1005F00002F11444BDE600BF70B54FF0FF0C4CF49F
:10060000E06C1CEA11541DBF1CEA135594EA0C0F50
:1006100095EA0C0F00F0DEF82C4481EA030621EA8B
:100620004C5123EA4C5350EA013518BF52EA0335C6
:1006300041F4801143F4801338D0A0FB02CE4FF078
:100640000005E1FB02E506F00042E0FB03E54FF0A8
:100650000006E1FB03569CF0000F18BF4EF0010EA0
:10066000A4F1FF04B6F5007F64F5407404D25FEA9C
:100670004E0E6D4146EB060642EAC62141EA55514F
:100680004FEAC52040EA5E504FEACE2EB4F1FD0C91
:1006900088BFBCF5E06F1ED8BEF1004F08BF5FEA0F
:1006A000500E50F1000041EB045170BD06F00046C1
:1006B00046EA010140EA020081EA0301B4EB5C046E
:1006C000C2BFD4EB0C0541EA045170BD41F4801166
:1006D0004FF0000E013C00F3AB8014F1360FDEBF8B
:1006E000002001F0004170BDC4F10004203C35DA67
:1006F0000C341BDC04F11404C4F1200500FA05F3EA
:1007000020FA04F001FA05F240EA020001F000428A
:1007100021F0004110EBD37021FA04F642EB060100
:100720005EEA430E08BF20EAD37070BDC4F10C042A
:10073000C4F1200500FA04F320FA05F001FA04F2EE
:1007400040EA020001F0004110EBD37041F10001DA
:100750005EEA430E08BF20EAD37070BDC4F12005E5
:1007600000FA05F24EEA020E20FA04F301FA05F24D
:1007700043EA020321FA04F001F0004121FA04F2F5
:1007800020EA020000EBD3705EEA430E08BF20EAC5
:10079000D37070BD94F0000F0FD101F000464000FF
:1007A00041EB010111F4801F08BF013CF7D041EA81
:1007B000060195F0000F18BF704703F00046520085
:1007C00043EB030313F4801F08BF013DF7D043EA56
:1007D0000603704794EA0C0F0CEA135518BF95EA0C
:1007E0000C0F0CD050EA410618BF52EA4306D1D193
:1007F00081EA030101F000414FF0000070BD50EAB2
:10080000410606BF1046194652EA430619D094EA3B
:100810000C0F02D150EA013613D195EA0C0F05D125
:1008200052EA03361CBF104619460AD181EA030179
:1008300001F0004141F0FE4141F470014FF0000031
:1008400070BD41F0FE4141F4780170BD70B54FF0CC
:10085000FF0C4CF4E06C1CEA11541DBF1CEA13554C
:1008600094EA0C0F95EA0C0F00F0A7F8A4EB05042E
:1008700081EA030E52EA03354FEA013100F0888025
:100880004FEA03334FF0805545EA131343EA1263EE
:100890004FEA022245EA111545EA10654FEA0026A3
:1008A0000EF000419D4208BF964244F1FD0404F55C
:1008B000407402D25B084FEA3202B61A65EB0305B8
:1008C0005B084FEA32024FF480104FF4002CB6EB75
:1008D000020E75EB030E22BFB61A754640EA0C00F5
:1008E0005B084FEA3202B6EB020E75EB030E22BF35
:1008F000B61A754640EA5C005B084FEA3202B6EB76
:10090000020E75EB030E22BFB61A754640EA9C0034
:100910005B084FEA3202B6EB020E75EB030E22BF04
:10092000B61A754640EADC0055EA060E18D04FEAC2
:10093000051545EA16754FEA06164FEAC30343EA62
:1009400052734FEAC2025FEA1C1CC0D111F4801F2F
:100950000BD141EA00014FF000004FF0004CB6E728
:1009600011F4801F04BF01430020B4F1FD0C88BFC7
:10097000BCF5E06F3FF6AFAEB5EB030C04BFB6EBD2
:10098000020C5FEA500C50F1000041EB045170BDC5
:100990000EF0004E4EEA113114EB5C04C2BFD4EBF2
:1009A0000C0541EA045170BD41F480114FF0000E76
:1009B000013C90E645EA060E8DE60CEA135594EAF2
:1009C0000C0F08BF95EA0C0F3FF43BAF94EA0C0FF5
:1009D0000AD150EA01347FF434AF95EA0C0F7FF46A
:1009E00025AF104619462CE795EA0C0F06D152EABE
:1009F00003353FF4FDAE1046194622E750EA4106A2
:100A000018BF52EA43067FF4C5AE50EA41047FF4B2
:100A10000DAF52EA43057FF4EBAE12E74FF0FF3C17
:100A200006E000BF4FF0010C02E000BF4FF0010CE8
:100A30004DF804CD4FEA410C7FEA6C5C4FEA430C61
:100A400018BF7FEA6C5C1BD001B050EA410C0CBFB0
:100A500052EA430C91EA030F02BF90EA020F002012
:100A6000704710F1000F91EA030F58BF994208BF79
:100A700090422CBFD8176FEAE37040F00100704736
:100A80004FEA410C7FEA6C5C02D150EA013C07D18D
:100A90004FEA430C7FEA6C5CD6D152EA033CD3D0D8
:100AA0005DF8040B704700BF8446104662468C46D2
:100AB0001946634600E000BF01B5FFF7B7FF002805
:100AC00048BF10F1000F01BD4DF808EDFFF7F4FF2E
:100AD0000CBF012000205DF808FB00BF4DF808EDB9
:100AE000FFF7EAFF34BF012000205DF808FB00BFDC
:100AF0004DF808EDFFF7E0FF94BF012000205DF8FE
:100B000008FB00BF4DF808EDFFF7CEFF94BF0120B2
:100B100000205DF808FB00BF4DF808EDFFF7C4FFAB
:100B200034BF012000205DF808FB00BF4FEA410CF4
:100B30007FEA6C5C02D150EA013C0AD14FEA430CD7
:100B40007FEA6C5C02D152EA033C02D14FF0000014
:100B500070474FF0010070474FEA410212F5001252
:100B600015D211D56FF47873B3EB625212D94FEAF4
:100B7000C12343F0004343EA505311F0004F23FADE
:100B800002F018BF404270474FF00000704750EA33
:100B9000013005D111F0004008BF6FF000407047F0
:100BA0004FF00000704700BF53B94AB9002908BF91
:100BB00000281CBF4FF0FF314FF0FF3000F074B938
:100BC000ADF1080C6DE904CE00F006F8DDF804E0A4
:100BD000DDE9022304B070472DE9F047089D044683
:100BE0008E46002B4DD18A42944669D9B2FA82F2E0
:100BF00052B101FA02F3C2F1200120FA01F10CFA1C
:100C000002FC41EA030E94404FEA1C48210CBEFB53
:100C1000F8F61FFA8CF708FB16E341EA034306FBDC
:100C200007F199420AD91CEB030306F1FF3080F06B
:100C30001F81994240F21C81023E63445B1AA4B2B8
:100C4000B3FBF8F008FB103344EA034400FB07F75A
:100C5000A7420AD91CEB040400F1FF3380F00A819B
:100C6000A74240F207816444023840EA0640E41B90
:100C700000261DB1D4400023C5E900433146BDE83C
:100C8000F0878B4209D9002D00F0EF800026C5E9DE
:100C9000000130463146BDE8F087B3FA83F6002EF6
:100CA0004AD18B4202D3824200F2F980841A61EB6E
:100CB000030301209E46002DE0D0C5E9004EDDE78C
:100CC00002B9FFDEB2FA82F2002A40F09280A1EB74
:100CD0000C014FEA1C471FFA8CFE0126200CB1FBC9
:100CE000F7F307FB131140EA01410EFB03F08842C2
:100CF00008D91CEB010103F1FF3802D2884200F24F
:100D0000CB804346091AA4B2B1FBF7F007FB1011E0
:100D100044EA01440EFB00FEA64508D91CEB04047E
:100D200000F1FF3102D2A64500F2BB800846A4EBD9
:100D30000E0440EA03409CE7C6F12007B34022FAC4
:100D400007FC4CEA030C20FA07F401FA06F31C43F3
:100D5000F9404FEA1C4900FA06F3B1FBF9F8200C00
:100D60001FFA8CFE09FB181140EA014108FB0EF046
:100D7000884202FA06F20BD91CEB010108F1FF3A96
:100D800080F08880884240F28580A8F102086144A2
:100D9000091AA4B2B1FBF9F009FB101144EA0141B0
:100DA00000FB0EFE8E4508D91CEB010100F1FF345B
:100DB0006CD28E456AD90238614440EA0840A0FBF3
:100DC0000294A1EB0E01A142C846A64656D353D0C9
:100DD0005DB1B3EB080261EB0E0101FA07F722FAED
:100DE00006F3F1401F43C5E9007100263146BDE816
:100DF000F087C2F12003D8400CFA02FC21FA03F379
:100E0000914001434FEA1C471FFA8CFEB3FBF7F0F9
:100E100007FB10360B0C43EA064300FB0EF69E421E
:100E200004FA02F408D91CEB030300F1FF382FD2B7
:100E30009E422DD9023863449B1B89B2B3FBF7F65F
:100E400007FB163341EA034106FB0EF38B4208D938
:100E50001CEB010106F1FF3816D28B4214D9023E79
:100E60006144C91A46EA004638E72E46284605E797
:100E70000646E3E61846F8E64B45A9D2B9EB020868
:100E800064EB0C0E0138A3E74646EAE7204694E7F8
:100E90004046D1E7D0467BE7023B614432E730462B
:100EA00009E76444023842E7704700BF08B50022F2
:100EB00006210D2001F054F90D2001F089F90022DE
:100EC0000521342001F04CF9342001F081F908BDEE
:100ED00000B583B002F00EFD03220021012001F0D5
:100EE00036FC104B1860104B019302230093002333
:100EF00040220E490E4801F048FF0E4B0193062395
:100F0000009300234FF480620B490C4801F03DFF31
:100F10000B4B186801F06EFF02F00EFD03B05DF898
:100F200004FB00BFFC01002004020020F87300084D
:100F3000213E00080002002004740008093F000858
:100F40000802002008B50268034B9A4200D008BD91
:100F500001F066F9FBE700BF0000014072B6FEE752
:100F600000B595B03022002108A803F08FFC0023C3
:100F7000039304930593069307930193204A116CFE
:100F800041F080511164126C02F080520192019A7A
:100F900002931C4B1A6842F480421A601B6803F4E7
:100FA00080430293029B012308934FF480330993FB
:100FB00002220E924FF480030F9304231093A82172
:100FC00011911292139308A800F0F6F998B90F2323
:100FD000039302230493002305934FF4A053069335
:100FE0004FF480530793052103A800F04BFC20B970
:100FF00015B05DF804FBFFF7B1FFFFF7AFFF00BFCF
:10100000003802400070004000B583B001F0EEF8F7
:10101000FFF7A6FF00F020F803F0C2FB02F0F8FD96
:1010200002F0DCFD02F00EFEFFF740FF074B0193DC
:1010300001230093002380220549064801F0A5FE04
:1010400000F0C8F802F088FAFEE700BF08020020AE
:1010500018740008D10E00082DE9F0438DB000246B
:101060000794089409940A940B940194494B1A6BC1
:1010700042F010021A631A6B02F010020192019AF8
:1010800002941A6B42F004021A631A6B02F0040213
:101090000292029A03941A6B42F080021A631A6B4E
:1010A00002F080020392039A04941A6B42F0010248
:1010B0001A631A6B02F001020492049A05941A6BE7
:1010C00042F002021A631A6B02F002020592059ABC
:1010D00006941A6B42F008021A631B6B03F00803B4
:1010E0000693069BDFF8B89022460821484600F098
:1010F000AFFD294F01220F21384600F0A9FDDFF88E
:10110000A48022460321404600F0A2FD2246702121
:10111000384600F09DFD0823079301250895022617
:1011200009960A9407A9484600F0A0FC0F230793EC
:10113000089509950A9407A9384600F097FC0323FF
:101140000793089509960A9407A9404600F08EFC7B
:1011500020230793089609940A940B9507A9404603
:1011600000F084FC70230793089509960A9407A958
:10117000384600F07BFC4FF44063079308960994CF
:101180000A940B9507A9054800F070FC0DB0BDE866
:10119000F08300BF00380240000802400004024013
:1011A000001002400000024008B5012002F00EFAD3
:1011B000FBE708B5012002F009FAFBE7034B0360E7
:1011C000034B0B6080231360704700BF14040020A2
:1011D0001402002010B58EB0124C0DF11C0CA64666
:1011E000BEE80F00ACE80F009EE807008CE807009F
:1011F000002107A802F0B5F90B4B1860EE4604F188
:101200001C0CBCE80F00AEE80F009CE807008EE85D
:1012100007000021684602F0A4F9044B18600EB0E4
:1012200010BD00BFC0730008100200200C02002097
:10123000FEE7FEE7FEE7FEE7FEE7704708B5024877
:1012400000F08EFE08BD00BF6842002008B50248CD
:1012500000F086FE08BD00BF0842002008B5024825
:1012600001F03AF808BD00BF6804002008B5024844
:1012700003F0FEF808BD00BF0C43002000B583B0AA
:10128000194B1B681A6812F0100F0CD00022009244
:101290001A6800925A680092009A1A685B68134BA9
:1012A0001B78012B05D0104803F0E2F803B05DF87D
:1012B00004FB0F4B1B685B68C3F1B6035A2BF2D9D2
:1012C000094803F000F801A90A4B186801F063FA15
:1012D0004FF0E0234FF08052C3F8042DBFF34F8F3F
:1012E000BFF36F8FDFE700BF504300204E44002064
:1012F00008420020FC01002000B583B000220092CB
:101300000D4B596C41F480415964596C01F4804192
:10131000009100990192196C41F0805119641B6C85
:1013200003F080530193019B0F216FF0010000F047
:1013300017FF03B05DF804FB0038024010B588B019
:1013400001460022192000F00BFF192000F040FF99
:1013500000240194144B5A6C42F001025A645B6CF5
:1013600003F001030193019B02A903A800F060FBB5
:1013700000F04EFB43000D48A0FB03239B0C013BF8
:101380000B480C4A026040F2E732C26043600461DD
:10139000846001F0C3F810B1012008B010BD04480A
:1013A00000F052FFF9E700BF0038024083DE1B4324
:1013B0006804002000000140002800F0E08170B5C2
:1013C00082B00446036813F0010F3BD09F4B9B682B
:1013D00003F00C03042B2CD09C4B9B6803F00C03F4
:1013E000082B21D06368B3F5803F4FD0B3F5A02F11
:1013F00052D0964B1A6822F480321A601A6822F48E
:1014000080221A606368002B50D000F015FF05465B
:101410008E4B1B6813F4003F14D100F00DFF401BEE
:101420006428F5D90320B1E1884B5B6813F4800F81
:10143000D8D0864B1B6813F4003F03D06368002BA1
:1014400000F09F81236813F0020F54D07F4B9B68FC
:1014500013F00C0F3ED07D4B9B6803F00C03082B60
:1014600033D0E368002B68D0794B01221A6000F07A
:10147000E3FE0546754B1B6813F0020F54D100F0D4
:10148000DBFE401B0228F5D903207FE16F4A136879
:1014900043F480331360B5E76C4B1A6842F4802242
:1014A0001A601A6842F480321A60ABE700F0C4FE9A
:1014B0000546664B1B6813F4003FC3D000F0BCFE2A
:1014C000401B6428F5D9032060E1604B5B6813F48E
:1014D000800FC6D15D4B1B6813F0020F03D0E36889
:1014E000012B40F05081594A136823F0F803216919
:1014F00043EAC1031360236813F0080F42D0636905
:101500006BB3534B0122C3F8802E00F095FE0546C5
:101510004E4B5B6F13F0020F34D100F08DFE401B79
:101520000228F5D9032031E1484A136823F0F80373
:10153000216943EAC1031360DDE7454B00221A60CD
:1015400000F07AFE0546414B1B6813F0020FD2D023
:1015500000F072FE401B0228F5D9032016E13C4B37
:101560000022C3F8802E00F067FE0546374B5B6F04
:1015700013F0020F06D000F05FFE401B0228F5D9E1
:10158000032003E1236813F0040F77D02F4B1B6C6B
:1015900013F0805F33D1002301932C4B1A6C42F07F
:1015A00080521A641B6C03F080530193019B012548
:1015B000284B1B6813F4807F23D0A368012B34D001
:1015C000052B38D0214B1A6F22F001021A671A6FCF
:1015D00022F004021A67A368002B3DD000F02CFE15
:1015E00006461A4B1B6F13F0020F46D100F024FE83
:1015F000801B41F288339842F3D90320C6E00025CE
:10160000D6E7144A136843F48073136000F014FEA5
:101610000646104B1B6813F4807FCED100F00CFE01
:10162000801B0228F5D90320B0E0084A136F43F06D
:1016300001031367CFE7054B1A6F42F004021A67E4
:101640001A6F42F001021A67C5E700BF0038024076
:10165000000047420070004000F0EEFD0646524B8D
:101660001B6F13F0020F08D000F0E6FD801B41F263
:1016700088339842F3D9032088E0EDB9A369002BA1
:1016800000F08380484A926802F00C02082A51D088
:10169000022B17D0454B00221A6600F0CDFD044600
:1016A000414B1B6813F0007F42D000F0C5FD001BCA
:1016B0000228F5D9032069E03B4A136C23F08053DC
:1016C0001364DBE7394B00221A6600F0B5FD0546CE
:1016D000354B1B6813F0007F06D000F0ADFD401BBA
:1016E0000228F5D9032051E0E369226A1343626AB4
:1016F00043EA8213A26A5208013A43EA0243E26AC9
:1017000043EA0263284A5360284B01221A6600F01C
:1017100093FD0446244B1B6813F0007F06D100F0B4
:101720008BFD001B0228F5D903202FE000202DE0BF
:1017300000202BE0012B2BD01B4B5B6803F48001B6
:10174000E269914226D103F03F02216A8A4223D105
:10175000616A47F6C0721A40B2EB811F1ED103F4D2
:101760004031A26A5208013AB1EB024F18D103F09E
:101770007063E26AB3EB026F14D1002006E001202F
:101780007047012002E0012000E0002002B070BD9F
:101790000120FBE70120F9E70120F7E70120F5E749
:1017A0000120F3E70120F1E7003802400000474242
:1017B00008B5314B9B6803F00C03042B57D0082B62
:1017C00057D12D4B5A6802F03F025B6813F4800F2B
:1017D0002AD0294B5968C1F3881C4FEA4C11B1EB50
:1017E0000C006EEB0E0E4FEA8E1343EA90638101FC
:1017F000091A63EB0E03DB0043EA5173C90011EBD6
:101800000C0C43F10003590200234FEA4C2041EA3B
:10181000DC51FFF7C9F9184B5B68C3F3014301338F
:101820005B00B0FBF3F025E0134B5968C1F3881C53
:101830004FEA4C11B1EB0C006EEB0E0E4FEA8E131B
:1018400043EA90638101091A63EB0E03DB0043EA6C
:101850005173C90011EB0C0C43F1000399020023F2
:101860004FEA8C2041EA9C51FFF79EF9D3E70348E9
:1018700000E0034808BD00BF0038024000127A00B3
:101880000024F400002800F09B8070B50D4604464B
:101890004F4B1B6803F007038B4208D2CBB24C4A74
:1018A0001370136803F007038B4240F08B802368AA
:1018B00013F0020F17D013F0040F04D0454A9368B9
:1018C00043F4E0539360236813F0080F04D0414AB7
:1018D000936843F4604393603E4A936823F0F003B7
:1018E000A1680B439360236813F0010F32D0636843
:1018F000012B21D09A1E012A25D9364A126812F0EE
:10190000020F61D033498A6822F0030213438B60CF
:1019100000F092FC06462F4B9B6803F00C036268B4
:10192000B3EB820F16D000F087FC801B41F28833A6
:101930009842F0D9032042E0264A126812F4003F90
:10194000E0D101203BE0234A126812F0007FD9D198
:10195000012034E01E4B1B6803F00703AB4207D99C
:10196000EAB21B4B1A701B6803F00703AB422DD180
:10197000236813F0040F06D0164A936823F4E0534B
:10198000E1680B439360236813F0080F07D0114AF6
:10199000936823F46043216943EAC1039360FFF72E
:1019A00007FF0C4B9B68C3F303130B4AD35CD8406F
:1019B0000A4B18600A4B1868FFF7C0FC002070BD86
:1019C000012070470120FAE70120F8E70120F6E73F
:1019D000003C024000380240447400080800002027
:1019E00004000020014B1868704700BF0800002069
:1019F00008B5FFF7F7FF044B9B68C3F38223034A44
:101A0000D35CD84008BD00BF0038024054740008C1
:101A100008B5FFF7E7FF044B9B68C3F34233034A63
:101A2000D35CD84008BD00BF0038024054740008A1
:101A30000F2303600B4B9A6802F0030242609A681E
:101A400002F0F00282609A6802F4E052C2609B6881
:101A5000DB0803F4E0530361034B1B6803F0070347
:101A60000B60704700380240003C024000230F2BFF
:101A700000F2E48070B582B060E085685E00032407
:101A8000B44025EA0405CC68B4402C438460456822
:101A900025EA02054C68C4F300129A402A434260CA
:101AA0005AE0DC08083450F8246003F0070295007F
:101AB0000F22AA4026EA020E0A69AA4042EA0E0252
:101AC00040F824205CE0072200E0002202FA0EF237
:101AD0002A4302345A4D45F824205A4A14686FEAC2
:101AE0000C0224EA0C054E6816F4803F01D04CEA43
:101AF0000405544C2560646802EA04054E6816F437
:101B0000003F01D04CEA04054E4C6560A46802EA2F
:101B100004054E6816F4801F01D04CEA0405494CB8
:101B2000A560E46822404D6815F4001F01D04CEA1E
:101B30000402444CE26001330F2B7DD801229A400D
:101B40000C6804EA020C32EA0404F4D14C6804F094
:101B50000304013C012C90D94A6802F00302032AD5
:101B600009D0C4685D000322AA4024EA02048A68FE
:101B7000AA402243C2604A6802F00302022A90D0BF
:101B800004684FEA430E032202FA0EF224EA02042A
:101B90004A6802F0030202FA0EF2224302604A6827
:101BA00012F0805FC7D000220192274A546C44F49F
:101BB00080445464526C02F480420192019A9C0861
:101BC000A51C1F4A52F8255003F003024FEA820E6B
:101BD0000F2202FA0EF225EA02051C4A90423FF457
:101BE00074AF02F5806290421AD002F58062904292
:101BF00018D002F58062904216D002F580629042C1
:101C000014D002F58062904212D002F580629042B8
:101C100010D002F5806290423FF455AF082255E79C
:101C2000012253E7022251E703224FE704224DE746
:101C300005224BE7062249E702B070BD704700BF9E
:101C400000380140003C01400038024000000240E2
:101C50000AB181617047090481617047436901EAF3
:101C6000030221EA030141EA02418161704730B475
:101C700005682C6824F480242C6004686360836801
:101C8000402B05D0036899600368DA6030BC704768
:101C900003689A600368D960F8E7000010B403682D
:101CA000D9B210390C4AA2FB014212090B4CA25CBA
:101CB000C2655F2909D923F47F7323F0030304333A
:101CC0008365806D5DF8044B704723F47F7323F0C8
:101CD00003038365F5E700BFABAAAAAA3C7400081A
:101CE000836A826992B9012B0AD0022B02D00BB110
:101CF00000207047C36A13F0807F28D1002070470E
:101D0000C36AB3F1C07F24D000207047B2F5005FF2
:101D100009D0022B25D9032B25D1C36A13F0807F6C
:101D200023D100207047032B03D8DFE803F014040D
:101D3000140A00207047C36A13F0807F0DD1002081
:101D40007047C36AB3F1C07F09D0002070470120FB
:101D50007047012070470120704701207047012023
:101D60007047012070470020704701207047000035
:101D700070B5044600F060FA002C5BD005460023E5
:101D800084F83430022384F835302268136823F055
:101D90000103136023681A6812F0010F0AD000F0E3
:101DA0004BFA431B052BF5D920236365032084F8E8
:101DB000350070BD1A68204810406168A2680A4367
:101DC000E1680A4321690A4361690A43A1690A4338
:101DD000E1690A43216A0A430243616A04291ED069
:101DE0001A602668756925F00705636A1D43042B90
:101DF00007D1A36A1D43E36A1BB12046FFF770FFBA
:101E000090B975612046FFF749FFE26D3F2393408B
:101E1000836000206065012384F83530C9E7E16AFA
:101E2000206B01430A43DBE740236365012084F80C
:101E30003500BEE70120BCE73F8010F038B504460E
:101E4000856D90F8340001282BD0012084F83400EF
:101E500094F83500C0B2012804D0002384F834304F
:101E6000022038BD022084F835000020606520463D
:101E7000FFF7FDFEE26D3F239340AB6022681368DD
:101E800043F016031360236C23B12268136843F0F8
:101E9000080313602268136843F0010313600020F5
:101EA000DFE70220DDE770B50446866D00F0C4F977
:101EB00094F83530DBB2022B06D080236365002313
:101EC00084F83430012070BD05462268136823F081
:101ED000160313602268536923F080035361236C57
:101EE000E3B12268136823F00803136022681368C3
:101EF00023F00103136023681B6813F0010F11D056
:101F000000F09AF9431B052BF5D9202363650023C4
:101F100084F83430032084F83500D4E7A36C002B18
:101F2000DFD1E3E7E26D3F239340B360002084F804
:101F30003400012384F83530C5E790F83530DBB242
:101F4000022B03D08023436501207047052380F8CE
:101F500035300268136823F00103136000207047D6
:101F6000F0B583B0044600230193724B1D68724B99
:101F7000A3FB0535AD0A876D3E68C26D082393400B
:101F8000334210D003681A6812F0040F0BD01A689D
:101F900022F004021A60C26D08239340BB60436DB7
:101FA00043F001034365E26D01239340334209D0BE
:101FB0002268526912F0800F04D0BB60636D43F059
:101FC00002036365E26D04239340334209D0226823
:101FD000126812F0020F04D0BB60636D43F004037B
:101FE0006365E26D10239340334224D02268126867
:101FF00012F0080F1FD0BB6023681A6812F4802FFC
:102000000DD01B6813F4002F04D1236C9BB1204624
:10201000984710E0A36C73B1204698470BE01A680C
:1020200012F4807F03D11A6822F008021A60236C30
:102030000BB120469847E26D20239340334255D0A0
:102040002268126812F0100F50D0BB6094F835303F
:10205000DBB2052B0ED023681A6812F4802F33D020
:102060001B6813F4002F2AD1636C002B3ED020464E
:1020700098473BE02268136823F016031360226838
:10208000536923F080035361236CA3B12268136862
:1020900023F008031360E26D3F239340BB600023ED
:1020A00084F83430012384F83530236D002B3FD081
:1020B000204698473CE0A36C002BE7D1EBE7E36BAD
:1020C000A3B12046984711E01A6812F4807F09D125
:1020D0001A6822F010021A60002384F834300123B9
:1020E00084F83530E36B0BB120469847636DFBB144
:1020F000636D13F0010F17D0052384F83530226883
:10210000136823F001031360019B01330193AB4279
:1021100004D823681B6813F0010FF5D1002384F85D
:102120003430012384F83530E36C0BB120469847F6
:1021300003B0F0BD08000020B5814E1B074AD368EC
:1021400023F4E0631B041B0C000200F4E060034373
:1021500043F0BF6343F40033D360704700ED00E009
:1021600000B5194BDB68C3F30223C3F1070CBCF1C4
:10217000040F28BF4FF0040C03F1040EBEF1060F4C
:1021800018D9033B4FF0FF3E0EFA0CFC21EA0C017C
:1021900099400EFA03F322EA0303194300280BDBEC
:1021A0000901C9B200F1604000F5614080F80013F8
:1021B0005DF804FB0023E5E700F00F000901C9B258
:1021C000024B1954F4E700BF00ED00E014ED00E00D
:1021D000002807DB00F01F02400901239340024A58
:1021E00042F82030704700BF00E100E008B50B4B1B
:1021F0001A6842F400721A601A6842F480621A6027
:102200001A6842F480721A600320FFF797FF0020DB
:10221000FFF794F8FFF770F8002008BD003C02407B
:10222000034A1168034B1B780B441360704700BFCF
:10223000B004002000000020014B1868704700BF68
:10224000B00400207047000090F83D30DBB2012B55
:1022500037D1022380F83D300268D36843F0010390
:10226000D3600368194A934220D0B3F1804F1DD048
:10227000A2F57C42934219D002F58062934215D0B8
:1022800002F58062934211D002F5784293420DD05C
:1022900002F57052934209D0A2F59432934205D0D0
:1022A0001A6842F001021A60002070479A6802F032
:1022B0000702062A07D01A6842F001021A600020BD
:1022C0007047012070470020704700BF00000140A8
:1022D000704770477047704710B5044603681A6925
:1022E00012F0020F11D0DA6812F0020F0DD06FF069
:1022F00002021A610123037703689B6913F0030F3D
:1023000070D0FFF7E6FF0023237723681A6912F0E5
:10231000040F12D0DA6812F0040F0ED06FF004022E
:102320001A610223237723689B6913F4407F5FD0EF
:102330002046FFF7CEFF0023237723681A6912F0A7
:10234000080F12D0DA6812F0080F0ED06FF00802F2
:102350001A61042323772368DB6913F0030F4ED03F
:102360002046FFF7B6FF0023237723681A6912F08F
:10237000100F12D0DA6812F0100F0ED06FF01002AA
:102380001A61082323772368DB6913F4407F3DD06B
:102390002046FFF79EFF0023237723681A6912F077
:1023A000010F03D0DA6812F0010F36D123681A69E1
:1023B00012F0800F03D0DA6812F0800F34D1236856
:1023C0001A6912F0400F03D0DA6812F0400F32D1D0
:1023D00023681A6912F0200F03D0DA6812F0200F78
:1023E00030D110BDFFF774FF2046FFF773FF8AE777
:1023F0002046FFF76DFF2046FFF76CFF9BE7204666
:10240000FFF766FF2046FFF765FFACE72046FFF7C2
:102410005FFF2046FFF75EFFBDE76FF001021A6124
:102420002046FEF78FFDC1E76FF080021A6120465B
:1024300000F0A1F8C3E76FF040021A612046FFF7F1
:102440004AFFC5E76FF020021A61204600F092F8BB
:10245000C7E700000368304A904212D0B0F1804FC5
:102460000FD0A2F57C4290420BD002F580629042E0
:1024700007D002F58062904203D002F57842904284
:1024800003D123F070034A681343234A90422AD0B1
:10249000B0F1804F27D0A2F57C42904223D002F5C4
:1024A000806290421FD002F5806290421BD002F5FC
:1024B0007842904217D002F57052904213D002F544
:1024C000806290420FD002F5806290420BD0A2F55C
:1024D0009832904207D002F58062904203D002F514
:1024E0008062904203D123F44073CA68134323F0FF
:1024F00080034A69134303608B68C3620B6883627D
:10250000054B984203D003F58063984201D10B69D3
:1025100003630123436170470000014040B310B5DD
:10252000044690F83D30F3B1022384F83D30214653
:1025300051F8040BFFF78EFF012384F8463084F82E
:102540003E3084F83F3084F8403084F8413084F8DD
:10255000423084F8433084F8443084F8453084F8BD
:102560003D30002010BD80F83C30FFF76BFEDBE70C
:102570000120704770477047034AD2F8883043F40F
:102580007003C2F88830704700ED00E000F10803E6
:1025900043604FF0FF328260C36003610023036039
:1025A000704700230361704743684B609A688A60F4
:1025B000516099600861036801330360704730B46B
:1025C0000D68B5F1FF3F11D000F108031C465B68B0
:1025D0001A68AA42FAD963684B6099608C6061609E
:1025E000086103680133036030BC70470469F2E797
:1025F0000369416882688A60416851605A68824212
:1026000006D0002202611A68013A1A601868704701
:1026100082685A60F5E70346406A18B11B6B186878
:10262000C0F10700704710B5044601F063F9A36BD1
:1026300023B9012401F080F9204610BD0024F9E7F8
:1026400038B5054601F056F995F8454064B201E009
:10265000013C64B2002C0ADD6B6A43B105F1240031
:1026600000F00CFE0028F3D000F09CFEF0E7FF2302
:1026700085F8453001F060F901F03CF995F84440E7
:1026800064B201E0013C64B2002C0ADD2B6943B165
:1026900005F1100000F0F2FD0028F3D000F082FEFA
:1026A000F0E7FF2385F8443001F046F938BD38B52E
:1026B000E0B10D46044601F01DF92368E26B216C80
:1026C00001FB0230A0600020A0636360013A02FBBE
:1026D0000133E360FF2384F8443084F84530FDB9CA
:1026E000236963B901F028F9012038BD4FF0500388
:1026F00083F31188BFF36F8FBFF34F8FFEE704F1B1
:10270000100000F0BBFD0028ECD04FF0E0234FF0AC
:102710008052C3F8042DBFF34F8FBFF36F8FE1E7F3
:1027200004F11000FFF732FF04F12400FFF72EFF41
:10273000D8E710B5034602980C4631B90060C36370
:1027400004640121FFF7B3FF10BD0260F7E740B951
:102750004FF0500383F31188BFF36F8FBFF34F8F98
:10276000FEE7F0B583B00D461446064601FB00F0C7
:10277000483000F097FF074650B1002380F84630FC
:102780000090234600F1480229463046FFF7D1FF6A
:10279000384603B0F0BD68B170B50C460546036C11
:1027A0008BB14FF0500383F31188BFF36F8FBFF3EA
:1027B0004F8FFEE74FF0500383F31188BFF36F8F05
:1027C000BFF34F8FFEE70368EBB101F0B9F9EFF308
:1027D00011864FF0500383F31188BFF36F8FBFF35F
:1027E0004F8FAA6BEB6B934226D995F845305BB2BD
:1027F0000132AA63B3F1FF3F11D001335BB285F818
:102800004530012019E08368002BDED04FF05003E3
:1028100083F31188BFF36F8FBFF34F8FFEE76B6AAF
:102820000BB9012009E005F1240000F027FD38B1C3
:1028300044B10120206000E0002086F3118870BDC3
:102840000120FAE70120F8E770B584B0019158B192
:102850000446036C8BB14FF0500383F31188BFF330
:102860006F8FBFF34F8FFEE74FF0500383F3118854
:10287000BFF36F8FBFF34F8FFEE700F099FD054662
:1028800050B9019B5BB14FF0500383F31188BFF344
:102890006F8FBFF34F8FFEE70026354655E00646A3
:1028A00053E0013BA36323683BB123694BB901F0BB
:1028B00043F80126304604B070BD00F039FEA06038
:1028C000F3E704F1100000F0D9FC0028EFD04FF03E
:1028D000E0234FF08052C3F8042DBFF34F8FBFF3B6
:1028E0006F8FE4E746B14FF0500383F31188BFF3D5
:1028F0006F8FBFF34F8FFEE701F01EF8DAE702A8F3
:1029000000F002FD01252AE0002384F8443032E083
:10291000002384F8453034E000F0ECFFA06800F0BC
:1029200057FD064601F008F83BE02046FFF788FE19
:1029300000F09EFB09E02046FFF782FE00F098FBC6
:102940002046FFF770FE002842D100F0D3FFA36BB2
:10295000002BA6D1019B002BC4D0002DCFD000F0BE
:10296000EBFF00F0F1FA00F0C5FF94F844305BB2E1
:10297000B3F1FF3FC8D094F845305BB2B3F1FF3FED
:10298000C6D000F0D9FF01A902A800F0C9FC0028B8
:10299000D1D12046FFF747FE0028C6D02368002B80
:1029A000BAD0019904F1240000F050FC2046FFF752
:1029B00047FE00F05DFB0028C7D14FF0E0234FF049
:1029C0008052C3F8042DBFF34F8FBFF36F8FBCE766
:1029D0000EB900266EE700F08DFF2046FFF71BFEC4
:1029E0000146A06800F04AFD00F0A6FFF1E70000F4
:1029F000084B1B681B6823B9074B4FF0FF321A6066
:102A00007047044B1B68DB68DB685A68024B1A602E
:102A1000704700BFB80400208C0500202DE9F04766
:102A200007469846089DDDF824900A9C266B02F123
:102A30008042013A06EB820626F0070600293AD0CA
:102A40008E464FF0000CBCF10F0F0BD81EF80C2077
:102A500004EB0C0383F834201EF80C3013B10CF196
:102A6000010CF0E7002384F84330062D00D9062539
:102A7000E56265644FF0000AC4F848A0201DFFF726
:102A800090FD04F11800FFF78CFD2461C5F10705E6
:102A9000A5616462C4F84CA084F850A0424639464F
:102AA000304600F0F9FE2060B9F1000F01D0C9F8FE
:102AB0000040BDE8F087002384F83430D5E70000FB
:102AC00038B5002407E004EB840293000E48184454
:102AD000FFF75CFD0134062CF5D90C4D2846FFF7B5
:102AE00055FD0B4C2046FFF751FD0A48FFF74EFD00
:102AF0000948FFF74BFD0948FFF748FD084B1D60EB
:102B0000084B1C6038BD00BFC004002060050020D9
:102B10007405002098050020C4050020B0050020A1
:102B2000B8040020BC04002010B5044600F0E2FE0A
:102B3000214A136801331360204B1B685BB1204BA3
:102B40001B686BB91D4B1B68DA6AE36A9A4207D8A7
:102B50001A4B1C6004E0194B1C601368012B28D031
:102B6000184A136801331360E06A01238340164A50
:102B700011680B43136000EB8000211D134B03EB26
:102B80008000FFF711FD00F0D7FE0D4B1B687BB1F5
:102B90000A4B1B68DA6AE36A9A4209D24FF0E023D3
:102BA0004FF08052C3F8042DBFF34F8FBFF36F8FE8
:102BB00010BDFFF785FFD3E74C050020B4040020CB
:102BC000AC050020580500205C050020C004002052
:102BD00010B5044690F8513063B1012B11D0022B8F
:102BE0000ED04FF0500383F31188BFF36F8FBFF304
:102BF0004F8FFEE7006B00F0D3FD204600F0D0FDC4
:102C000010BD00F0CDFDFBE70F4B1B68D3B110B535
:102C100000F070FE0D4BDB68DC68201DFFF7E8FC60
:102C20000B4A1368013B1360074A1368013B1360AA
:102C300000F082FE2046FFF7CBFF034B1B68002B02
:102C4000E6D110BD704700BF50050020C40500202C
:102C50004C05002008B5FFF7D7FF074B1B68012B79
:102C6000F9D94FF0E0234FF08052C3F8042DBFF3A1
:102C70004F8FBFF36F8FEEE7C004002070B504469E
:102C80000D461D4B1E681D4B18680430FFF7B0FC45
:102C900050B91A4B1B68DA6A012303FA02F2184989
:102CA0000B6823EA02030B60B4F1FF3F0DD03444FC
:102CB000124B1B685C60A64210D9124B18680F4B70
:102CC00019680431FFF77BFC70BD002DEFD00B4B72
:102CD000196804310C48FFF767FCF5E70B4B1868DF
:102CE000064B19680431FFF76AFC094B1B68A342C5
:102CF000EAD9074B1C60E7E7D8050020B4040020A0
:102D00005C050020BC040020B0050020B8040020B1
:102D10008C05002030B587B00B9C7CB10C9DB5B103
:102D200054250495049D542D1AD04FF0500383F37D
:102D30001188BFF36F8FBFF34F8FFEE74FF0500343
:102D400083F31188BFF36F8FBFF34F8FFEE74FF010
:102D5000500383F31188BFF36F8FBFF34F8FFEE7EC
:102D6000049D0C9D2C63022485F85140002403949B
:102D7000029505AC01940A9C0094FFF74FFE0C9855
:102D8000FFF7D2FE059807B030BD2DE9F04385B0BE
:102D90000746884614461E46900000F083FC00B3A8
:102DA0008146542000F07EFC0546B0B1C0F830905A
:102DB000E5B1002385F85130039302950D9B0193F3
:102DC0000C9B00933346224641463846FFF726FEC9
:102DD0002846FFF7A9FE012005E0484600F0E0FC88
:102DE000E6E74FF0FF3005B0BDE8F0834FF0FF306D
:102DF000F9E7000038B5044600F07CFD002C33D024
:102E0000251D2846FFF7F4FB68B9E26A02EB82034E
:102E10009B002749CB5833B90123934025490A68C1
:102E200022EA03020A60A36A1BB104F11800FFF74B
:102E3000DFFB214A136801331360204B1B68A34258
:102E400015D01F4A1368013B13602046FFF7C0FEF0
:102E5000FFF7CEFD00F070FD1A4B1B681BB1174B3E
:102E60001B68A3420CD038BD144B1C68C8E7294628
:102E70001548FFF799FB154A136801331360E9E71A
:102E8000134B1B6843B14FF0500383F31188BFF31A
:102E90006F8FBFF34F8FFEE74FF0E0234FF080526C
:102EA000C3F8042DBFF34F8FBFF36F8FDBE700BF75
:102EB000C00400205C05002058050020B404002058
:102EC0004C050020AC050020C40500205005002062
:102ED0005405002010B588B000240594069407AA74
:102EE00006A905A8FEF76AF9059B0293069B0193C4
:102EF00000942346079A0E490E48FFF70BFF0E4B2E
:102F0000186090B14FF0500383F31188BFF36F8FB7
:102F1000BFF34F8F094B4FF0FF321A60084B01226D
:102F20001A60084B1C6000F07FFD08B010BD00BFA8
:102F30005C740008552C0008880500208C050020D2
:102F4000AC050020D8050020024A13680133136045
:102F5000704700BF54050020F8B53A4B1B68002BA2
:102F600069D1394B1D6801351D60C5B9374B1B68E8
:102F70001B6843B14FF0500383F31188BFF36F8F89
:102F8000BFF34F8FFEE7314A1168314B186810606C
:102F90001960304A136801331360FFF729FD2E4B87
:102FA0001B68AB423DD900272C4B1B68DB6A03EB47
:102FB00083039A002A4B9B58012B00D90127294BE8
:102FC0001B68002B3CD001273AE001271F4B1B68F0
:102FD0001B6843B31D4B1B68DB68DC6863689D425C
:102FE00026D3261D3046FFF703FBA36A1BB104F16D
:102FF0001800FFF7FDFAE36A01229A401A490868AF
:1030000002430A6003EB83039A00314614481044DC
:10301000FFF7CAFAE26A114B1B68DB6A9A42D4D204
:10302000D4E70027D2E70C4B4FF0FF321A60BBE722
:10303000094A1360B8E70D4A13680133136000278B
:103040003846F8BD54050020D8050020B8040020FB
:10305000BC040020900500208C050020B404002052
:10306000C0040020DC0500205C0500209405002041
:1030700038B5354B1B6843B94FF0500383F31188C3
:10308000BFF36F8FBFF34F8FFEE700F033FC2E4B83
:103090001A68013A1A601B68002B4FD12B4B1B6832
:1030A0000BB900244BE00024294B1B681BB3284BB1
:1030B000DB68DC6804F11800FFF79AFA251D284642
:1030C000FFF796FAE06A01238340224A11680B4316
:1030D000136000EB800029461F4B03EB8000FFF7D5
:1030E00063FAE26A1D4B1B68DB6A9A42DCD31C4B15
:1030F00001221A60D8E70CB1FFF77AFC194B1C6863
:1031000084B9174B1C68D4B14FF0E0234FF08052C4
:10311000C3F8042DBFF34F8FBFF36F8F01240EE070
:10312000013C07D0FFF718FF0028F9D00C4B012213
:103130001A60F5E70B4B00221A60E2E7002400F06A
:10314000FBFB204638BD00BF540500204C05002085
:10315000980500205C050020C0040020B404002075
:10316000DC0500209405002010B5A8B10446104BE2
:103170001B6843B14FF0500383F31188BFF36F8F87
:10318000BFF34F8FFEE7FFF7DFFE00212046FFF77A
:1031900075FDFFF76DFF48B94FF0E0234FF0805207
:1031A000C3F8042DBFF34F8FBFF36F8F10BD00BF67
:1031B00054050020204B1B681BB1204B01221A60D4
:1031C00070471E4B00221A601D4B1B68B3FA83F335
:1031D000DBB2C3F11F0303EB83018A0019498A584C
:1031E00042B94FF0500383F31188BFF36F8FBFF3E1
:1031F0004F8FFEE7134903EB830082000A445068B7
:103200004068506003EB830C4FEA8C020832114493
:10321000884209D003EB83039A000A4B13445B688E
:10322000DA68094B1A607047406862469100054AA7
:103230000A445060EEE700BF54050020DC05002082
:103240005C050020C0040020B404002058B110B573
:103250000C46094A11681831FFF7B1F901212046DF
:10326000FFF70CFD10BD4FF0500383F31188BFF33F
:103270006F8FBFF34F8FFEE7B404002038B5C368EB
:10328000DC6824B304F118052846FFF7B1F9184BA0
:103290001B682BBB251D2846FFF7AAF9E06A01230E
:1032A0008340144A11680B43136000EB80002946E9
:1032B000114B03EB8000FFF777F9E26A0F4B1B68B5
:1032C000DB6A9A4211D901200D4B186038BD4FF0CE
:1032D000500383F31188BFF36F8FBFF34F8FFEE767
:1032E00029460848FFF760F9E7E70020EEE700BF4E
:1032F000540500205C050020C0040020B404002018
:10330000DC05002098050020034B1B680360034B7D
:103310001B684360704700BF90050020D80500205F
:10332000F8B5C8B10C460546F9B100F0E3FA1B4BFD
:1033300019686B68C81A2268B2F1FF3F26D0184E90
:1033400036682F68B74201D08B4224D9824215D803
:103350000023236001241AE04FF0500383F3118807
:10336000BFF36F8FBFF34F8FFEE74FF0500383F330
:103370001188BFF36F8FBFF34F8FFEE75B1A1344C3
:1033800023602846FFF7C0FF002400E0002400F07F
:10339000D3FA2046F8BD0124F9E700BFD805002084
:1033A00090050020014B01221A607047DC050020C7
:1033B000054B1B6833B1054B1B680BB100207047F0
:1033C0000220704701207047AC0500205405002002
:1033D000002849D038B50446C36A254A1268D26A23
:1033E000934239D28269002A05DB214A1268D26AE7
:1033F000C2F107028261616903EB83031D4A02EB9C
:103400008303994205D01A4B1B68DB6AE3620120F3
:1034100038BD251D2846FFF7EBF840B9E26A0123C5
:1034200003FA02F214490B6823EA02030B60104B03
:103430001B68D86AE062012404FA00F30E4A11689E
:103440000B43136000EB800029460A4B03EB80001E
:10345000FFF7AAF82046DBE7426C054B1B68DB6AE6
:103460009A4203D30020D3E7002070470120CFE722
:10347000B4040020C00400205C050020002850D0C7
:1034800038B50446836C43B94FF0500383F3118879
:10349000BFF36F8FBFF34F8FFEE7426C8A4200D2BB
:1034A0000A46E16A914201D0012B00D038BD1D4B84
:1034B0001B68A3422CD0E262A369002B02DBC2F19D
:1034C0000702A261626901EB8101174B03EB8101E5
:1034D0008A42EBD1251D2846FFF78AF840B9E26AF7
:1034E000012303FA02F211490B6823EA02030B607D
:1034F000E06A012383400D4A11680B43136000EB1F
:1035000080002946084B03EB8000FFF74DF8CDE71C
:103510004FF0500383F31188BFF36F8FBFF34F8FCA
:10352000FEE77047B4040020C00400205C050020C2
:10353000054B1B6823B1044B1A68936C01339364E9
:10354000014B1868704700BFB4040020842801D0E4
:10355000033070470020704708B5FFF7BBFC002020
:1035600008BD2DE9F04387B004460F464569BDB15B
:103570008669AEB1D0F80480D0F80090B0F90800A8
:10358000FFF7E4FF0296019500903B462269494609
:103590004046FFF7BFFB0590059807B0BDE8F083F4
:1035A00065682668D4F81080B4F90800FFF7CEFFEC
:1035B00005AB019300903B461FFA88F2314628463E
:1035C000FFF7E3FB0128E7D00020E6E708B500B9E4
:1035D0000120FFF7C9FD002008BD0000124A12F0CB
:1035E000070F1ED0D11D21F00701C1F57053134400
:1035F0000A460E480260002141601344083B23F054
:1036000007030B48036059601960991A51601360F1
:10361000084B1960084B1960084B4FF000421A60C4
:1036200070474FF47053E4E7E4050020F8410020B0
:10363000E0050020EC410020E8410020E4410020AA
:10364000164B1A461B688342FBD3516802EB010CF0
:10365000844509D0416800EB010C634509D0036043
:10366000904219D010607047406801445160104684
:10367000F0E710B40A4C2468A3420BD05B681944ED
:10368000416013681B680360904200D010605DF8D1
:10369000044B70470460F7E7704700BFF841002013
:1036A000E005002070B50546FFF74EFC364B1B6861
:1036B000A3B1364B1B681D424ED135B1083515F00C
:1036C000070F02D025F007050835002D46D0304BF6
:1036D0001B68AB4251D32F4A146804E0FFF77EFF0A
:1036E000E7E722461C466368AB4202D22368002B00
:1036F000F7D1254B1B68A34241D0166808362368D2
:10370000136063685B1B102B10D9601910F0070F52
:1037100008D04FF0500383F31188BFF36F8FBFF3CE
:103720004F8FFEE743606560FFF78AFF62681849C4
:103730000B689B1A0B60184909688B4201D2164925
:103740000B60124B1B681343636000232360134A12
:1037500013680133136002E0002600E00026FFF743
:1037600087FC16F0070F0CD04FF0500383F311883D
:10377000BFF36F8FBFF34F8FFEE70026EFE7002602
:10378000EDE7304670BD00BFE0050020E4410020B9
:10379000E8410020F8410020EC410020F0410020E9
:1037A000002834D038B50446A0F1080550F8043C90
:1037B000174A1268134208D14FF0500383F311885F
:1037C000BFF36F8FBFF34F8FFEE750F8081C41B176
:1037D0004FF0500383F31188BFF36F8FBFF34F8F08
:1037E000FEE723EA020340F8043CFFF7ADFB54F880
:1037F000041C084A13680B4413602846FFF720FF97
:10380000054A136801331360FFF732FC38BD704777
:10381000E4410020E8410020F441002082B0002370
:1038200001930D4B1B68B3F1FF3F08D04FF05003DD
:1038300083F31188BFF36F8FBFF34F8FFEE74FF015
:10384000500383F31188BFF36F8FBFF34F8F019B3A
:10385000002BFCD002B070470C0000200848006824
:10386000006880F308884FF0000080F3148862B687
:1038700061B6BFF34F8FBFF36F8F00DF00BF000053
:1038800008ED00E0DFF80C00016841F47001016010
:103890007047000088ED00E04FF0807340F8043C72
:1038A00021F0010140F8081C054B40F80C3C40F8A1
:1038B000202C6FF0020340F8243C4438704700BFCE
:1038C0001D3800080000000000000000000000009B
:1038D000074B19680868B0E8F04F80F30988BFF318
:1038E0006F8F4FF0000080F311887047AFF30080B6
:1038F000B40400204FF0500383F31188BFF36F8F9F
:10390000BFF34F8F0B4A136801331360012B00D0B4
:1039100070474FF0E023D3F8043D13F0FF0FF7D0CA
:103920004FF0500383F31188BFF36F8FBFF34F8FB6
:10393000FEE700BF0C000020094B1B6843B94FF0A5
:10394000500383F31188BFF36F8FBFF34F8FFEE7F0
:10395000013B034A13600BB983F31188704700BF22
:103960000C0000200000000000000000000000002B
:10397000EFF30980BFF36F8F154B1A681EF0100F1D
:1039800008BF20ED108A20E9F04F10602DE90900F2
:103990004FF0500080F31188BFF34F8FBFF36F8F4C
:1039A000FFF708FC4FF0000080F3118809BC19688C
:1039B0000868B0E8F04F1EF0100F08BFB0EC108A96
:1039C00080F30988BFF36F8F704700BFAFF30080AB
:1039D000B404002008B54FF0500383F31188BFF3FF
:1039E0006F8FBFF34F8FFFF7B7FA28B14FF0E02387
:1039F0004FF08052C3F8042D002383F3118808BDD3
:103A00004FF0E022002313619361054B1B680549C9
:103A1000A1FB03139B09013B53610723136170470B
:103A200008000020D34D62104FF0E023D3F8002DA2
:103A30003D4B9A421CD04FF0E023D3F8002D3B4B76
:103A40009A421ED030B583B0394B1A78D2B2019267
:103A5000FF221A701B78DBB28DF803309DF803301B
:103A600003F05003334A1370334B07221A601BE0F4
:103A70004FF0500383F31188BFF36F8FBFF34F8F65
:103A8000FEE74FF0500383F31188BFF36F8FBFF34E
:103A90004F8FFEE7284A1368013B13609DF80330FF
:103AA0005B00DBB28DF803309DF8033013F0800F1C
:103AB000F0D1214B1B68032B08D04FF0500383F348
:103AC0001188BFF36F8FBFF34F8FFEE71B021A4AB7
:103AD000136003F4E0631360019BDBB2144A1370BC
:103AE0004FF0E024D4F8203D43F47003C4F8203DA7
:103AF000D4F8203D43F07043C4F8203DFFF780FF29
:103B000000250E4B1D60FFF7BDFED4F8343F43F097
:103B10004043C4F8343FFFF7A1FEFFF74BFBFFF72C
:103B20007DFE284603B030BD71C20F4170C20F4107
:103B300000E400E000420020044200200C000020CD
:103B4000EFF305830F2B0FD9114A9B5CDBB2114AAF
:103B500012789A4208D94FF0500383F31188BFF3CB
:103B60006F8FBFF34F8FFEE74FF0E023D3F80C3D8C
:103B700003F4E063084A1268934208D94FF05003F7
:103B800083F31188BFF36F8FBFF34F8FFEE770474A
:103B9000F0E300E0004200200442002010B582B0B3
:103BA00004468DF804004FF6FF73012201A9034873
:103BB00000F01DFB204602B010BD00BFC84200202F
:103BC00070B50C461646002504E014F8010BFFF70B
:103BD000E5FF0135B542F8DB304670BD08B50A484F
:103BE0000A4B03604FF4E133436000238360C360FA
:103BF0000361042242618361C36100F0C9FA00B924
:103C000008BDFDF7ABF9FBE750430020004C004036
:103C100008B50A480A4B03604FF4E13343600023C0
:103C20008360C36003610C2242618361C36100F061
:103C3000AFFA00B908BDFDF791F9FBE7C8420020D3
:103C40000010014008B50A480A4B03604FF4E13305
:103C5000436000238360C36003610C22426183617F
:103C6000C36100F095FA00B908BDFDF777F9FBE7ED
:103C70000C4300200048004030B58DB004460023BE
:103C80000793089309930A930B930368594A934245
:103C900007D0594A934243D0584A934264D00DB05A
:103CA00030BD00250195564B1A6C42F400221A646F
:103CB0001A6C02F400220192019A02951A6B42F0EA
:103CC00004021A631B6B03F004030293029B4FF47C
:103CD00040630793022308930123099303230A9364
:103CE00008230B9307A94748FDF7C0FE4648474BFA
:103CF00003604FF0006343608560C5604FF48063EC
:103D0000036145618561C56105624562FEF730F872
:103D100018B93D4BA3639C63C1E7FDF71FF9F8E7B2
:103D200000210391364B5A6C42F010025A645A6CCF
:103D300002F010020392039A04911A6B42F00102FE
:103D40001A631B6B03F001030493049B4FF4C063DD
:103D500007930223089303230A9307230B9307A9CE
:103D60002B48FDF783FE9AE700250595244B1A6C36
:103D700042F480221A641A6C02F480220592059A99
:103D800006951A6B42F008021A631B6B03F00803D6
:103D90000693069B4FF44073079302230893032373
:103DA0000A9307230B9307A91A48FDF75FFE1A48E9
:103DB0001A4B03604FF0006343608560C5604FF4A9
:103DC0008063036145618561C56105624562FDF7F8
:103DD000CFFF58B9104BA3639C6300220521272015
:103DE000FEF7BEF92720FEF7F3F958E7FDF7B6F81E
:103DF000F0E700BF004C00400010014000480040C8
:103E000000380240000802400842002040600240A2
:103E100000000240000C024068420020286002407E
:103E200008B5124C01212046FDF718FF4FF4FA7037
:103E3000FFF79AF902212046FDF710FF4FF4FA70C0
:103E4000FFF792F904212046FDF708FF4FF4FA70BE
:103E5000FFF78AF908212046FDF700FF4FF4FA70BA
:103E6000FFF782F9024801F0F1F9DAE700080240B1
:103E70006474000808B5002301E00133DBB25A2B5B
:103E800035D81946C25C3A2AF7D103F15902825C4F
:103E90000D2AF2D103F15A02825C0A2AEDD11333C2
:103EA000C25C154B1A7001F11402825C5A7001F168
:103EB0001502825C9A7001F11602825CDA70D3F806
:103EC00000C00E4AC2F800C001F14702825C1A70BD
:103ED00001F14802825C5A7001F14902825C9A70D9
:103EE0004A31425CDA701A68054B1A6002E00548F4
:103EF00001F0ACF908BD00BF9443002054440020F9
:103F0000504400206C74000808B5144B1A68D3683C
:103F100043F01003D36009E0114B00221A701148DE
:103F2000FFF7A8FF4FF4FA70FFF71EF9B6220D490C
:103F30000A4800F019FC0A4B01221A7064210A4B4E
:103F40001868FEF781FC0128E6D00028EAD1044B6E
:103F500000221A70054801F079F9E3E75043002088
:103F60004E44002098430020FC0100207474000897
:103F70000268D36823F0C003D360202380F83D306B
:103F800070470268D36823F49073D3600268536962
:103F900023F001035361036B012B05D0202380F82C
:103FA0003E300023036370470268D36823F0100398
:103FB000D360F3E790F83D30DBB2212B01D0022033
:103FC00070478368B3F5805F17D0036A5A1C02629A
:103FD0001A7803685A60C38C9BB2013B9BB2C384BE
:103FE0004BB90268D36823F08003D3600268D368BA
:103FF00043F04003D360002070470369002BE4D1F5
:10400000036A1B880268C3F308035360036A023320
:104010000362E0E738B504460268136923F44053AD
:10402000C1680B43136183680269134342691343F8
:10403000C2691A430168CB6823F4164323F00C03CA
:104040001343CB600268536923F4407381690B43C7
:1040500053610368314A934206D002F5806293426D
:1040600002D0FDF7C5FC01E0FDF7D2FCE369B3F532
:10407000004F29D00021031849411B1841F10001CC
:10408000C90041EA5371DB00181863684FEA8302E4
:104090004FEA937341F10001FCF786FD204DA5FB2B
:1040A00000325109642303FB11031B013233A5FBCA
:1040B00003235B0903F0F00202EB011203F00F038C
:1040C000216813448B6038BD0023021843EB0301C1
:1040D000121841F10001C90041EA5271D2001018D2
:1040E00041F10001626892185B41FCF75DFD0C4DE7
:1040F000A5FB00325109642303FB1103DB003233BB
:10410000A5FB03235B095A0002F4F87202EB0112CB
:1041100003F00703216813448B60D4E700100140CB
:104120001F85EB512DE9F84305460F461646994683
:10413000DDF820802C68246837EA04030CBF4FF0B8
:10414000010C4FF0000CB4451FD1B8F1FF3FF1D086
:10415000B8F1000F05D0FEF76FF8A0EB090040455D
:10416000E8D92A68D36823F4D073D3602A685369E6
:1041700023F001035361202385F83D3085F83E305C
:10418000002385F83C30032000E00020BDE8F883E0
:1041900058B310B5044690F83D300BB3242384F88F
:1041A0003D302268D36823F40053D3602046FFF7E4
:1041B00031FF2268136923F4904313612268536925
:1041C00023F02A0353612268D36843F40053D36079
:1041D00000202064202384F83D3084F83E3010BD58
:1041E00080F83C30FFF748FDD8E7012070472DE903
:1041F000F04182B01E4690F83D30DBB2202B54D106
:1042000004460D469046002953D0002A53D090F81A
:104210003C30012B51D0012380F83C300023036453
:10422000212380F83D30FEF707F80746A4F82480E4
:10423000A4F82680A368B3F5805F05D04FF000088E
:10424000002384F83C3012E0236913B14FF00008DA
:10425000F6E7A8460025F3E738F8023B2268C3F3E7
:1042600008035360E28C92B2013A92B2E284E38C8A
:104270009BB273B100963B46002280212046FFF797
:1042800051FFE0B9002DE7D015F8012B23685A60E3
:10429000E8E700963B46002240212046FFF742FF18
:1042A00078B9202384F83D3000E0022002B0BDE858
:1042B000F0810120FAE70120F8E70220F6E7032069
:1042C000F4E70320F2E710B5044601684A6990F864
:1042D0003D30DBB2212B0AD021684A6902F040024E
:1042E00094F83E30DBB2222B11D0002010BD02F03A
:1042F0008002002AF0D04B6923F080034B61406BB1
:1043000008B1FDF7D0FD2046FFF732FEE4E7002AB2
:10431000EBD04B6923F040034B61A06B08B1FDF774
:10432000C2FD2046FFF72DFEDFE7704708B50168A4
:10433000CA6822F04002CA60202280F83D20FFF7C0
:10434000F4FF002008BD70477047704710B5846BBC
:1043500023685A6994F83D30DBB2212B10D02368D2
:104360005A6902F0400294F83E30DBB2222B11D0A1
:10437000236C43F0100323642046FFF7E6FF10BDD3
:1043800002F08002002AEAD00023E3842046FFF7EF
:10439000EFFDE4E7002AEBD00023E3852046FFF79A
:1043A000F0FDE5E708B5806B0023C385C384FFF704
:1043B000CCFF08BD704790F83E30DBB2222B53D1C2
:1043C00010B504468368B3F5805F30D0A26AB3F5B8
:1043D000805F04D0002B37D12369002B34D12368B0
:1043E0005B681370A36A0133A362E38D9BB2013B48
:1043F0009BB2E385002B39D12268D36823F02003D8
:10440000D3602268D36823F48073D3602268536931
:1044100023F001035361202384F83E30236B012BEA
:1044200018D02046FFF78FFF0020206310BD0269DF
:10443000002ACBD1826A03685B68C3F30803138048
:10444000836A02338362D0E723685B6803F07F03EB
:104450001370C7E72268D36823F01003D360A18DDF
:104460002046FFF7A7FFDFE7022070470020DDE7C7
:1044700030B583B0044602681368D068516913F000
:104480000F0505D113F0200F02D010F0200F19D125
:104490002DB111F0010119D110F4907F16D1216BCB
:1044A000012975D013F0800F03D010F0800F40F079
:1044B000D88013F0400F03D010F0400F40F0D580AB
:1044C00003B030BD2046FFF776FFF9E713F0010F88
:1044D00006D010F4807F03D0226C42F001022264E7
:1044E00013F0040F04D019B1226C42F002022264CE
:1044F00013F0020F04D019B1226C42F004022264BE
:1045000013F0080F07D010F0200F00D119B1226C62
:1045100042F008022264226C002AD1D013F0200F4E
:1045200002D010F0200F21D123685B6903F0400313
:10453000226C12F0080F00D123B32046FFF721FDB3
:1045400023685A6912F0400F18D05A6922F04002CD
:104550005A61A36B73B1474A1A65A06BFDF7EDFC76
:104560000028ADD0A06B036D9847A9E72046FFF760
:1045700022FFD9E72046FFF7E8FEA1E72046FFF734
:10458000E4FE9DE72046FFF7E0FE0023236497E763
:1045900013F0100F86D010F0100F83D0002301937A
:1045A0001368019353680193019B536913F0400F03
:1045B00033D0A16B0B685B689BB2002B80D0A08DC1
:1045C00098427FF67DAFE385CB69B3F5807F08D154
:1045D000A18DE38D9BB2C91A89B22046FFF7EAFE8E
:1045E0006EE7D36823F48073D3602268536923F0A5
:1045F000010353612268536923F040035361202370
:1046000084F83E30002323632268D36823F010032C
:10461000D360A06BFDF747FCDAE7A18DE38D9BB279
:10462000C91A89B2E38D9BB2002B3FF449AF002930
:104630003FF446AFD36823F49073D3602268536984
:1046400023F001035361202384F83E3000232363C9
:104650002268D36823F01003D3602046FFF7AAFE38
:104660002EE72046FFF7A6FC2AE72046FFF75EFE6E
:1046700026E700BFA543000808B5806B036B012B3C
:1046800002D0FFF761FE08BD818D4908FFF792FE59
:10469000F9E708B50346806B1B681B6813F4807F3D
:1046A00016D10023C3850268D36823F48073D360D6
:1046B0000268536923F0010353610268536923F0D0
:1046C00040035361202380F83E30036B012B05D05B
:1046D000036B012B08D0FFF736FE08BD0268D368D4
:1046E00023F01003D360F3E7818DFFF763FEF4E757
:1046F00030B583B004461346816282850025056487
:10470000222280F83E20826B1448D063A26B1448AA
:104710001064A26B1348D064A26B156520680A462A
:10472000011DA06BFDF78AFB019523681A680192B1
:104730005A680192019A84F83C50DA6842F4807217
:10474000DA602268536943F00103536122685369B8
:1047500043F040035361284603B030BD9346000840
:10476000794600084D43000808B590F83E30DBB2AA
:10477000202B0DD171B17AB190F83C30012B0DD0C6
:10478000012380F83C3000230363FFF7B1FF00E012
:10479000022008BD0120FCE70120FAE70220F8E72B
:1047A00000B583B000220192094B196B41F400114E
:1047B00019631B6B03F400130193019B06210C206A
:1047C000FDF7CEFC0C20FDF703FD03B05DF804FB04
:1047D00000380240DFF834D00D480E490E4A00235D
:1047E00002E0D458C4500433C4188C42F9D30B4AA5
:1047F0000B4C002301E013600432A242FBD3FDF70F
:10480000BBFE00F011F8FCF7FFFB70470000022030
:1048100000000020E0010020AC780008E00100204A
:104820006C440020FEE7000070B50D4D0D4C641B7C
:10483000A4100026A64209D10B4D0C4C02F0B4FD89
:10484000641BA4100026A64205D170BD55F8043B98
:1048500098470136EEE755F8043B98470136F2E7F2
:10486000A4780008A4780008A4780008A8780008B4
:104870000A44914200F1FF3300D1704710B511F89E
:10488000014B03F8014F9142F9D110BD0244034698
:10489000934200D1704703F8011BF9E72DE9FF4768
:1048A00055EC104B002D0E4619462B46BBBF05F1AB
:1048B00000431D4600232D230B700D9BDDF830A017
:1048C000914623F02008BCBF22461446B8F1460F9B
:1048D00005D0B8F1450F00D10136022100E00321D7
:1048E00003AB019302AB009345EC104B53463246A9
:1048F00000F002FEB8F1470F074602D119F0010F90
:1049000022D0B8F1460F07EB060910D13B78302BC7
:104910000AD10022002320462946FCF7D5F818B911
:10492000C6F10106CAF80060DAF8003099440022A6
:10493000002320462946FCF7C7F808B1CDF80C90B3
:104940003022039B4B4507D3039B0E9ADB1B384653
:10495000136004B0BDE8F087591C03911A70F0E7AA
:10496000F7B503460029B8BF494203F8022BB4BF8C
:104970002D222B22092942702ADD0DF10704A446BD
:104980000A27A6460A4691FBF7F607FB16153035AF
:10499000632A04F1FF340EF8015C3146F1DC30315A
:1049A000AEF1020504F8011C441C294661450AD3F6
:1049B0000DF10902A2EB0E02654588BF00221344E7
:1049C000181A03B0F0BD11F8012B04F8012FEDE720
:1049D000302330318370C170031DF1E72DE9F04FB2
:1049E0002DED028B8DB00C46DDF8608016461F461B
:1049F000054601F027FDD0F800A05046FBF7E8FB84
:104A000000230A9323680593D8F8003094F818B06F
:104A1000073323F0070303F10802C8F80020D3E9A5
:104A20000023C4E91223D4E9128929F00043079333
:104A3000CDF8188008EE100A9F4BDDE906014FF013
:104A4000FF32FCF773F888BBDDE906019A4B4FF0A3
:104A5000FF32FCF74DF848BB002200234046494690
:104A6000FCF73CF810B12D2384F84330934B944865
:104A7000BBF1470F94BF9846804603232361059BF3
:104A800023F0040222604FF00009009733460BAA7E
:104A90002146284600F0D8F9013040F090804FF0D0
:104AA000FF300DB0BDEC028BBDE8F08F42464B46A7
:104AB00040464946FCF73AF840B14B46002BBCBF94
:104AC0002D2384F843307F487F4BD1E763680BF098
:104AD000DF0206925A1C3FD106236360059B616882
:104AE00043F48062002303930AABCDE901B309AB21
:104AF00049EC108B009322600DF123032846FFF749
:104B0000CDFE069B0999472B804608D1C81C02DBC5
:104B10006368994241DDABF1020B5FFA8BFBBBF19D
:104B2000650F20D801395A4604F150000991FFF76A
:104B300017FF0A9A1318012A8146236102DC2268B2
:104B4000D20701D5013323619DF82330002B9CD07F
:104B50002D2384F8433098E7069A472ABED1002BCC
:104B6000BCD10123B9E7BBF1660F18D100296368F6
:104B70000BDD216113B92268D00702D501330B4444
:104B80002361A1654FF00009DEE713B92268D2075F
:104B900001D50233F4E70123F2E74FF0670B0A9BDC
:104BA000994205DB23682161D807EAD54B1CE7E76A
:104BB0000029D4BFC1F1020201221344E0E72368B7
:104BC0005A0507D42369424631462846B847013082
:104BD0002CD164E7BBF1650F40F2E080D4E912010B
:104BE00000220023FBF770FF002834D0374A01234E
:104BF00031462846B84701303FF451AFDDE909237B
:104C00009A4202DB2368D80710D518EE103A5246B4
:104C100031462846B84701303FF441AF4FF0000815
:104C200004F11A090A9B013B434509DC23689B07F1
:104C300000F10581E0680B9B9842B8BF184630E749
:104C400001234A4631462846B84701303FF427AF92
:104C500008F10108E6E7099B002B39DC1B4A012318
:104C600031462846B84701303FF419AFDDE9092342
:104C7000134302D12368D907D8D518EE103A52460B
:104C800031462846B84701303FF409AF4FF00009DC
:104C900004F11A0A099B5B424B4501DC0A9B92E72F
:104CA0000123524631462846B84701303FF4F7AE5B
:104CB00009F10109EEE700BFFFFFEF7F80740008F4
:104CC000847400088C7400088874000890740008CC
:104CD0000A9AA36D9A42A8BF1A46002A914637DC69
:104CE0004FF0000B29EAE97904F11A02A36D05934C
:104CF000A3EB09035B4533DCDDE909239A423BDB87
:104D00002368DA0738D40A9B059A09999A1AA3EB03
:104D100001099145A8BF9146B9F1000F35DC4FF06C
:104D2000000829EAE97904F11A0ADDE909239B1A46
:104D3000A3EB090343457FF779AF01235246314680
:104D40002846B84701303FF4AAAE08F10108ECE765
:104D50001346314642462846B8470130C0D19EE648
:104D60000123314628460592B84701303FF497AEFB
:104D7000059A0BF1010BB9E718EE103A524631468D
:104D80002846B8470130BED189E6059A4B464244D1
:104D900031462846B8470130C1D180E60A9A012A37
:104DA00001DCDB0738D50123424631462846B847A7
:104DB00001303FF474AE18EE103A524631462846A0
:104DC000B84701303FF46BAED4E912010022002352
:104DD000FBF77AFED8B90A9B08F10102013B314684
:104DE0002846B84701300ED159E6012352463146D4
:104DF0002846B84701303FF452AE08F101080A9B3B
:104E0000013B4345F1DC4B4604F15002DCE64FF038
:104E1000000804F11A0AF2E701234246DFE7012302
:104E20004A4631462846B84701303FF438AE08F1CB
:104E30000108E3680B995B1A4345F0DCFAE64FF092
:104E4000000804F11909F4E72DE9F04716469946E0
:104E50008A680B69DDF820809342B8BF134633603F
:104E600091F8432007460C460AB1013333602368AA
:104E7000990642BF336802333360256815F0060592
:104E800006D104F1190AE36832689B1AAB4226DCAA
:104E900094F84320131E226818BF012392062BD4D6
:104EA00004F1430249463846C04701301ED023680A
:104EB000E568326803F00603042B08BFAD1AA36847
:104EC00022690CBF25EAE57500259342C4BF9B1AF1
:104ED000ED1800261A34B5421AD1002008E001234B
:104EE000524649463846C047013003D14FF0FF30A3
:104EF000BDE8F0870135C6E7E1185A1C302081F87B
:104F00004300224494F8451082F843100233C7E767
:104F10000123224649463846C0470130E6D00136D3
:104F2000D9E700002DE9FF470F7E0C9D782F9146B1
:104F300080460C469A4601F1430207D8622F0AD8F0
:104F4000002F00F0D880582F00F0A38004F1420514
:104F500084F842703AE0A7F16303152BF6D801A15B
:104F600051F823F0BD4F0008D14F00084D4F000805
:104F70004D4F00084D4F00084D4F0008D14F00081D
:104F80004D4F00084D4F00084D4F00084D4F000891
:104F9000DD50000801500008BF5000084D4F0008C8
:104FA0004D4F0008FF5000084D4F00080150000809
:104FB0004D4F00084D4F0008C75000082B681A1DC0
:104FC0001B682A6004F1420584F842300123A3E003
:104FD00020682968060601F104030AD50E682B60D3
:104FE000002E03DA2D23764284F843305E480A23EC
:104FF00019E00E682B6010F0400F18BF36B2EFE7D3
:105000002B682068191D2960010601D51E6802E081
:105010004606FBD51E8854486F2F0CBF08230A2371
:10502000002184F843106568A560002DA2BF2168A7
:1050300021F0040121600EB9002D4DD01546B6FBBC
:10504000F3F103FB1167C75D05F8017D3746BB42ED
:105050000E46F4D9082B0BD12368DE0708D5236947
:1050600061689942DEBF302305F8013C05F1FF3548
:10507000521B2261CDF800A04B4603AA21464046B0
:10508000FFF7E2FE01304CD14FF0FF3004B0BDE835
:10509000F087354881F845702968236851F8046B1A
:1050A00029601D0614D5DF0744BF43F020032360A9
:1050B0001EB9236823F0200323601023B0E7236880
:1050C00043F0200323607823284884F84530E3E741
:1050D000590648BFB6B2E6E71546BBE72B68266817
:1050E0006169181D286035061B6801D5196002E04A
:1050F0007006FBD51980002323611546BAE72B689B
:105100001A1D2A601D68626800212846FBF768F8AE
:1051100008B1401B606063682361002384F843305A
:10512000A8E723692A4649464046D0470130ABD01C
:1051300023689B0713D4E068039B9842B8BF1846C6
:10514000A4E70123324649464046D04701309BD070
:105150000135E36803995B1AAB42F2DCEBE700250B
:1051600004F11906F5E700BF92740008A374000863
:1051700070B50E46054618B183690BB901F0C4F845
:10518000AB69AC6813B9284601F0BEF82C4B9C42C1
:1051900020D16C68636EDB0705D4A389980502D41F
:1051A000A06D01F054F9A38919071DD52369DBB15E
:1051B000013EA36816F8011F013BA36039BB002B19
:1051C00038DA22460A21284600F048F8013011D08A
:1051D0000A2511E01B4B9C4201D1AC68DAE71A4B5F
:1051E0009C4208BFEC68D5E72146284600F088F8C5
:1051F0000028DDD04FF0FF35636EDA0705D4A389B0
:105200009B0502D4A06D01F023F9284670BD002B48
:1052100004DAA2699A4206DC0A2904D023685A1CDF
:1052200022601970C5E72246284600F017F80130C1
:10523000BFD1DFE723680A255A1C22601D70DBE717
:1052400088750008A875000868750008024B0146BB
:105250001868FFF78DBF00BF10000020F8B50E469C
:105260001446054618B183690BB901F04DF8214B7E
:105270009C422BD16C68A369A360A3891A072FD520
:1052800023696BB323692068C01A6369F6B283424D
:10529000374604DC2146284600F0A2FF30BBA36855
:1052A000013BA36023685A1C22601E7063690130B1
:1052B000834204D0A389DB0706D50A2E04D12146F8
:1052C000284600F08DFF88B93846F8BD0A4B9C424D
:1052D00001D1AC68CFE7094B9C4208BFEC68CAE734
:1052E0002146284600F00CF80028CBD04FF0FF37BD
:1052F000EAE700BF88750008A8750008687500080F
:10530000324B70B51D6806460C4625B1AB6913B922
:10531000284600F0F9FF2E4B9C420FD16C68A38900
:10532000B4F90C2019072CD4DD0611D409233360FD
:1053300042F04003A3814FF0FF303EE0254B9C42FA
:1053400001D1AC68EBE7244B9C4208BFEC68E6E770
:10535000580712D5616B41B104F14403994202D060
:10536000304601F077FC00236363A38923F0240314
:10537000A3810023636023692360A38943F00803AA
:10538000A38123694BB9A38903F42073B3F5007F8C
:1053900003D02146304601F081F8A089B4F90C20F1
:1053A00010F001030AD00023A36063695B42A3618C
:1053B000236943B910F08000BAD170BD810758BF8E
:1053C0006369A360F4E70020F7E700BF1000002046
:1053D00088750008A8750008687500082DE9F74F62
:1053E00003690C69A3420746C0F28180013C01F1C8
:1053F000140800F1140505EB8403019358F82430D8
:1054000055F8242001339A424FEA840B08EB8409B3
:10541000B2FBF3F631D34FF0000E4046AC46F246F5
:1054200050F8042B93B206FB03E34FEA134E9BB2F2
:10543000AAEB0303120CDCF800A006FB02E213FA4D
:105440008AF34FEA124E1FFA82FADCF80020CAEB08
:10545000124202EB23429BB243EA024381454CF8DD
:10546000043B4FEA224ADBD255F80B302BB9019BA3
:10547000043B9D421A462ED33C61384601F0D8FACF
:10548000002824DB013628464FF0000C58F8042B86
:10549000D0F800E093B2ACEB0303120C13FA8EF3D6
:1054A000C2EB1E4202EB23429BB243EA0243C145D8
:1054B00040F8043B4FEA224CE8D255F8242005EB93
:1054C000840322B9043B9D421A460AD33C6130460C
:1054D00003B0BDE8F08F1268043B002ACCD1013C38
:1054E000C7E71268043B002AF0D1013CEBE700203B
:1054F000EEE70000000000002DE9F04F2DED048BD9
:1055000057EC106B93B0456ADDF88080069110EE81
:1055100010AA044609920C93BB4675B9102000F0FE
:10552000FDFF0246606220B9A74BEA21A74801F0BF
:105530009DFCC0E901550560C560636A196851B1F9
:105540005A684A60012393408B60204601F02EF890
:10555000636A00221A603B1EAABF002323F0004B9F
:10556000C8F800309A4BBCBF0122C8F8002033EACB
:105570000B031BD10C9A42F20F731360CBF313038E
:10558000334300F09285219B63B9924B22E0924B0A
:1055900001930833219A1360019813B0BDEC048B7A
:1055A000BDE8F08F8B4B01930333F3E70022002318
:1055B00050465946FBF788FA4BEC19AB804658B178
:1055C0000C9A01231360219B002B00F06B8583480C
:1055D0001860431E0193DFE74BEC10AB10AA11A932
:1055E000204601F0CBFACBF30A5508EE100A002D45
:1055F00000F0848019EE903AC3F3130343F07F5711
:10560000564647F44017A5F2FF35CDF83880744B65
:10561000002230463946FAF737FE65A3D3E9002366
:10562000FAF7EAFF64A3D3E90023FAF72FFE064650
:1056300028460F46FAF776FF61A3D3E90023FAF76D
:10564000DBFF02460B4630463946FAF71FFE064698
:105650000F46FBF781FA00220090002330463946BE
:10566000FBF73CFA50B10098FAF75CFF32463B4634
:10567000FBF72AFA10B9009B013B0093009B162B05
:105680005AD8009A574B03EBC203D3E9002351ECDD
:10569000190BFBF723FA002850D0009B013B009325
:1056A00000230B93109B5D1B6B1E059345BFC5F13B
:1056B00001030493002300234CBF05930493009B34
:1056C000002B3DDB059B009A0A92134405930023AF
:1056D0000793069B092B00F28980052BC4BF043B6E
:1056E0000693069BA3F10203CCBF00250125032BE3
:1056F00000F28780DFE803F02D3A3859DDE91053D6
:105700001D4405F23243202BC1BFC3F1400305F213
:1057100012400BFA03F326FA00F0DABFC3F12003BC
:1057200006FA03F01843FAF7EDFE01230646A1F14D
:10573000F877013D0E936AE70123B2E70B90B1E7DA
:10574000049B009A9B1A04935342079300230A93E5
:10575000BFE700230893099B002B55DC0123CDE90B
:1057600002331A4609920CE00123F3E70023099A59
:105770000893009B134402930133012B0393B8BF9A
:105780000123606A00224260042202F114069E4254
:1057900041683DD9204600F0C9FE019000283BD168
:1057A000114B02464FF4D571C0E60123DFE700BF7D
:1057B00061436F63A787D23FB3C8608B288AC63F17
:1057C000FB799F501344D33FC1740008D87400087C
:1057D0000000F07FBD740008B474000891740008E4
:1057E0000000F83F70760008557500080125002379
:1057F000069308954FF0FF33CDE9023300221223C0
:10580000B0E701230893F5E7099BCDE90233B8E738
:10581000013141605200B8E7636A019A1A60039B44
:105820000E2B00F29D80002D00F09A80009B002B33
:1058300032DDB74A03F00F0302EBC303D3E900895B
:10584000009BD8054FEA231716D5B24B51EC190B24
:10585000D3E90823FAF7FAFF07F00F0782468B46D1
:105860000325AC4E57B942464B4650465946FAF7C7
:10587000EDFF82468B4628E00225F2E7F90708D5BE
:1058800040464946D6E90023FAF7B6FE0135804680
:1058900089467F100836E5E700F09B80009B9D4F0E
:1058A0005E429B4B06F00F0203EBC203D3E90023D9
:1058B00051EC190BFAF7A0FE361182468B460023F5
:1058C0000225002E7AD1002BD3D10B9B002B00F0A8
:1058D0008280914B002250465946FBF7FFF8002882
:1058E00079D0039B002B76D0029B002B36DD009BEA
:1058F000504659465F1E0022884BFAF77DFE029EF5
:1059000082468B4601352846FAF70CFE52465B4626
:10591000FAF772FE824B0022FAF7B8FCD046D9465D
:105920008246A1F1507B002E58D17E4B002240468A
:105930004946FAF7A9FC52465B4680468946FBF782
:10594000EBF8002840F0958252460BF100434046A8
:105950004946FBF7C3F8002840F089825BEC19AB9D
:10596000119B002BC0F24881009A0E2A00F344815B
:10597000674B03EBC203D3E90089099B002B80F23C
:10598000D580039B002B00F3D18040F06F82654BE4
:10599000002240464946FAF72FFE52465B46FBF787
:1059A000B1F8039E3746002840F04582019D31231F
:1059B00005F8013B009B0133009340E2F20705D557
:1059C000D7E90023FAF718FE0135012376100837CE
:1059D00077E7022579E7009F039E94E701994C4BF6
:1059E00031440D91089903EBC60353E902230029C2
:1059F00043D04D490020FAF729FF52465B46FAF79B
:105A000043FC019D82468B4649464046FBF7A4F87D
:105A10000646FAF787FD02460B4640464946FAF726
:105A200033FC303605F8016B52465B4680468946AA
:105A3000FBF754F8002863D142464B463649002014
:105A4000FAF722FC52465B46FBF748F8002840F084
:105A5000B5800D9B9D4281D0304B00225046594667
:105A6000FAF7CAFD2D4B82468B4640464946002236
:105A7000FAF7C2FD80468946C6E750465946FAF70E
:105A8000BBFD0D9B019D0F9382468B4649464046C8
:105A9000FBF762F80646FAF745FD303602460B463C
:105AA00040464946FAF7F0FB05F8016B0D9B9D4215
:105AB000804689464FF0000224D11B4B5046594680
:105AC000FAF7E4FB02460B4640464946FBF724F84A
:105AD000002873D152465B4613490020FAF7D4FBE5
