:020000040800F2
:1000000000000220FD1A0008790600087B0600089F
:100010007D0600087F060008810600080000000039
:10002000000000000000000000000000A116000811
:100030008306000800000000D116000835170008EC
:100040004D1B00084D1B00084D1B00084D1B0008F0
:100050004D1B00084D1B00084D1B00084D1B0008E0
:100060004D1B00084D1B00084D1B00084D1B0008D0
:100070004D1B00084D1B00084D1B00084D1B0008C0
:100080004D1B00084D1B00084D1B00084D1B0008B0
:100090004D1B00084D1B00084D1B00084D1B0008A0
:1000A0004D1B0008850600084D1B00084D1B00086D
:1000B0004D1B00084D1B00084D1B00084D1B000880
:1000C0004D1B00084D1B00084D1B00084D1B000870
:1000D0004D1B00084D1B00084D1B00084D1B000860
:1000E0004D1B00084D1B00084D1B00084D1B000850
:1000F0004D1B00084D1B00084D1B00084D1B000840
:100100004D1B00084D1B00084D1B00084D1B00082F
:100110004D1B00084D1B00084D1B00084D1B00081F
:100120004D1B00084D1B00084D1B00084D1B00080F
:100130004D1B00084D1B00084D1B00084D1B0008FF
:100140004D1B00084D1B00084D1B00084D1B0008EF
:100150004D1B00084D1B00084D1B00084D1B0008DF
:100160004D1B00084D1B00084D1B00084D1B0008CF
:100170004D1B00084D1B00084D1B0008000000002F
:080180004D1B00084D1B000897
:1001900010B5054C237833B9044B13B10448AFF3C1
:1001A00000800123237010BD7000002000000000BB
:1001B0009C25000808B5034B1BB103490348AFF366
:1001C000008008BD00000000740000209C2500088D
:1001D00053B94AB9002908BF00281CBF4FF0FF31AE
:1001E0004FF0FF3000F074B9ADF1080C6DE904CEAA
:1001F00000F006F8DDF804E0DDE9022304B0704702
:100200002DE9F047089D04468E46002B4DD18A42C9
:10021000944669D9B2FA82F252B101FA02F3C2F1FC
:10022000200120FA01F10CFA02FC41EA030E94408D
:100230004FEA1C48210CBEFBF8F61FFA8CF708FBAE
:1002400016E341EA034306FB07F199420AD91CEB86
:10025000030306F1FF3080F01F81994240F21C81B8
:10026000023E63445B1AA4B2B3FBF8F008FB103300
:1002700044EA034400FB07F7A7420AD91CEB040435
:1002800000F1FF3380F00A81A74240F20781644405
:10029000023840EA0640E41B00261DB1D44000238A
:1002A000C5E900433146BDE8F0878B4209D9002DEE
:1002B00000F0EF800026C5E9000130463146BDE878
:1002C000F087B3FA83F6002E4AD18B4202D38242E2
:1002D00000F2F980841A61EB030301209E46002D91
:1002E000E0D0C5E9004EDDE702B9FFDEB2FA82F2E6
:1002F000002A40F09280A1EB0C014FEA1C471FFA44
:100300008CFE0126200CB1FBF7F307FB131140EA2A
:1003100001410EFB03F0884208D91CEB010103F1F7
:10032000FF3802D2884200F2CB804346091AA4B2B9
:10033000B1FBF7F007FB101144EA01440EFB00FE8D
:10034000A64508D91CEB040400F1FF3102D2A645F2
:1003500000F2BB800846A4EB0E0440EA03409CE791
:10036000C6F12007B34022FA07FC4CEA030C20FA3E
:1003700007F401FA06F31C43F9404FEA1C4900FA5E
:1003800006F3B1FBF9F8200C1FFA8CFE09FB1811DB
:1003900040EA014108FB0EF0884202FA06F20BD94E
:1003A0001CEB010108F1FF3A80F08880884240F29E
:1003B0008580A8F102086144091AA4B2B1FBF9F0E2
:1003C00009FB101144EA014100FB0EFE8E4508D9DD
:1003D0001CEB010100F1FF346CD28E456AD9023862
:1003E000614440EA0840A0FB0294A1EB0E01A14247
:1003F000C846A64656D353D05DB1B3EB080261EBB5
:100400000E0101FA07F722FA06F3F1401F43C5E98E
:10041000007100263146BDE8F087C2F12003D840C4
:100420000CFA02FC21FA03F3914001434FEA1C4706
:100430001FFA8CFEB3FBF7F007FB10360B0C43EAF8
:10044000064300FB0EF69E4204FA02F408D91CEBA8
:10045000030300F1FF382FD29E422DD902386344A6
:100460009B1B89B2B3FBF7F607FB163341EA034146
:1004700006FB0EF38B4208D91CEB010106F1FF3895
:1004800016D28B4214D9023E6144C91A46EA00468C
:1004900038E72E46284605E70646E3E61846F8E61E
:1004A0004B45A9D2B9EB020864EB0C0E0138A3E767
:1004B0004646EAE7204694E74046D1E7D0467BE748
:1004C000023B614432E7304609E76444023842E7C0
:1004D000704700BF08B50268034B9A4200D008BDC0
:1004E00000F006FEFBE700BF0000014072B6FEE729
:1004F00000B595B03022002108A801F04DFB002383
:10050000039304930593069307930193204A116C78
:1005100041F080511164126C02F080520192019AF4
:1005200002931C4B1A6842F480421A601B6803F461
:1005300080430293029B012308934FF48033099375
:1005400002220E924FF480030F9304231093A821EC
:1005500011911292139308A800F0FCF898B90F2398
:10056000039302230493002305934FF4A0530693AF
:100570004FF480530793052103A800F051FB20B9E5
:1005800015B05DF804FBFFF7B1FFFFF7AFFF00BF49
:10059000003802400070004008B500F08FFDFFF702
:1005A000A7FF00F02BF801F0FBF8124C01212046C8
:1005B00000F022FD4FF4FA7000F0ACFD022120465D
:1005C00000F01AFD4FF4FA7000F0A4FD042120465B
:1005D00000F012FD4FF4FA7000F09CFD0821204657
:1005E00000F00AFD4FF4FA7000F094FD024801F0AB
:1005F00049FBDAE700080240B425000830B589B0AD
:100600000024039404940594069407940094184BD2
:100610001A6B42F004021A631A6B02F00402009291
:10062000009A01941A6B42F080021A631A6B02F06E
:1006300080020192019A02941A6B42F001021A633D
:100640001B6B03F001030293029B0A4D01220F2151
:10065000284600F0CBFC0F2303930123049305935A
:10066000069403A9284600F0CFFB09B030BD00BFB7
:100670000038024000080240FEE7FEE7FEE7FEE722
:10068000FEE7704708B5024800F0A2FD08BD00BFB4
:100690008C00002000B583B0002200920D4B596CF5
:1006A00041F480415964596C01F4804100910099F2
:1006B0000192196C41F0805119641B6C03F0805356
:1006C0000193019B0F216FF0010000F0B1FC03B01A
:1006D0005DF804FB0038024010B588B001460022E6
:1006E000192000F0A5FC192000F0DAFC0024019488
:1006F000144B5A6C42F001025A645B6C03F0010324
:100700000193019B02A903A800F060FB00F04EFBDF
:1007100043000D48A0FB03239B0C013B0B480C4AF4
:10072000026040F2E732C26043600461846000F01E
:1007300071FE10B1012008B010BD044800F000FDAA
:10074000F9E700BF0038024083DE1B438C00002025
:1007500000000140002800F0E08170B582B004463E
:10076000036813F0010F3BD09F4B9B6803F00C0311
:10077000042B2CD09C4B9B6803F00C03082B21D03E
:100780006368B3F5803F4FD0B3F5A02F52D0964B9E
:100790001A6822F480321A601A6822F480221A60E1
:1007A0006368002B50D000F0AFFC05468E4B1B68F1
:1007B00013F4003F14D100F0A7FC401B6428F5D9C6
:1007C0000320B1E1884B5B6813F4800FD8D0864BCF
:1007D0001B6813F4003F03D06368002B00F09F8177
:1007E000236813F0020F54D07F4B9B6813F00C0F5B
:1007F0003ED07D4B9B6803F00C03082B33D0E3689D
:10080000002B68D0794B01221A6000F07DFC054670
:10081000754B1B6813F0020F54D100F075FC401BA0
:100820000228F5D903207FE16F4A136843F480332F
:100830001360B5E76C4B1A6842F480221A601A689C
:1008400042F480321A60ABE700F05EFC0546664B6E
:100850001B6813F4003FC3D000F056FC401B642813
:10086000F5D9032060E1604B5B6813F4800FC6D1BB
:100870005D4B1B6813F0020F03D0E368012B40F0BF
:100880005081594A136823F0F803216943EAC103F0
:100890001360236813F0080F42D063696BB3534BA6
:1008A0000122C3F8802E00F02FFC05464E4B5B6FF3
:1008B00013F0020F34D100F027FC401B0228F5D9B9
:1008C000032031E1484A136823F0F803216943EA21
:1008D000C1031360DDE7454B00221A6000F014FCF1
:1008E0000546414B1B6813F0020FD2D000F00CFC00
:1008F000401B0228F5D9032016E13C4B0022C3F827
:10090000802E00F001FC0546374B5B6F13F0020FA1
:1009100006D000F0F9FB401B0228F5D9032003E1C3
:10092000236813F0040F77D02F4B1B6C13F0805FFC
:1009300033D1002301932C4B1A6C42F080521A647D
:100940001B6C03F080530193019B0125284B1B680E
:1009500013F4807F23D0A368012B34D0052B38D02B
:10096000214B1A6F22F001021A671A6F22F004025B
:100970001A67A368002B3DD000F0C6FB06461A4B51
:100980001B6F13F0020F46D100F0BEFB801B41F23B
:1009900088339842F3D90320C6E00025D6E7144AED
:1009A000136843F48073136000F0AEFB0646104BEF
:1009B0001B6813F4807FCED100F0A6FB801B0228B9
:1009C000F5D90320B0E0084A136F43F00103136721
:1009D000CFE7054B1A6F42F004021A671A6F42F014
:1009E00001021A67C5E700BF003802400000474215
:1009F0000070004000F088FB0646524B1B6F13F05E
:100A0000020F08D000F080FB801B41F2883398422F
:100A1000F3D9032088E0EDB9A369002B00F08380AF
:100A2000484A926802F00C02082A51D0022B17D0D3
:100A3000454B00221A6600F067FB0446414B1B68D9
:100A400013F0007F42D000F05FFB001B0228F5D9B5
:100A5000032069E03B4A136C23F080531364DBE707
:100A6000394B00221A6600F04FFB0546354B1B68D8
:100A700013F0007F06D000F047FB401B0228F5D999
:100A8000032051E0E369226A1343626A43EA821356
:100A9000A26A5208013A43EA0243E26A43EA026365
:100AA000284A5360284B01221A6600F02DFB0446A9
:100AB000244B1B6813F0007F06D100F025FB001BC0
:100AC0000228F5D903202FE000202DE000202BE0A4
:100AD000012B2BD01B4B5B6803F48001E269914230
:100AE00026D103F03F02216A8A4223D1616A47F688
:100AF000C0721A40B2EB811F1ED103F44031A26ACA
:100B00005208013AB1EB024F18D103F07063E26A68
:100B1000B3EB026F14D1002006E0012070470120E2
:100B200002E0012000E0002002B070BD0120FBE7E0
:100B30000120F9E70120F7E70120F5E70120F3E7BD
:100B40000120F1E7003802400000474208B5314B70
:100B50009B6803F00C03042B57D0082B57D12D4B67
:100B60005A6802F03F025B6813F4800F2AD0294BC9
:100B70005968C1F3881C4FEA4C11B1EB0C006EEBC5
:100B80000E0E4FEA8E1343EA90638101091A63EB5C
:100B90000E03DB0043EA5173C90011EB0C0C43F167
:100BA0000003590200234FEA4C2041EADC51FFF7D1
:100BB0000FFB184B5B68C3F3014301335B00B0FBD1
:100BC000F3F025E0134B5968C1F3881C4FEA4C1130
:100BD000B1EB0C006EEB0E0E4FEA8E1343EA9063FE
:100BE0008101091A63EB0E03DB0043EA5173C9006C
:100BF00011EB0C0C43F10003990200234FEA8C2007
:100C000041EA9C51FFF7E4FAD3E7034800E00348C8
:100C100008BD00BF0038024000127A000024F40032
:100C2000002800F09B8070B50D4604464F4B1B68B2
:100C300003F007038B4208D2CBB24C4A13701368FF
:100C400003F007038B4240F08B80236813F0020F00
:100C500017D013F0040F04D0454A936843F4E053CF
:100C60009360236813F0080F04D0414A936843F45B
:100C7000604393603E4A936823F0F003A1680B43FE
:100C80009360236813F0010F32D06368012B21D0E9
:100C90009A1E012A25D9364A126812F0020F61D035
:100CA00033498A6822F0030213438B6000F02CFA68
:100CB00006462F4B9B6803F00C036268B3EB820F70
:100CC00016D000F021FA801B41F288339842F0D907
:100CD000032042E0264A126812F4003FE0D10120CE
:100CE0003BE0234A126812F0007FD9D1012034E0A2
:100CF0001E4B1B6803F00703AB4207D9EAB21B4B3C
:100D00001A701B6803F00703AB422DD1236813F060
:100D1000040F06D0164A936823F4E053E1680B43AE
:100D20009360236813F0080F07D0114A936823F4E7
:100D30006043216943EAC1039360FFF707FF0C4B4F
:100D40009B68C3F303130B4AD35CD8400A4B18606B
:100D50000A4B1868FFF7C0FC002070BD01207047E7
:100D60000120FAE70120F8E70120F6E7003C024005
:100D700000380240C42500080800002004000020BC
:100D8000014B1868704700BF0800002008B5FFF746
:100D9000F7FF044B9B68C3F38223034AD35CD8401C
:100DA00008BD00BF00380240D425000808B5FFF791
:100DB000E7FF044B9B68C3F34233034AD35CD8403C
:100DC00008BD00BF00380240D42500080F2303608F
:100DD0000B4B9A6802F0030242609A6802F0F0023C
:100DE00082609A6802F4E052C2609B68DB0803F4F8
:100DF000E0530361034B1B6803F007030B6070476C
:100E000000380240003C024000230F2B00F2E48037
:100E100070B582B060E085685E000324B44025EAC6
:100E20000405CC68B4402C438460456825EA02057B
:100E30004C68C4F300129A402A4342605AE0DC082E
:100E4000083450F8246003F0070295000F22AA40EE
:100E500026EA020E0A69AA4042EA0E0240F824205D
:100E60005CE0072200E0002202FA0EF22A4302347C
:100E70005A4D45F824205A4A14686FEA0C0224EAB5
:100E80000C054E6816F4803F01D04CEA0405544C22
:100E90002560646802EA04054E6816F4003F01D03C
:100EA0004CEA04054E4C6560A46802EA04054E68ED
:100EB00016F4801F01D04CEA0405494CA560E46893
:100EC00022404D6815F4001F01D04CEA0402444C46
:100ED000E26001330F2B7DD801229A400C6804EAAE
:100EE000020C32EA0404F4D14C6804F00304013C1F
:100EF000012C90D94A6802F00302032A09D0C46881
:100F00005D000322AA4024EA02048A68AA40224320
:100F1000C2604A6802F00302022A90D004684FEAD5
:100F2000430E032202FA0EF224EA02044A6802F097
:100F3000030202FA0EF2224302604A6812F0805F56
:100F4000C7D000220192274A546C44F48044546470
:100F5000526C02F480420192019A9C08A51C1F4A1F
:100F600052F8255003F003024FEA820E0F2202FAD4
:100F70000EF225EA02051C4A90423FF474AF02F5D6
:100F8000806290421AD002F58062904218D002F539
:100F90008062904216D002F58062904214D002F531
:100FA0008062904212D002F58062904210D002F529
:100FB000806290423FF455AF082255E7012253E783
:100FC000022251E703224FE704224DE705224BE7B7
:100FD000062249E702B070BD704700BF00380140EB
:100FE000003C014000380240000002400AB181612B
:100FF0007047090481617047436901EA030221EAED
:10100000030141EA0241816170470000074AD36849
:1010100023F4E0631B041B0C000200F4E0600343B4
:1010200043F0BF6343F40033D360704700ED00E04A
:1010300000B5194BDB68C3F30223C3F1070CBCF105
:10104000040F28BF4FF0040C03F1040EBEF1060F8D
:1010500018D9033B4FF0FF3E0EFA0CFC21EA0C01BD
:1010600099400EFA03F322EA0303194300280BDB2D
:101070000901C9B200F1604000F5614080F8001339
:101080005DF804FB0023E5E700F00F000901C9B299
:10109000024B1954F4E700BF00ED00E014ED00E04E
:1010A000002807DB00F01F02400901239340024A99
:1010B00042F82030704700BF00E100E008B50B4B5C
:1010C0001A6842F400721A601A6842F480621A6068
:1010D0001A6842F480721A600320FFF797FF00201D
:1010E000FFF7FAFAFFF7D6FA002008BD003C0240ED
:1010F000034A1168034B1B780B441360704700BF11
:10110000D400002000000020014B1868704700BF89
:10111000D400002038B50446FFF7F6FF0546B4F1C9
:10112000FF3F02D0044B1B781C44FFF7EDFF401B30
:10113000A042FAD338BD00BF000000207047000075
:1011400090F83D30DBB2012B37D1022380F83D30DF
:101150000268D36843F00103D3600368194A9342DD
:1011600020D0B3F1804F1DD0A2F57C42934219D01C
:1011700002F58062934215D002F58062934211D04D
:1011800002F5784293420DD002F57052934209D095
:10119000A2F59432934205D01A6842F001021A6017
:1011A000002070479A6802F00702062A07D01A68E2
:1011B00042F001021A6000207047012070470020B1
:1011C000704700BF0000014070477047704770478C
:1011D00010B5044603681A6912F0020F11D0DA68DC
:1011E00012F0020F0DD06FF002021A610123037793
:1011F00003689B6913F0030F70D0FFF7E6FF00232D
:10120000237723681A6912F0040F12D0DA6812F0FB
:10121000040F0ED06FF004021A61022323772368B3
:101220009B6913F4407F5FD02046FFF7CEFF002379
:10123000237723681A6912F0080F12D0DA6812F0C7
:10124000080F0ED06FF008021A6104232377236879
:10125000DB6913F0030F4ED02046FFF7B6FF0023E3
:10126000237723681A6912F0100F12D0DA6812F08F
:10127000100F0ED06FF010021A6108232377236835
:10128000DB6913F4407F3DD02046FFF79EFF00232B
:10129000237723681A6912F0010F03D0DA6812F07D
:1012A000010F36D123681A6912F0800F03D0DA6873
:1012B00012F0800F34D123681A6912F0400F03D066
:1012C000DA6812F0400F32D123681A6912F0200F49
:1012D00003D0DA6812F0200F30D110BDFFF774FF91
:1012E0002046FFF773FF8AE72046FFF76DFF204691
:1012F000FFF76CFF9BE72046FFF766FF2046FFF7EE
:1013000065FFACE72046FFF75FFF2046FFF75EFF73
:10131000BDE76FF001021A612046FFF7DBF8C1E775
:101320006FF080021A61204600F0A1F8C3E76FF069
:1013300040021A612046FFF74AFFC5E76FF020021E
:101340001A61204600F092F8C7E700000368304AAF
:10135000904212D0B0F1804F0FD0A2F57C42904263
:101360000BD002F58062904207D002F58062904275
:1013700003D002F57842904203D123F070034A680B
:101380001343234A90422AD0B0F1804F27D0A2F5D0
:101390007C42904223D002F5806290421FD002F539
:1013A000806290421BD002F57842904217D002F53D
:1013B0007052904213D002F5806290420FD002F535
:1013C000806290420BD0A2F59832904207D002F58D
:1013D0008062904203D002F58062904203D123F4F0
:1013E0004073CA68134323F080034A6913430360C0
:1013F0008B68C3620B688362054B984203D003F588
:101400008063984201D10B690363012343617047F4
:101410000000014040B310B5044690F83D30F3B1F0
:10142000022384F83D30214651F8040BFFF78EFF6C
:10143000012384F8463084F83E3084F83F3084F845
:10144000403084F8413084F8423084F8433084F8E6
:10145000443084F8453084F83D30002010BD80F8D9
:101460003C30FFF76BFEDBE70120704770477047A9
:10147000034AD2F8883043F47003C2F888307047CA
:1014800000ED00E043684B609A688A6051609960A3
:10149000086103680133036070470369416882682B
:1014A0008A60416851605A68824206D00022026117
:1014B0001A68013A1A601868704782685A60F5E73E
:1014C000084B1B681B6823B9074B4FF0FF321A60AB
:1014D0007047044B1B68DB68DB685A68024B1A6074
:1014E000704700BFDC00002078010020F8B53A4BBF
:1014F0001B68002B69D1394B1D6801351D60C5B9CA
:10150000374B1B681B6843B14FF0500383F31188BE
:10151000BFF36F8FBFF34F8FFEE7314A1168314B36
:10152000186810601960304A136801331360FFF7C0
:10153000C7FF2E4B1B68AB423DD900272C4B1B68C5
:10154000DB6A03EB83039A002A4B9B58012B00D9DB
:101550000127294B1B68002B3CD001273AE00127CB
:101560001F4B1B681B6843B31D4B1B68DB68DC68A3
:1015700063689D4226D3261D3046FFF78EFFA36A7F
:101580001BB104F11800FFF788FFE36A01229A40BB
:101590001A49086802430A6003EB83039A00314644
:1015A00014481044FFF76EFFE26A114B1B68DB6AB8
:1015B0009A42D4D2D4E70027D2E70C4B4FF0FF3247
:1015C0001A60BBE7094A1360B8E70D4A1368013394
:1015D000136000273846F8BD700100208401002008
:1015E000DC000020E00000207C01002078010020C9
:1015F000D8000020E40000208801002074010020B1
:1016000080010020204B1B681BB1204B01221A6077
:1016100070471E4B00221A601D4B1B68B3FA83F300
:10162000DBB2C3F11F0303EB83018A0019498A5817
:1016300042B94FF0500383F31188BFF36F8FBFF3AC
:101640004F8FFEE7134903EB830082000A44506882
:101650004068506003EB830C4FEA8C02083211445F
:10166000884209D003EB83039A000A4B13445B685A
:10167000DA68094B1A607047406862469100054A73
:101680000A445060EEE700BF70010020880100208E
:1016900074010020E4000020D800002000000000B9
:1016A000074B19680868B0E8F04F80F30988BFF36A
:1016B0006F8F4FF0000080F311887047AFF3008008
:1016C000D800002000000000000000000000000022
:1016D000EFF30980BFF36F8F154B1A681EF0100FE0
:1016E00008BF20ED108A20E9F04F10602DE90900B5
:1016F0004FF0500080F31188BFF34F8FBFF36F8F0F
:10170000FFF780FF4FF0000080F3118809BC1968D3
:101710000868B0E8F04F1EF0100F08BFB0EC108A58
:1017200080F30988BFF36F8F704700BFAFF300806D
:10173000D800002008B54FF0500383F31188BFF3A1
:101740006F8FBFF34F8FFFF7D1FE28B14FF0E0232B
:101750004FF08052C3F8042D002383F3118808BD95
:1017600010B582B004468DF804004FF6FF730122D5
:1017700001A9034800F055F9204602B010BD00BF92
:101780008C01002070B50C461646002504E014F8C4
:10179000010BFFF7E5FF0135B542F8DB304670BDC0
:1017A00008B50A480A4B03604FF4E1334360002355
:1017B0008360C3600361082242618361C36100F0FA
:1017C00001F900B908BDFEF791FEFBE78C0100208E
:1017D0000010014000B589B00023039304930593E2
:1017E00006930793026803F1804303F588339A4216
:1017F00002D009B05DF804FB0021019103F5943398
:101800005A6C42F010025A645A6C02F010020192B3
:10181000019A02911A6B42F001021A631B6B03F0EA
:1018200001030293029B4FF4C063039302230493CA
:10183000032306930723079303A90248FFF7E4FA5B
:10184000D7E700BF0000024038B5044602681369BC
:1018500023F44053C1680B43136183680269134347
:1018600042691343C2691A430168CB6823F41643E3
:1018700023F00C031343CB600268536923F44073D5
:1018800081690B4353610368314A934206D002F5E4
:101890008062934202D0FFF779FA01E0FFF786FAFF
:1018A000E369B3F5004F29D00021031849411B1803
:1018B00041F10001C90041EA5371DB001818636867
:1018C0004FEA83024FEA937341F10001FEF780FC77
:1018D000204DA5FB00325109642303FB11031B01BA
:1018E0003233A5FB03235B0903F0F00202EB011284
:1018F00003F00F03216813448B6038BD00230218E6
:1019000043EB0301121841F10001C90041EA527191
:10191000D200101841F10001626892185B41FEF795
:1019200057FC0C4DA5FB00325109642303FB110346
:10193000DB003233A5FB03235B095A0002F4F87283
:1019400002EB011203F00703216813448B60D4E714
:10195000001001401F85EB512DE9F84305460F4665
:1019600016469946DDF820802C68246837EA04037F
:101970000CBF4FF0010C4FF0000CB4451FD1B8F173
:10198000FF3FF1D0B8F1000F05D0FFF7BDFBA0EB92
:1019900009004045E8D92A68D36823F4D073D3609E
:1019A0002A68536923F001035361202385F83D30F1
:1019B00085F83E30002385F83C30032000E000200D
:1019C000BDE8F88358B310B5044690F83D300BB32A
:1019D000242384F83D302268D36823F40053D36075
:1019E0002046FFF731FF2268136923F49043136107
:1019F0002268536923F02A0353612268D36843F4B1
:101A00000053D36000202064202384F83D3084F804
:101A10003E3010BD80F83C30FFF7DCFED8E70120F7
:101A200070472DE9F04182B01E4690F83D30DBB2A0
:101A3000202B54D104460D469046002953D0002A4D
:101A400053D090F83C30012B51D0012380F83C302A
:101A500000230364212380F83D30FFF755FB074640
:101A6000A4F82480A4F82680A368B3F5805F05D08D
:101A70004FF00008002384F83C3012E0236913B1D2
:101A80004FF00008F6E7A8460025F3E738F8023BD8
:101A90002268C3F308035360E28C92B2013A92B217
:101AA000E284E38C9BB273B100963B460022802116
:101AB0002046FFF751FFE0B9002DE7D015F8012BC4
:101AC00023685A60E8E700963B4600224021204602
:101AD000FFF742FF78B9202384F83D3000E0022070
:101AE00002B0BDE8F0810120FAE70120F8E702200A
:101AF000F6E70320F4E70320F2E70000DFF834D034
:101B00000D480E490E4A002302E0D458C450043355
:101B1000C4188C42F9D30B4A0B4C002301E013602C
:101B20000432A242FBD3FFF7A3FC00F011F8FEF74A
:101B300033FD7047000002200000002070000020EC
:101B40005026000870000020E4010020FEE700009D
:101B500070B50D4D0D4C641BA4100026A64209D192
:101B60000B4D0C4C00F01AFD641BA4100026A6427D
:101B700005D170BD55F8043B98470136EEE755F89E
:101B8000043B98470136F2E748260008482600083B
:101B9000482600084C26000802440346934200D120
:101BA000704703F8011BF9E770B50E46054618B1FA
:101BB00083690BB900F048FAAB69AC6813B92846E1
:101BC00000F042FA2C4B9C4220D16C68636EDB071C
:101BD00005D4A389980502D4A06D00F0D3FAA38997
:101BE00019071DD52369DBB1013EA36816F8011F53
:101BF000013BA36039BB002B38DA22460A21284674
:101C000000F048F8013011D00A2511E01B4B9C422E
:101C100001D1AC68DAE71A4B9C4208BFEC68D5E703
:101C20002146284600F088F80028DDD04FF0FF3527
:101C3000636EDA0705D4A3899B0502D4A06D00F07A
:101C4000A2FA284670BD002B04DAA2699A4206DC8B
:101C50000A2904D023685A1C22601970C5E722465D
:101C6000284600F017F80130BFD1DFE723680A25C6
:101C70005A1C22601D70DBE70026000820260008A1
:101C8000E0250008024B01461868FFF78DBF00BF32
:101C90000C000020F8B50E461446054618B18369BD
:101CA0000BB900F0D1F9214B9C422BD16C68A36990
:101CB000A360A3891A072FD523696BB32369206812
:101CC000C01A6369F6B28342374604DC21462846CF
:101CD00000F026F930BBA368013BA36023685A1CBF
:101CE00022601E7063690130834204D0A389DB0740
:101CF00006D50A2E04D12146284600F011F988B9EC
:101D00003846F8BD0A4B9C4201D1AC68CFE7094B7D
:101D10009C4208BFEC68CAE72146284600F00CF850
:101D20000028CBD04FF0FF37EAE700BF00260008BD
:101D300020260008E0250008324B70B51D680646D5
:101D40000C4625B1AB6913B9284600F07DF92E4B3E
:101D50009C420FD16C68A389B4F90C2019072CD4CC
:101D6000DD0611D40923336042F04003A3814FF014
:101D7000FF303EE0254B9C4201D1AC68EBE7244BA1
:101D80009C4208BFEC68E6E7580712D5616B41B189
:101D900004F14403994202D0304600F05BFA00237C
:101DA0006363A38923F02403A38100236360236971
:101DB0002360A38943F00803A38123694BB9A38956
:101DC00003F42073B3F5007F03D02146304600F0C2
:101DD00001FAA089B4F90C2010F001030AD0002305
:101DE000A36063695B42A361236943B910F080007B
:101DF000BAD170BD810758BF6369A360F4E70020C2
:101E0000F7E700BF0C00002000260008202600088D
:101E1000E02500088A892DE9F041054610070C46A7
:101E200058D44B68002B05DC0B6C002B02DC002027
:101E3000BDE8F081E66A002EF9D0002312F480524A
:101E40002F682B6032D0606DA3895A0705D563686F
:101E5000C01A636B0BB1236CC01A00230246E66AFA
:101E6000216A2846B047431CA38906D129681D2949
:101E70002CD82A4ACA40D60728D500226260D90445
:101E80002269226004D5421C01D12B6803B9606528
:101E9000616B2F600029CAD004F14403994202D03B
:101EA000284600F0D7F900206063C1E7216A0123CA
:101EB0002846B047411CC7D12B68002BC4D01D2B2E
:101EC00001D0162B01D12F60B1E7A38943F0400365
:101ED000A381ADE70F69002FA9D093070E6808BF53
:101EE0004B690F6018BF0023A6EB07088B60B8F1A1
:101EF000000F9CDD216AA66A43463A462846B04751
:101F0000002806DCA38943F04003A3814FF0FF3093
:101F10008EE70744A8EB0008E9E700BF0100402076
:101F200038B50B6905460C4613B90025284638BD5F
:101F300018B183690BB900F087F8144B9C421BD190
:101F40006C68B4F90C30002BEFD0626ED00704D46B
:101F5000990502D4A06D00F015F928462146FFF737
:101F600059FF636EDA070546E0D4A3899B05DDD4EB
:101F7000A06D00F008F9D9E7054B9C4201D1AC688F
:101F8000DFE7044B9C4208BFEC68DAE70026000854
:101F900020260008E0250008002310B50446C0E90B
:101FA0000033C0E90433836081814366C281836169
:101FB000194608225C30FFF7EFFD054B6362054BC5
:101FC000A362054BE362054B2462236310BD00BF8F
:101FD000C1230008E32300081B2400083F24000855
:101FE000014900F0AFB800BF211F000870B568229A
:101FF0004D1E55430E4605F1740100F077F9044675
:1020000040B10021C0E900160C30A06005F1680263
:10201000FFF7C2FD204670BD014800F0B3B800BF15
:10202000D1010020014800F0AEB800BFD10100206E
:10203000014800F0A7B800BFD2010020014800F01D
:10204000A2B800BFD201002010B50446FFF7F0FF90
:10205000A3691BB1BDE81040FFF7F0BFC4E912331C
:102060002365134B134A1B68A262A34204BF0123DA
:10207000A361204600F020F86060204600F01CF8C4
:10208000A060204600F018F80022E060042160689B
:10209000FFF782FFA06801220921FFF77DFFE068BA
:1020A00002221221FFF778FF0123A361D2E700BFCC
:1020B000DC250008E11F0008F8B50746FFF7ACFF74
:1020C0001E4B1E68B36913B93046FFF7BDFF483693
:1020D000D6E90134013B03D533680BB33668F7E723
:1020E000B4F90C50D5B9164BE36004F1580065669D
:1020F00000F047F8FFF796FFC4E90155C4E904551D
:102100002560A5610822294604F15C00FFF744FD23
:10211000C4E90D55C4E912552046F8BD6834D9E725
:1021200004213846FFF762FF044630600028D5D10D
:10213000FFF778FF0C233B60EEE700BFDC250008CB
:102140000100FFFF2DE9F8430646884600F14804E8
:102150000027D4E90195B9F1010905D52468002CBF
:10216000F7D13846BDE8F883AB89012B07D9B5F91B
:102170000E30013303D029463046C0470743683547
:10218000E9E770477047704770B50E46B1F90E1019
:10219000002996B014461D4608DAB6F90C30002224
:1021A0002A601A0610D44FF480630EE06A4600F0ED
:1021B0006DF90028F1DB019A02F47042A2F5005398
:1021C0005A425A412A60EEE740230020236016B0AD
:1021D00070BD00008B8973B59D0706460C4607D578
:1021E00004F14703236023610123636102B070BDE2
:1021F00001AB6A46FFF7C8FF00990546304600F07C
:1022000075F848B9B4F90C309A05EFD423F00303FC
:1022100043F00203A381E3E70D4BB362A38920607F
:1022200043F08003A381009B6361019B20615BB14C
:10223000B4F90E10304600F03BF928B1A38923F021
:10224000030343F00103A381A0890543A581CDE7E2
:10225000E11F000837B5002944D051F8043C019033
:10226000002BA1F10404B8BFE41800F043F91E4AA2
:102270000198136833B96360146003B0BDE830405F
:1022800000F03EB9A34208D9256861198B4201BF0D
:1022900019685B6849192160EDE71A465B680BB164
:1022A000A342FAD911685518A5420BD124682144DC
:1022B0005418A3421160E0D11C685B68536021444C
:1022C0001160DAE702D90C230360D6E725686119AB
:1022D0008B4204BF19685B68636004BF49192160C1
:1022E0005460CAE703B030BDD4010020F8B5CD1C5E
:1022F00025F0030508350C2D38BF0C25002D0646AA
:1023000001DBA94203D90C2333600020F8BD00F0A3
:10231000F1F821490A6814469CB9204F3B6823B95B
:102320002146304600F03CF838602946304600F03F
:1023300037F8431C23D10C233360304600F0E0F81B
:10234000E3E723685B1B17D40B2B03D923601C44E2
:10235000256004E06368A2420CBF0B605360304606
:1023600000F0CEF804F10B00231D20F00700C21A84
:10237000CCD01B1AA350C9E722466468CCE7C41C22
:1023800024F00304A042E3D0211A304600F008F8FC
:102390000130DDD1CFE700BFD4010020D8010020FB
:1023A00038B5064D0023044608462B6000F0E8F8D7
:1023B000431C02D12B6803B1236038BDDC0100202F
:1023C00010B50C46B1F90E1000F0A0F80028ABBF14
:1023D000636DA3891B1823F48053ACBF6365A3818D
:1023E00010BD2DE9F0411F468B89DB0505460C46E3
:1023F000164605D5B1F90E100223002200F068F848
:10240000A389B4F90E1023F48053A38132463B46CE
:102410002846BDE8F04100F017B810B50C46B1F9F8
:102420000E1000F055F8431CA38915BF606523F416
:10243000805343F48053A38118BFA38110BDB1F929
:102440000E1000F013B8000038B5074D04460846DA
:10245000114600222A601A46FFF794F9431C02D164
:102460002B6803B1236038BDDC01002038B5064D70
:102470000023044608462B6000F05AF8431C02D1A2
:102480002B6803B1236038BDDC01002038B5074D4F
:1024900000230446084611462B6000F051F8431C07
:1024A00002D12B6803B1236038BD00BFDC010020DE
:1024B00038B5064D0023044608462B6000F048F866
:1024C000431C02D12B6803B1236038BDDC0100201E
:1024D00038B5074D04460846114600222A601A46C0
:1024E00000F03EF8431C02D12B6803B1236038BDD5
:1024F000DC0100200148FFF745BE00BFD0010020ED
:102500000148FFF740BE00BFD001002038B5074D9D
:1025100004460846114600222A601A4600F028F8B0
:10252000431C02D12B6803B1236038BDDC010020BD
:10253000024B58221A604FF0FF307047DC01002038
:10254000024B58221A604FF0FF307047DC01002028
:10255000024B58221A600020704700BFDC010020A7
:10256000024B58221A604FF0FF307047DC01002008
:10257000024B58221A604FF0FF307047DC010020F8
:10258000044A05491368002B08BF0B461844106025
:1025900018467047E0010020E8010020F8B500BFB0
:1025A000F8BC08BC9E467047F8B500BFF8BC08BC34
:0425B0009E4670478C
:1025B40068656C6C6F20776F726C640D00000000AE
:1025C40000000000000000000102030406070809DF
:1025D40000000000010203041000002000000000BD
:1025E40000000000000000000000000000000000E7
:1025F40000000000000000000000000000000000D7
:1026040000000000000000000000000000000000C6
:1026140000000000000000000000000000000000B6
:1026240000000000000000000000000000000000A6
:0C2634000000000000000000000000009A
:08264000C0DBFF7F0100000078
:04264800B5010008D0
:04264C0091010008F0
:1026500001000000100000000024F4001000002021
:10266000000000000026000820260008E0250008E1
:10267000000000000000000000000000000000005A
:10268000000000000000000000000000000000004A
:10269000000000000000000000000000000000003A
:1026A000000000000000000000000000000000002A
:1026B000000000000000000000000000000000001A
:0400000508001AFDD8
:00000001FF
